{
  "contractName": "AntsFaucet",
  "abi": [
    {
      "inputs": [
        {
          "internalType": "address",
          "name": "ants_",
          "type": "address"
        }
      ],
      "stateMutability": "nonpayable",
      "type": "constructor"
    },
    {
      "anonymous": false,
      "inputs": [
        {
          "indexed": true,
          "internalType": "address",
          "name": "from",
          "type": "address"
        },
        {
          "indexed": false,
          "internalType": "uint256",
          "name": "amount",
          "type": "uint256"
        }
      ],
      "name": "Deposit",
      "type": "event"
    },
    {
      "anonymous": false,
      "inputs": [
        {
          "indexed": true,
          "internalType": "address",
          "name": "previousOwner",
          "type": "address"
        },
        {
          "indexed": true,
          "internalType": "address",
          "name": "newOwner",
          "type": "address"
        }
      ],
      "name": "OwnershipTransferred",
      "type": "event"
    },
    {
      "anonymous": false,
      "inputs": [
        {
          "indexed": false,
          "internalType": "address",
          "name": "account",
          "type": "address"
        }
      ],
      "name": "Paused",
      "type": "event"
    },
    {
      "anonymous": false,
      "inputs": [
        {
          "indexed": true,
          "internalType": "bytes32",
          "name": "role",
          "type": "bytes32"
        },
        {
          "indexed": true,
          "internalType": "bytes32",
          "name": "previousAdminRole",
          "type": "bytes32"
        },
        {
          "indexed": true,
          "internalType": "bytes32",
          "name": "newAdminRole",
          "type": "bytes32"
        }
      ],
      "name": "RoleAdminChanged",
      "type": "event"
    },
    {
      "anonymous": false,
      "inputs": [
        {
          "indexed": true,
          "internalType": "bytes32",
          "name": "role",
          "type": "bytes32"
        },
        {
          "indexed": true,
          "internalType": "address",
          "name": "account",
          "type": "address"
        },
        {
          "indexed": true,
          "internalType": "address",
          "name": "sender",
          "type": "address"
        }
      ],
      "name": "RoleGranted",
      "type": "event"
    },
    {
      "anonymous": false,
      "inputs": [
        {
          "indexed": true,
          "internalType": "bytes32",
          "name": "role",
          "type": "bytes32"
        },
        {
          "indexed": true,
          "internalType": "address",
          "name": "account",
          "type": "address"
        },
        {
          "indexed": true,
          "internalType": "address",
          "name": "sender",
          "type": "address"
        }
      ],
      "name": "RoleRevoked",
      "type": "event"
    },
    {
      "anonymous": false,
      "inputs": [
        {
          "indexed": false,
          "internalType": "address",
          "name": "account",
          "type": "address"
        }
      ],
      "name": "Unpaused",
      "type": "event"
    },
    {
      "anonymous": false,
      "inputs": [
        {
          "indexed": false,
          "internalType": "address",
          "name": "account",
          "type": "address"
        }
      ],
      "name": "Withdrawal",
      "type": "event"
    },
    {
      "inputs": [],
      "name": "DEFAULT_ADMIN_ROLE",
      "outputs": [
        {
          "internalType": "bytes32",
          "name": "",
          "type": "bytes32"
        }
      ],
      "stateMutability": "view",
      "type": "function",
      "constant": true
    },
    {
      "inputs": [],
      "name": "PAUSER_ROLE",
      "outputs": [
        {
          "internalType": "bytes32",
          "name": "",
          "type": "bytes32"
        }
      ],
      "stateMutability": "view",
      "type": "function",
      "constant": true
    },
    {
      "inputs": [
        {
          "internalType": "bytes32",
          "name": "role",
          "type": "bytes32"
        }
      ],
      "name": "getRoleAdmin",
      "outputs": [
        {
          "internalType": "bytes32",
          "name": "",
          "type": "bytes32"
        }
      ],
      "stateMutability": "view",
      "type": "function",
      "constant": true
    },
    {
      "inputs": [
        {
          "internalType": "bytes32",
          "name": "role",
          "type": "bytes32"
        },
        {
          "internalType": "uint256",
          "name": "index",
          "type": "uint256"
        }
      ],
      "name": "getRoleMember",
      "outputs": [
        {
          "internalType": "address",
          "name": "",
          "type": "address"
        }
      ],
      "stateMutability": "view",
      "type": "function",
      "constant": true
    },
    {
      "inputs": [
        {
          "internalType": "bytes32",
          "name": "role",
          "type": "bytes32"
        }
      ],
      "name": "getRoleMemberCount",
      "outputs": [
        {
          "internalType": "uint256",
          "name": "",
          "type": "uint256"
        }
      ],
      "stateMutability": "view",
      "type": "function",
      "constant": true
    },
    {
      "inputs": [
        {
          "internalType": "bytes32",
          "name": "role",
          "type": "bytes32"
        },
        {
          "internalType": "address",
          "name": "account",
          "type": "address"
        }
      ],
      "name": "grantRole",
      "outputs": [],
      "stateMutability": "nonpayable",
      "type": "function"
    },
    {
      "inputs": [
        {
          "internalType": "bytes32",
          "name": "role",
          "type": "bytes32"
        },
        {
          "internalType": "address",
          "name": "account",
          "type": "address"
        }
      ],
      "name": "hasRole",
      "outputs": [
        {
          "internalType": "bool",
          "name": "",
          "type": "bool"
        }
      ],
      "stateMutability": "view",
      "type": "function",
      "constant": true
    },
    {
      "inputs": [],
      "name": "owner",
      "outputs": [
        {
          "internalType": "address",
          "name": "",
          "type": "address"
        }
      ],
      "stateMutability": "view",
      "type": "function",
      "constant": true
    },
    {
      "inputs": [],
      "name": "paused",
      "outputs": [
        {
          "internalType": "bool",
          "name": "",
          "type": "bool"
        }
      ],
      "stateMutability": "view",
      "type": "function",
      "constant": true
    },
    {
      "inputs": [],
      "name": "renounceOwnership",
      "outputs": [],
      "stateMutability": "nonpayable",
      "type": "function"
    },
    {
      "inputs": [
        {
          "internalType": "bytes32",
          "name": "role",
          "type": "bytes32"
        },
        {
          "internalType": "address",
          "name": "account",
          "type": "address"
        }
      ],
      "name": "renounceRole",
      "outputs": [],
      "stateMutability": "nonpayable",
      "type": "function"
    },
    {
      "inputs": [
        {
          "internalType": "bytes32",
          "name": "role",
          "type": "bytes32"
        },
        {
          "internalType": "address",
          "name": "account",
          "type": "address"
        }
      ],
      "name": "revokeRole",
      "outputs": [],
      "stateMutability": "nonpayable",
      "type": "function"
    },
    {
      "inputs": [
        {
          "internalType": "address",
          "name": "newOwner",
          "type": "address"
        }
      ],
      "name": "transferOwnership",
      "outputs": [],
      "stateMutability": "nonpayable",
      "type": "function"
    },
    {
      "stateMutability": "payable",
      "type": "receive",
      "payable": true
    },
    {
      "inputs": [],
      "name": "withdraw",
      "outputs": [
        {
          "internalType": "bool",
          "name": "",
          "type": "bool"
        }
      ],
      "stateMutability": "nonpayable",
      "type": "function"
    },
    {
      "inputs": [],
      "name": "pause",
      "outputs": [],
      "stateMutability": "nonpayable",
      "type": "function"
    },
    {
      "inputs": [],
      "name": "unpause",
      "outputs": [],
      "stateMutability": "nonpayable",
      "type": "function"
    }
  ],
  "bytecode": "0x60a06040523480156200001157600080fd5b5060405162001bbc38038062001bbc833981810160405260208110156200003757600080fd5b810190808051906020019092919050505060006200005a620001b660201b60201c565b9050806000806101000a81548173ffffffffffffffffffffffffffffffffffffffff021916908373ffffffffffffffffffffffffffffffffffffffff1602179055508073ffffffffffffffffffffffffffffffffffffffff16600073ffffffffffffffffffffffffffffffffffffffff167f8be0079c531659141344cd1fd0a4f28419497f9722a3daafe3b4186f6b6457e060405160405180910390a3506000600260006101000a81548160ff021916908315150217905550620001376000801b6200012b620001be60201b60201c565b620001e760201b60201c565b620001787f65d7a28e3265b37a6474929f336521b332c1681b933f6cb9f3376673440d862a6200016c620001be60201b60201c565b620001e760201b60201c565b8073ffffffffffffffffffffffffffffffffffffffff1660808173ffffffffffffffffffffffffffffffffffffffff1660601b815250505062000376565b600033905090565b60008060009054906101000a900473ffffffffffffffffffffffffffffffffffffffff16905090565b620001f98282620001fd60201b60201c565b5050565b6200022c8160016000858152602001908152602001600020600001620002a160201b620010a81790919060201c565b156200029d5762000242620001b660201b60201c565b73ffffffffffffffffffffffffffffffffffffffff168173ffffffffffffffffffffffffffffffffffffffff16837f2f8788117e7eff1d82e926ec794901d17c78024a50270940304540a733656f0d60405160405180910390a45b5050565b6000620002d1836000018373ffffffffffffffffffffffffffffffffffffffff1660001b620002d960201b60201c565b905092915050565b6000620002ed83836200035360201b60201c565b620003485782600001829080600181540180825580915050600190039060005260206000200160009091909190915055826000018054905083600101600084815260200190815260200160002081905550600190506200034d565b600090505b92915050565b600080836001016000848152602001908152602001600020541415905092915050565b60805160601c611819620003a3600039806106b052806107c95280610b975280610bdb52506118196000f3fe6080604052600436106100f75760003560e01c80638da5cb5b1161008a578063ca15c87311610059578063ca15c87314610441578063d547741f14610490578063e63ab1e9146104eb578063f2fde38b146105165761014c565b80638da5cb5b146102f55780639010d07c1461033657806391d14854146103a5578063a217fddf146104165761014c565b80633f4ba83a116100c65780633f4ba83a146102835780635c975abb1461029a578063715018a6146102c75780638456cb59146102de5761014c565b8063248a9ca3146101515780632f2ff15d146101a057806336568abe146101fb5780633ccfd60b146102565761014c565b3661014c573373ffffffffffffffffffffffffffffffffffffffff167fe1fffcc4923d04b559f4d29a8bfc6cda04eb5b0d3c460751c2402c5c5cc9109c346040518082815260200191505060405180910390a2005b600080fd5b34801561015d57600080fd5b5061018a6004803603602081101561017457600080fd5b8101908080359060200190929190505050610567565b6040518082815260200191505060405180910390f35b3480156101ac57600080fd5b506101f9600480360360408110156101c357600080fd5b8101908080359060200190929190803573ffffffffffffffffffffffffffffffffffffffff169060200190929190505050610587565b005b34801561020757600080fd5b506102546004803603604081101561021e57600080fd5b8101908080359060200190929190803573ffffffffffffffffffffffffffffffffffffffff169060200190929190505050610611565b005b34801561026257600080fd5b5061026b6106aa565b60405180821515815260200191505060405180910390f35b34801561028f57600080fd5b506102986108f0565b005b3480156102a657600080fd5b506102af610979565b60405180821515815260200191505060405180910390f35b3480156102d357600080fd5b506102dc610990565b005b3480156102ea57600080fd5b506102f3610b16565b005b34801561030157600080fd5b5061030a610d34565b604051808273ffffffffffffffffffffffffffffffffffffffff16815260200191505060405180910390f35b34801561034257600080fd5b506103796004803603604081101561035957600080fd5b810190808035906020019092919080359060200190929190505050610d5d565b604051808273ffffffffffffffffffffffffffffffffffffffff16815260200191505060405180910390f35b3480156103b157600080fd5b506103fe600480360360408110156103c857600080fd5b8101908080359060200190929190803573ffffffffffffffffffffffffffffffffffffffff169060200190929190505050610d8f565b60405180821515815260200191505060405180910390f35b34801561042257600080fd5b5061042b610dc1565b6040518082815260200191505060405180910390f35b34801561044d57600080fd5b5061047a6004803603602081101561046457600080fd5b8101908080359060200190929190505050610dc8565b6040518082815260200191505060405180910390f35b34801561049c57600080fd5b506104e9600480360360408110156104b357600080fd5b8101908080359060200190929190803573ffffffffffffffffffffffffffffffffffffffff169060200190929190505050610def565b005b3480156104f757600080fd5b50610500610e79565b6040518082815260200191505060405180910390f35b34801561052257600080fd5b506105656004803603602081101561053957600080fd5b81019080803573ffffffffffffffffffffffffffffffffffffffff169060200190929190505050610e9d565b005b600060016000838152602001908152602001600020600201549050919050565b6105ae60016000848152602001908152602001600020600201546105a96110d8565b610d8f565b610603576040517f08c379a000000000000000000000000000000000000000000000000000000000815260040180806020018281038252602f8152602001806116b0602f913960400191505060405180910390fd5b61060d82826110e0565b5050565b6106196110d8565b73ffffffffffffffffffffffffffffffffffffffff168173ffffffffffffffffffffffffffffffffffffffff161461069c576040517f08c379a000000000000000000000000000000000000000000000000000000000815260040180806020018281038252602f8152602001806117b5602f913960400191505060405180910390fd5b6106a68282611174565b5050565b6000600a7f000000000000000000000000000000000000000000000000000000000000000073ffffffffffffffffffffffffffffffffffffffff166370a08231306040518263ffffffff1660e01b8152600401808273ffffffffffffffffffffffffffffffffffffffff16815260200191505060206040518083038186803b15801561073557600080fd5b505afa158015610749573d6000803e3d6000fd5b505050506040513d602081101561075f57600080fd5b810190808051906020019092919050505010156107c7576040517f08c379a000000000000000000000000000000000000000000000000000000000815260040180806020018281038252602a815260200180611705602a913960400191505060405180910390fd5b7f000000000000000000000000000000000000000000000000000000000000000073ffffffffffffffffffffffffffffffffffffffff1663a9059cbb33678ac7230489e800006040518363ffffffff1660e01b8152600401808373ffffffffffffffffffffffffffffffffffffffff16815260200182815260200192505050602060405180830381600087803b15801561086057600080fd5b505af1158015610874573d6000803e3d6000fd5b505050506040513d602081101561088a57600080fd5b8101908080519060200190929190505050507fe19ed71156e31b3c9e18ac7ad8d1b79f0a0feb3be18d23dae612e52040aada4b33604051808273ffffffffffffffffffffffffffffffffffffffff16815260200191505060405180910390a16001905090565b61091a7f65d7a28e3265b37a6474929f336521b332c1681b933f6cb9f3376673440d862a33610d8f565b61096f576040517f08c379a000000000000000000000000000000000000000000000000000000000815260040180806020018281038252602c81526020018061175f602c913960400191505060405180910390fd5b610977611208565b565b6000600260009054906101000a900460ff16905090565b6109986110d8565b73ffffffffffffffffffffffffffffffffffffffff1660008054906101000a900473ffffffffffffffffffffffffffffffffffffffff1673ffffffffffffffffffffffffffffffffffffffff1614610a58576040517f08c379a00000000000000000000000000000000000000000000000000000000081526004018080602001828103825260208152602001807f4f776e61626c653a2063616c6c6572206973206e6f7420746865206f776e657281525060200191505060405180910390fd5b600073ffffffffffffffffffffffffffffffffffffffff1660008054906101000a900473ffffffffffffffffffffffffffffffffffffffff1673ffffffffffffffffffffffffffffffffffffffff167f8be0079c531659141344cd1fd0a4f28419497f9722a3daafe3b4186f6b6457e060405160405180910390a360008060006101000a81548173ffffffffffffffffffffffffffffffffffffffff021916908373ffffffffffffffffffffffffffffffffffffffff160217905550565b610b407f65d7a28e3265b37a6474929f336521b332c1681b933f6cb9f3376673440d862a33610d8f565b610b95576040517f08c379a000000000000000000000000000000000000000000000000000000000815260040180806020018281038252602a81526020018061178b602a913960400191505060405180910390fd5b7f000000000000000000000000000000000000000000000000000000000000000073ffffffffffffffffffffffffffffffffffffffff1663a9059cbb610bd9610d34565b7f000000000000000000000000000000000000000000000000000000000000000073ffffffffffffffffffffffffffffffffffffffff166370a08231306040518263ffffffff1660e01b8152600401808273ffffffffffffffffffffffffffffffffffffffff16815260200191505060206040518083038186803b158015610c6057600080fd5b505afa158015610c74573d6000803e3d6000fd5b505050506040513d6020811015610c8a57600080fd5b81019080805190602001909291905050506040518363ffffffff1660e01b8152600401808373ffffffffffffffffffffffffffffffffffffffff16815260200182815260200192505050602060405180830381600087803b158015610cee57600080fd5b505af1158015610d02573d6000803e3d6000fd5b505050506040513d6020811015610d1857600080fd5b810190808051906020019092919050505050610d326112fb565b565b60008060009054906101000a900473ffffffffffffffffffffffffffffffffffffffff16905090565b6000610d8782600160008681526020019081526020016000206000016113ef90919063ffffffff16565b905092915050565b6000610db9826001600086815260200190815260200160002060000161140990919063ffffffff16565b905092915050565b6000801b81565b6000610de860016000848152602001908152602001600020600001611439565b9050919050565b610e166001600084815260200190815260200160002060020154610e116110d8565b610d8f565b610e6b576040517f08c379a000000000000000000000000000000000000000000000000000000000815260040180806020018281038252603081526020018061172f6030913960400191505060405180910390fd5b610e758282611174565b5050565b7f65d7a28e3265b37a6474929f336521b332c1681b933f6cb9f3376673440d862a81565b610ea56110d8565b73ffffffffffffffffffffffffffffffffffffffff1660008054906101000a900473ffffffffffffffffffffffffffffffffffffffff1673ffffffffffffffffffffffffffffffffffffffff1614610f65576040517f08c379a00000000000000000000000000000000000000000000000000000000081526004018080602001828103825260208152602001807f4f776e61626c653a2063616c6c6572206973206e6f7420746865206f776e657281525060200191505060405180910390fd5b600073ffffffffffffffffffffffffffffffffffffffff168173ffffffffffffffffffffffffffffffffffffffff161415610feb576040517f08c379a00000000000000000000000000000000000000000000000000000000081526004018080602001828103825260268152602001806116df6026913960400191505060405180910390fd5b8073ffffffffffffffffffffffffffffffffffffffff1660008054906101000a900473ffffffffffffffffffffffffffffffffffffffff1673ffffffffffffffffffffffffffffffffffffffff167f8be0079c531659141344cd1fd0a4f28419497f9722a3daafe3b4186f6b6457e060405160405180910390a3806000806101000a81548173ffffffffffffffffffffffffffffffffffffffff021916908373ffffffffffffffffffffffffffffffffffffffff16021790555050565b60006110d0836000018373ffffffffffffffffffffffffffffffffffffffff1660001b61144e565b905092915050565b600033905090565b61110881600160008581526020019081526020016000206000016110a890919063ffffffff16565b15611170576111156110d8565b73ffffffffffffffffffffffffffffffffffffffff168173ffffffffffffffffffffffffffffffffffffffff16837f2f8788117e7eff1d82e926ec794901d17c78024a50270940304540a733656f0d60405160405180910390a45b5050565b61119c81600160008581526020019081526020016000206000016114be90919063ffffffff16565b15611204576111a96110d8565b73ffffffffffffffffffffffffffffffffffffffff168173ffffffffffffffffffffffffffffffffffffffff16837ff6391f5c32d9c69d2a47ea670b442974b53935d1edc7fd64eb21e047a839171b60405160405180910390a45b5050565b600260009054906101000a900460ff1661128a576040517f08c379a00000000000000000000000000000000000000000000000000000000081526004018080602001828103825260148152602001807f5061757361626c653a206e6f742070617573656400000000000000000000000081525060200191505060405180910390fd5b6000600260006101000a81548160ff0219169083151502179055507f5db9ee0a495bf2e6ff9c91a7834c1ba4fdd244a5e8aa4e537bd38aeae4b073aa6112ce6110d8565b604051808273ffffffffffffffffffffffffffffffffffffffff16815260200191505060405180910390a1565b600260009054906101000a900460ff161561137e576040517f08c379a00000000000000000000000000000000000000000000000000000000081526004018080602001828103825260108152602001807f5061757361626c653a207061757365640000000000000000000000000000000081525060200191505060405180910390fd5b6001600260006101000a81548160ff0219169083151502179055507f62e78cea01bee320cd4e420270b5ea74000d11b0c9f74754ebdbfc544b05a2586113c26110d8565b604051808273ffffffffffffffffffffffffffffffffffffffff16815260200191505060405180910390a1565b60006113fe83600001836114ee565b60001c905092915050565b6000611431836000018373ffffffffffffffffffffffffffffffffffffffff1660001b611571565b905092915050565b600061144782600001611594565b9050919050565b600061145a8383611571565b6114b35782600001829080600181540180825580915050600190039060005260206000200160009091909190915055826000018054905083600101600084815260200190815260200160002081905550600190506114b8565b600090505b92915050565b60006114e6836000018373ffffffffffffffffffffffffffffffffffffffff1660001b6115a5565b905092915050565b60008183600001805490501161154f576040517f08c379a000000000000000000000000000000000000000000000000000000000815260040180806020018281038252602281526020018061168e6022913960400191505060405180910390fd5b82600001828154811061155e57fe5b9060005260206000200154905092915050565b600080836001016000848152602001908152602001600020541415905092915050565b600081600001805490509050919050565b6000808360010160008481526020019081526020016000205490506000811461168157600060018203905060006001866000018054905003905060008660000182815481106115f057fe5b906000526020600020015490508087600001848154811061160d57fe5b906000526020600020018190555060018301876001016000838152602001908152602001600020819055508660000180548061164557fe5b60019003818190600052602060002001600090559055866001016000878152602001908152602001600020600090556001945050505050611687565b60009150505b9291505056fe456e756d657261626c655365743a20696e646578206f7574206f6620626f756e6473416363657373436f6e74726f6c3a2073656e646572206d75737420626520616e2061646d696e20746f206772616e744f776e61626c653a206e6577206f776e657220697320746865207a65726f2061646472657373496e73756666696369656e742062616c616e6365206f6620414e545320696e2074686520666175636574416363657373436f6e74726f6c3a2073656e646572206d75737420626520616e2061646d696e20746f207265766f6b65416e74734661756365743a206d75737420686176652070617573657220726f6c6520746f20756e7061757365416e74734661756365743a206d75737420686176652070617573657220726f6c6520746f207061757365416363657373436f6e74726f6c3a2063616e206f6e6c792072656e6f756e636520726f6c657320666f722073656c66a26469706673582212209edc2c4b73f23c620a59a4d7138756d1ea5f83d077453a436a684d87ff711f8464736f6c634300060c0033",
  "immutableReferences": {
    "243": [
      {
        "length": 32,
        "start": 1712
      },
      {
        "length": 32,
        "start": 1993
      },
      {
        "length": 32,
        "start": 2967
      },
      {
        "length": 32,
        "start": 3035
      }
    ]
  },
  "source": "/// SPDX-License-Identifier: GPL-3.0\npragma solidity 0.6.12;\n\n///@title Ants-Review\n///@author Nazzareno Massari @naszam\n///@notice ANTS Faucet\n///@dev All function calls are currently implemented without side effects through TDD approach\n///@dev OpenZeppelin library is used for secure contract development\n\nimport \"@openzeppelin/contracts/access/Ownable.sol\";\nimport \"@openzeppelin/contracts/access/AccessControl.sol\";\nimport \"@openzeppelin/contracts/utils/Pausable.sol\";\n\ninterface AntsToken {\n  function transfer(address recipient, uint amount) external returns (bool);\n  function balanceOf(address account) external view returns (uint);\n}\n\ncontract AntsFaucet is Ownable, AccessControl, Pausable {\n\n  /// @dev Pauser Role\n  bytes32 public constant PAUSER_ROLE = keccak256(\"PAUSER_ROLE\");\n\n  /// @dev Token\n  AntsToken internal immutable ants;\n\n  /// @dev Events\n  event Withdrawal(address account);\n  event Deposit(address indexed from, uint amount);\n\n\n  constructor(address ants_) public {\n    _setupRole(DEFAULT_ADMIN_ROLE, owner());\n    _setupRole(PAUSER_ROLE, owner());\n\n    ants = AntsToken(ants_);\n  }\n\n  /// @dev Functions\n\n  /// @notice Accept any incoming amount\n  receive() external payable {\n    emit Deposit (msg.sender, msg.value);\n  }\n\n  /// @notice Give 1 Ant to anyone who asks\n  /// @dev Checks if balance is more or equal to 1 Ant\n  /// @return True If 1 Ant is successfully withdrawn\n  function withdraw() external returns (bool) {\n      require(ants.balanceOf(address(this)) >= 10, \"Insufficient balance of ANTS in the faucet\");\n\n      ants.transfer(msg.sender, 10 ether);\n\n      emit Withdrawal(msg.sender);\n      return true;\n  }\n\n  /// @notice Pause all the functions\n  /// @dev the caller must have the 'PAUSER_ROLE'\n  function pause() external {\n    require(hasRole(PAUSER_ROLE, msg.sender), \"AntsFaucet: must have pauser role to pause\");\n    ants.transfer(owner(), ants.balanceOf(address(this)));\n    _pause();\n  }\n\n  /// @notice Unpause all the functions\n  /// @dev the caller must have the 'PAUSER_ROLE'\n  function unpause() external {\n        require(hasRole(PAUSER_ROLE, msg.sender), \"AntsFaucet: must have pauser role to unpause\");\n        _unpause();\n  }\n\n}\n",
  "sourcePath": "/home/ants/ants-review/contracts/AntsFaucet.sol",
  "compiler": {
    "name": "solc",
    "version": "0.6.12+commit.27d51765.Emscripten.clang"
  },
  "schemaVersion": "3.2.0",
  "updatedAt": "2020-08-01T18:49:05.120Z",
  "networkType": "ethereum",
  "devdoc": {
    "events": {
      "Withdrawal(address)": {
        "details": "Events"
      }
    },
    "kind": "dev",
    "methods": {
      "getRoleAdmin(bytes32)": {
        "details": "Returns the admin role that controls `role`. See {grantRole} and {revokeRole}. To change a role's admin, use {_setRoleAdmin}."
      },
      "getRoleMember(bytes32,uint256)": {
        "details": "Returns one of the accounts that have `role`. `index` must be a value between 0 and {getRoleMemberCount}, non-inclusive. Role bearers are not sorted in any particular way, and their ordering may change at any point. WARNING: When using {getRoleMember} and {getRoleMemberCount}, make sure you perform all queries on the same block. See the following https://forum.openzeppelin.com/t/iterating-over-elements-on-enumerableset-in-openzeppelin-contracts/2296[forum post] for more information."
      },
      "getRoleMemberCount(bytes32)": {
        "details": "Returns the number of accounts that have `role`. Can be used together with {getRoleMember} to enumerate all bearers of a role."
      },
      "grantRole(bytes32,address)": {
        "details": "Grants `role` to `account`. If `account` had not been already granted `role`, emits a {RoleGranted} event. Requirements: - the caller must have ``role``'s admin role."
      },
      "hasRole(bytes32,address)": {
        "details": "Returns `true` if `account` has been granted `role`."
      },
      "owner()": {
        "details": "Returns the address of the current owner."
      },
      "pause()": {
        "details": "the caller must have the 'PAUSER_ROLE'"
      },
      "paused()": {
        "details": "Returns true if the contract is paused, and false otherwise."
      },
      "renounceOwnership()": {
        "details": "Leaves the contract without owner. It will not be possible to call `onlyOwner` functions anymore. Can only be called by the current owner. NOTE: Renouncing ownership will leave the contract without an owner, thereby removing any functionality that is only available to the owner."
      },
      "renounceRole(bytes32,address)": {
        "details": "Revokes `role` from the calling account. Roles are often managed via {grantRole} and {revokeRole}: this function's purpose is to provide a mechanism for accounts to lose their privileges if they are compromised (such as when a trusted device is misplaced). If the calling account had been granted `role`, emits a {RoleRevoked} event. Requirements: - the caller must be `account`."
      },
      "revokeRole(bytes32,address)": {
        "details": "Revokes `role` from `account`. If `account` had been granted `role`, emits a {RoleRevoked} event. Requirements: - the caller must have ``role``'s admin role."
      },
      "transferOwnership(address)": {
        "details": "Transfers ownership of the contract to a new account (`newOwner`). Can only be called by the current owner."
      },
      "unpause()": {
        "details": "the caller must have the 'PAUSER_ROLE'"
      },
      "withdraw()": {
        "details": "Checks if balance is more or equal to 1 Ant",
        "returns": {
          "_0": "True If 1 Ant is successfully withdrawn"
        }
      }
    },
    "stateVariables": {
      "PAUSER_ROLE": {
        "details": "Pauser Role"
      },
      "ants": {
        "details": "Token"
      }
    },
    "version": 1
  },
  "userdoc": {
    "kind": "user",
    "methods": {
      "pause()": {
        "notice": "Pause all the functions"
      },
      "unpause()": {
        "notice": "Unpause all the functions"
      },
      "withdraw()": {
        "notice": "Give 1 Ant to anyone who asks"
      }
    },
    "version": 1
  }
}