{
  "contractName": "AntsReviewRoles",
  "abi": [
    {
      "inputs": [],
      "stateMutability": "nonpayable",
      "type": "constructor"
    },
    {
      "anonymous": false,
      "inputs": [
        {
          "indexed": true,
          "internalType": "address",
          "name": "previousOwner",
          "type": "address"
        },
        {
          "indexed": true,
          "internalType": "address",
          "name": "newOwner",
          "type": "address"
        }
      ],
      "name": "OwnershipTransferred",
      "type": "event"
    },
    {
      "anonymous": false,
      "inputs": [
        {
          "indexed": false,
          "internalType": "address",
          "name": "account",
          "type": "address"
        }
      ],
      "name": "Paused",
      "type": "event"
    },
    {
      "anonymous": false,
      "inputs": [
        {
          "indexed": true,
          "internalType": "bytes32",
          "name": "role",
          "type": "bytes32"
        },
        {
          "indexed": true,
          "internalType": "bytes32",
          "name": "previousAdminRole",
          "type": "bytes32"
        },
        {
          "indexed": true,
          "internalType": "bytes32",
          "name": "newAdminRole",
          "type": "bytes32"
        }
      ],
      "name": "RoleAdminChanged",
      "type": "event"
    },
    {
      "anonymous": false,
      "inputs": [
        {
          "indexed": true,
          "internalType": "bytes32",
          "name": "role",
          "type": "bytes32"
        },
        {
          "indexed": true,
          "internalType": "address",
          "name": "account",
          "type": "address"
        },
        {
          "indexed": true,
          "internalType": "address",
          "name": "sender",
          "type": "address"
        }
      ],
      "name": "RoleGranted",
      "type": "event"
    },
    {
      "anonymous": false,
      "inputs": [
        {
          "indexed": true,
          "internalType": "bytes32",
          "name": "role",
          "type": "bytes32"
        },
        {
          "indexed": true,
          "internalType": "address",
          "name": "account",
          "type": "address"
        },
        {
          "indexed": true,
          "internalType": "address",
          "name": "sender",
          "type": "address"
        }
      ],
      "name": "RoleRevoked",
      "type": "event"
    },
    {
      "anonymous": false,
      "inputs": [
        {
          "indexed": false,
          "internalType": "address",
          "name": "account",
          "type": "address"
        }
      ],
      "name": "Unpaused",
      "type": "event"
    },
    {
      "inputs": [],
      "name": "DEFAULT_ADMIN_ROLE",
      "outputs": [
        {
          "internalType": "bytes32",
          "name": "",
          "type": "bytes32"
        }
      ],
      "stateMutability": "view",
      "type": "function"
    },
    {
      "inputs": [],
      "name": "ISSUER_ROLE",
      "outputs": [
        {
          "internalType": "bytes32",
          "name": "",
          "type": "bytes32"
        }
      ],
      "stateMutability": "view",
      "type": "function"
    },
    {
      "inputs": [],
      "name": "PAUSER_ROLE",
      "outputs": [
        {
          "internalType": "bytes32",
          "name": "",
          "type": "bytes32"
        }
      ],
      "stateMutability": "view",
      "type": "function"
    },
    {
      "inputs": [],
      "name": "PEER_REVIEWER_ROLE",
      "outputs": [
        {
          "internalType": "bytes32",
          "name": "",
          "type": "bytes32"
        }
      ],
      "stateMutability": "view",
      "type": "function"
    },
    {
      "inputs": [
        {
          "internalType": "bytes32",
          "name": "role",
          "type": "bytes32"
        }
      ],
      "name": "getRoleAdmin",
      "outputs": [
        {
          "internalType": "bytes32",
          "name": "",
          "type": "bytes32"
        }
      ],
      "stateMutability": "view",
      "type": "function"
    },
    {
      "inputs": [
        {
          "internalType": "bytes32",
          "name": "role",
          "type": "bytes32"
        },
        {
          "internalType": "uint256",
          "name": "index",
          "type": "uint256"
        }
      ],
      "name": "getRoleMember",
      "outputs": [
        {
          "internalType": "address",
          "name": "",
          "type": "address"
        }
      ],
      "stateMutability": "view",
      "type": "function"
    },
    {
      "inputs": [
        {
          "internalType": "bytes32",
          "name": "role",
          "type": "bytes32"
        }
      ],
      "name": "getRoleMemberCount",
      "outputs": [
        {
          "internalType": "uint256",
          "name": "",
          "type": "uint256"
        }
      ],
      "stateMutability": "view",
      "type": "function"
    },
    {
      "inputs": [
        {
          "internalType": "bytes32",
          "name": "role",
          "type": "bytes32"
        },
        {
          "internalType": "address",
          "name": "account",
          "type": "address"
        }
      ],
      "name": "grantRole",
      "outputs": [],
      "stateMutability": "nonpayable",
      "type": "function"
    },
    {
      "inputs": [
        {
          "internalType": "bytes32",
          "name": "role",
          "type": "bytes32"
        },
        {
          "internalType": "address",
          "name": "account",
          "type": "address"
        }
      ],
      "name": "hasRole",
      "outputs": [
        {
          "internalType": "bool",
          "name": "",
          "type": "bool"
        }
      ],
      "stateMutability": "view",
      "type": "function"
    },
    {
      "inputs": [],
      "name": "owner",
      "outputs": [
        {
          "internalType": "address",
          "name": "",
          "type": "address"
        }
      ],
      "stateMutability": "view",
      "type": "function"
    },
    {
      "inputs": [],
      "name": "paused",
      "outputs": [
        {
          "internalType": "bool",
          "name": "",
          "type": "bool"
        }
      ],
      "stateMutability": "view",
      "type": "function"
    },
    {
      "inputs": [],
      "name": "renounceOwnership",
      "outputs": [],
      "stateMutability": "nonpayable",
      "type": "function"
    },
    {
      "inputs": [
        {
          "internalType": "bytes32",
          "name": "role",
          "type": "bytes32"
        },
        {
          "internalType": "address",
          "name": "account",
          "type": "address"
        }
      ],
      "name": "renounceRole",
      "outputs": [],
      "stateMutability": "nonpayable",
      "type": "function"
    },
    {
      "inputs": [
        {
          "internalType": "bytes32",
          "name": "role",
          "type": "bytes32"
        },
        {
          "internalType": "address",
          "name": "account",
          "type": "address"
        }
      ],
      "name": "revokeRole",
      "outputs": [],
      "stateMutability": "nonpayable",
      "type": "function"
    },
    {
      "inputs": [
        {
          "internalType": "address",
          "name": "newOwner",
          "type": "address"
        }
      ],
      "name": "transferOwnership",
      "outputs": [],
      "stateMutability": "nonpayable",
      "type": "function"
    },
    {
      "inputs": [
        {
          "internalType": "address",
          "name": "account",
          "type": "address"
        }
      ],
      "name": "isAdmin",
      "outputs": [
        {
          "internalType": "bool",
          "name": "",
          "type": "bool"
        }
      ],
      "stateMutability": "view",
      "type": "function"
    },
    {
      "inputs": [
        {
          "internalType": "address",
          "name": "account",
          "type": "address"
        }
      ],
      "name": "isIssuer",
      "outputs": [
        {
          "internalType": "bool",
          "name": "",
          "type": "bool"
        }
      ],
      "stateMutability": "view",
      "type": "function"
    },
    {
      "inputs": [
        {
          "internalType": "address",
          "name": "account",
          "type": "address"
        }
      ],
      "name": "isPeerReviewer",
      "outputs": [
        {
          "internalType": "bool",
          "name": "",
          "type": "bool"
        }
      ],
      "stateMutability": "view",
      "type": "function"
    },
    {
      "inputs": [
        {
          "internalType": "address",
          "name": "account",
          "type": "address"
        }
      ],
      "name": "addIssuer",
      "outputs": [
        {
          "internalType": "bool",
          "name": "",
          "type": "bool"
        }
      ],
      "stateMutability": "nonpayable",
      "type": "function"
    },
    {
      "inputs": [
        {
          "internalType": "address",
          "name": "account",
          "type": "address"
        }
      ],
      "name": "addPeerReviewer",
      "outputs": [
        {
          "internalType": "bool",
          "name": "",
          "type": "bool"
        }
      ],
      "stateMutability": "nonpayable",
      "type": "function"
    },
    {
      "inputs": [
        {
          "internalType": "address",
          "name": "account",
          "type": "address"
        }
      ],
      "name": "removeIssuer",
      "outputs": [
        {
          "internalType": "bool",
          "name": "",
          "type": "bool"
        }
      ],
      "stateMutability": "nonpayable",
      "type": "function"
    },
    {
      "inputs": [
        {
          "internalType": "address",
          "name": "account",
          "type": "address"
        }
      ],
      "name": "removePeerReviewer",
      "outputs": [
        {
          "internalType": "bool",
          "name": "",
          "type": "bool"
        }
      ],
      "stateMutability": "nonpayable",
      "type": "function"
    },
    {
      "inputs": [],
      "name": "pause",
      "outputs": [],
      "stateMutability": "nonpayable",
      "type": "function"
    },
    {
      "inputs": [],
      "name": "unpause",
      "outputs": [],
      "stateMutability": "nonpayable",
      "type": "function"
    }
  ],
  "bytecode": "0x60806040523480156200001157600080fd5b506000620000246200014860201b60201c565b9050806000806101000a81548173ffffffffffffffffffffffffffffffffffffffff021916908373ffffffffffffffffffffffffffffffffffffffff1602179055508073ffffffffffffffffffffffffffffffffffffffff16600073ffffffffffffffffffffffffffffffffffffffff167f8be0079c531659141344cd1fd0a4f28419497f9722a3daafe3b4186f6b6457e060405160405180910390a3506000600260006101000a81548160ff021916908315150217905550620001016000801b620000f56200015060201b60201c565b6200017960201b60201c565b620001427f65d7a28e3265b37a6474929f336521b332c1681b933f6cb9f3376673440d862a620001366200015060201b60201c565b6200017960201b60201c565b62000308565b600033905090565b60008060009054906101000a900473ffffffffffffffffffffffffffffffffffffffff16905090565b6200018b82826200018f60201b60201c565b5050565b620001be81600160008581526020019081526020016000206000016200023360201b620013f01790919060201c565b156200022f57620001d46200014860201b60201c565b73ffffffffffffffffffffffffffffffffffffffff168173ffffffffffffffffffffffffffffffffffffffff16837f2f8788117e7eff1d82e926ec794901d17c78024a50270940304540a733656f0d60405160405180910390a45b5050565b600062000263836000018373ffffffffffffffffffffffffffffffffffffffff1660001b6200026b60201b60201c565b905092915050565b60006200027f8383620002e560201b60201c565b620002da578260000182908060018154018082558091505060019003906000526020600020016000909190919091505582600001805490508360010160008481526020019081526020016000208190555060019050620002df565b600090505b92915050565b600080836001016000848152602001908152602001600020541415905092915050565b611b5980620003186000396000f3fe608060405234801561001057600080fd5b50600436106101585760003560e01c80638456cb59116100c3578063a217fddf1161007c578063a217fddf146105cb578063c629d9e5146105e9578063ca15c87314610643578063d547741f14610685578063e63ab1e9146106d3578063f2fde38b146106f157610158565b80638456cb5914610413578063877b9a671461041d5780638c6608b3146104775780638da5cb5b146104d15780639010d07c1461050557806391d148541461056757610158565b806336568abe1161011557806336568abe146103195780633f4ba83a1461036757806347bc7093146103715780635c975abb146103cb578063715018a6146103eb57806382aefa24146103f557610158565b806317e556141461015d5780631d6fb3df1461017b57806320694db0146101d5578063248a9ca31461022f57806324d7806c146102715780632f2ff15d146102cb575b600080fd5b610165610735565b6040518082815260200191505060405180910390f35b6101bd6004803603602081101561019157600080fd5b81019080803573ffffffffffffffffffffffffffffffffffffffff169060200190929190505050610759565b60405180821515815260200191505060405180910390f35b610217600480360360208110156101eb57600080fd5b81019080803573ffffffffffffffffffffffffffffffffffffffff169060200190929190505050610884565b60405180821515815260200191505060405180910390f35b61025b6004803603602081101561024557600080fd5b81019080803590602001909291905050506109b0565b6040518082815260200191505060405180910390f35b6102b36004803603602081101561028757600080fd5b81019080803573ffffffffffffffffffffffffffffffffffffffff1690602001909291905050506109d0565b60405180821515815260200191505060405180910390f35b610317600480360360408110156102e157600080fd5b8101908080359060200190929190803573ffffffffffffffffffffffffffffffffffffffff1690602001909291905050506109e6565b005b6103656004803603604081101561032f57600080fd5b8101908080359060200190929190803573ffffffffffffffffffffffffffffffffffffffff169060200190929190505050610a70565b005b61036f610b09565b005b6103b36004803603602081101561038757600080fd5b81019080803573ffffffffffffffffffffffffffffffffffffffff169060200190929190505050610b92565b60405180821515815260200191505060405180910390f35b6103d3610cbd565b60405180821515815260200191505060405180910390f35b6103f3610cd4565b005b6103fd610e5a565b6040518082815260200191505060405180910390f35b61041b610e7e565b005b61045f6004803603602081101561043357600080fd5b81019080803573ffffffffffffffffffffffffffffffffffffffff169060200190929190505050610f07565b60405180821515815260200191505060405180910390f35b6104b96004803603602081101561048d57600080fd5b81019080803573ffffffffffffffffffffffffffffffffffffffff169060200190929190505050610f3a565b60405180821515815260200191505060405180910390f35b6104d9611049565b604051808273ffffffffffffffffffffffffffffffffffffffff16815260200191505060405180910390f35b61053b6004803603604081101561051b57600080fd5b810190808035906020019092919080359060200190929190505050611072565b604051808273ffffffffffffffffffffffffffffffffffffffff16815260200191505060405180910390f35b6105b36004803603604081101561057d57600080fd5b8101908080359060200190929190803573ffffffffffffffffffffffffffffffffffffffff1690602001909291905050506110a4565b60405180821515815260200191505060405180910390f35b6105d36110d6565b6040518082815260200191505060405180910390f35b61062b600480360360208110156105ff57600080fd5b81019080803573ffffffffffffffffffffffffffffffffffffffff1690602001909291905050506110dd565b60405180821515815260200191505060405180910390f35b61066f6004803603602081101561065957600080fd5b8101908080359060200190929190505050611110565b6040518082815260200191505060405180910390f35b6106d16004803603604081101561069b57600080fd5b8101908080359060200190929190803573ffffffffffffffffffffffffffffffffffffffff169060200190929190505050611137565b005b6106db6111c1565b6040518082815260200191505060405180910390f35b6107336004803603602081101561070757600080fd5b81019080803573ffffffffffffffffffffffffffffffffffffffff1690602001909291905050506111e5565b005b7fba4a34719591b494dd7b56b69689f551c14401cdff7f863c87cd1a5ad166dd8181565b6000610764336109d0565b6107d6576040517f08c379a00000000000000000000000000000000000000000000000000000000081526004018080602001828103825260168152602001807f43616c6c6572206973206e6f7420616e2061646d696e0000000000000000000081525060200191505060405180910390fd5b6107df826110dd565b610851576040517f08c379a000000000000000000000000000000000000000000000000000000000815260040180806020018281038252601e8152602001807f4163636f756e74206973206e6f74206120706565722d7265766965776572000081525060200191505060405180910390fd5b61087b7fba4a34719591b494dd7b56b69689f551c14401cdff7f863c87cd1a5ad166dd8183611137565b60019050919050565b600061088f336109d0565b610901576040517f08c379a00000000000000000000000000000000000000000000000000000000081526004018080602001828103825260168152602001807f43616c6c6572206973206e6f7420616e2061646d696e0000000000000000000081525060200191505060405180910390fd5b61090a82610f07565b1561097d576040517f08c379a000000000000000000000000000000000000000000000000000000000815260040180806020018281038252601c8152602001807f4163636f756e7420697320616c726561647920616e206973737565720000000081525060200191505060405180910390fd5b6109a77f114e74f6ea3bd819998f78687bfcb11b140da08e9b7d222fa9c1f1ba1f2aa122836109e6565b60019050919050565b600060016000838152602001908152602001600020600201549050919050565b60006109df6000801b836110a4565b9050919050565b610a0d6001600084815260200190815260200160002060020154610a08611420565b6110a4565b610a62576040517f08c379a000000000000000000000000000000000000000000000000000000000815260040180806020018281038252602f8152602001806119f8602f913960400191505060405180910390fd5b610a6c8282611428565b5050565b610a78611420565b73ffffffffffffffffffffffffffffffffffffffff168173ffffffffffffffffffffffffffffffffffffffff1614610afb576040517f08c379a000000000000000000000000000000000000000000000000000000000815260040180806020018281038252602f815260200180611ad3602f913960400191505060405180910390fd5b610b0582826114bc565b5050565b610b337f65d7a28e3265b37a6474929f336521b332c1681b933f6cb9f3376673440d862a336110a4565b610b88576040517f08c379a000000000000000000000000000000000000000000000000000000000815260040180806020018281038252602c815260200180611a77602c913960400191505060405180910390fd5b610b90611550565b565b6000610b9d336109d0565b610c0f576040517f08c379a00000000000000000000000000000000000000000000000000000000081526004018080602001828103825260168152602001807f43616c6c6572206973206e6f7420616e2061646d696e0000000000000000000081525060200191505060405180910390fd5b610c1882610f07565b610c8a576040517f08c379a00000000000000000000000000000000000000000000000000000000081526004018080602001828103825260188152602001807f4163636f756e74206973206e6f7420616e20697373756572000000000000000081525060200191505060405180910390fd5b610cb47f114e74f6ea3bd819998f78687bfcb11b140da08e9b7d222fa9c1f1ba1f2aa12283611137565b60019050919050565b6000600260009054906101000a900460ff16905090565b610cdc611420565b73ffffffffffffffffffffffffffffffffffffffff1660008054906101000a900473ffffffffffffffffffffffffffffffffffffffff1673ffffffffffffffffffffffffffffffffffffffff1614610d9c576040517f08c379a00000000000000000000000000000000000000000000000000000000081526004018080602001828103825260208152602001807f4f776e61626c653a2063616c6c6572206973206e6f7420746865206f776e657281525060200191505060405180910390fd5b600073ffffffffffffffffffffffffffffffffffffffff1660008054906101000a900473ffffffffffffffffffffffffffffffffffffffff1673ffffffffffffffffffffffffffffffffffffffff167f8be0079c531659141344cd1fd0a4f28419497f9722a3daafe3b4186f6b6457e060405160405180910390a360008060006101000a81548173ffffffffffffffffffffffffffffffffffffffff021916908373ffffffffffffffffffffffffffffffffffffffff160217905550565b7f114e74f6ea3bd819998f78687bfcb11b140da08e9b7d222fa9c1f1ba1f2aa12281565b610ea87f65d7a28e3265b37a6474929f336521b332c1681b933f6cb9f3376673440d862a336110a4565b610efd576040517f08c379a000000000000000000000000000000000000000000000000000000000815260040180806020018281038252602a815260200180611a4d602a913960400191505060405180910390fd5b610f05611643565b565b6000610f337f114e74f6ea3bd819998f78687bfcb11b140da08e9b7d222fa9c1f1ba1f2aa122836110a4565b9050919050565b6000610f45336109d0565b610fb7576040517f08c379a00000000000000000000000000000000000000000000000000000000081526004018080602001828103825260168152602001807f43616c6c6572206973206e6f7420616e2061646d696e0000000000000000000081525060200191505060405180910390fd5b610fc0826110dd565b15611016576040517f08c379a0000000000000000000000000000000000000000000000000000000008152600401808060200182810382526022815260200180611b026022913960400191505060405180910390fd5b6110407fba4a34719591b494dd7b56b69689f551c14401cdff7f863c87cd1a5ad166dd81836109e6565b60019050919050565b60008060009054906101000a900473ffffffffffffffffffffffffffffffffffffffff16905090565b600061109c826001600086815260200190815260200160002060000161173790919063ffffffff16565b905092915050565b60006110ce826001600086815260200190815260200160002060000161175190919063ffffffff16565b905092915050565b6000801b81565b60006111097fba4a34719591b494dd7b56b69689f551c14401cdff7f863c87cd1a5ad166dd81836110a4565b9050919050565b600061113060016000848152602001908152602001600020600001611781565b9050919050565b61115e6001600084815260200190815260200160002060020154611159611420565b6110a4565b6111b3576040517f08c379a0000000000000000000000000000000000000000000000000000000008152600401808060200182810382526030815260200180611aa36030913960400191505060405180910390fd5b6111bd82826114bc565b5050565b7f65d7a28e3265b37a6474929f336521b332c1681b933f6cb9f3376673440d862a81565b6111ed611420565b73ffffffffffffffffffffffffffffffffffffffff1660008054906101000a900473ffffffffffffffffffffffffffffffffffffffff1673ffffffffffffffffffffffffffffffffffffffff16146112ad576040517f08c379a00000000000000000000000000000000000000000000000000000000081526004018080602001828103825260208152602001807f4f776e61626c653a2063616c6c6572206973206e6f7420746865206f776e657281525060200191505060405180910390fd5b600073ffffffffffffffffffffffffffffffffffffffff168173ffffffffffffffffffffffffffffffffffffffff161415611333576040517f08c379a0000000000000000000000000000000000000000000000000000000008152600401808060200182810382526026815260200180611a276026913960400191505060405180910390fd5b8073ffffffffffffffffffffffffffffffffffffffff1660008054906101000a900473ffffffffffffffffffffffffffffffffffffffff1673ffffffffffffffffffffffffffffffffffffffff167f8be0079c531659141344cd1fd0a4f28419497f9722a3daafe3b4186f6b6457e060405160405180910390a3806000806101000a81548173ffffffffffffffffffffffffffffffffffffffff021916908373ffffffffffffffffffffffffffffffffffffffff16021790555050565b6000611418836000018373ffffffffffffffffffffffffffffffffffffffff1660001b611796565b905092915050565b600033905090565b61145081600160008581526020019081526020016000206000016113f090919063ffffffff16565b156114b85761145d611420565b73ffffffffffffffffffffffffffffffffffffffff168173ffffffffffffffffffffffffffffffffffffffff16837f2f8788117e7eff1d82e926ec794901d17c78024a50270940304540a733656f0d60405160405180910390a45b5050565b6114e4816001600085815260200190815260200160002060000161180690919063ffffffff16565b1561154c576114f1611420565b73ffffffffffffffffffffffffffffffffffffffff168173ffffffffffffffffffffffffffffffffffffffff16837ff6391f5c32d9c69d2a47ea670b442974b53935d1edc7fd64eb21e047a839171b60405160405180910390a45b5050565b600260009054906101000a900460ff166115d2576040517f08c379a00000000000000000000000000000000000000000000000000000000081526004018080602001828103825260148152602001807f5061757361626c653a206e6f742070617573656400000000000000000000000081525060200191505060405180910390fd5b6000600260006101000a81548160ff0219169083151502179055507f5db9ee0a495bf2e6ff9c91a7834c1ba4fdd244a5e8aa4e537bd38aeae4b073aa611616611420565b604051808273ffffffffffffffffffffffffffffffffffffffff16815260200191505060405180910390a1565b600260009054906101000a900460ff16156116c6576040517f08c379a00000000000000000000000000000000000000000000000000000000081526004018080602001828103825260108152602001807f5061757361626c653a207061757365640000000000000000000000000000000081525060200191505060405180910390fd5b6001600260006101000a81548160ff0219169083151502179055507f62e78cea01bee320cd4e420270b5ea74000d11b0c9f74754ebdbfc544b05a25861170a611420565b604051808273ffffffffffffffffffffffffffffffffffffffff16815260200191505060405180910390a1565b60006117468360000183611836565b60001c905092915050565b6000611779836000018373ffffffffffffffffffffffffffffffffffffffff1660001b6118b9565b905092915050565b600061178f826000016118dc565b9050919050565b60006117a283836118b9565b6117fb578260000182908060018154018082558091505060019003906000526020600020016000909190919091505582600001805490508360010160008481526020019081526020016000208190555060019050611800565b600090505b92915050565b600061182e836000018373ffffffffffffffffffffffffffffffffffffffff1660001b6118ed565b905092915050565b600081836000018054905011611897576040517f08c379a00000000000000000000000000000000000000000000000000000000081526004018080602001828103825260228152602001806119d66022913960400191505060405180910390fd5b8260000182815481106118a657fe5b9060005260206000200154905092915050565b600080836001016000848152602001908152602001600020541415905092915050565b600081600001805490509050919050565b600080836001016000848152602001908152602001600020549050600081146119c9576000600182039050600060018660000180549050039050600086600001828154811061193857fe5b906000526020600020015490508087600001848154811061195557fe5b906000526020600020018190555060018301876001016000838152602001908152602001600020819055508660000180548061198d57fe5b600190038181906000526020600020016000905590558660010160008781526020019081526020016000206000905560019450505050506119cf565b60009150505b9291505056fe456e756d657261626c655365743a20696e646578206f7574206f6620626f756e6473416363657373436f6e74726f6c3a2073656e646572206d75737420626520616e2061646d696e20746f206772616e744f776e61626c653a206e6577206f776e657220697320746865207a65726f2061646472657373416e74735265766965773a206d75737420686176652070617573657220726f6c6520746f207061757365416e74735265766965773a206d75737420686176652070617573657220726f6c6520746f20756e7061757365416363657373436f6e74726f6c3a2073656e646572206d75737420626520616e2061646d696e20746f207265766f6b65416363657373436f6e74726f6c3a2063616e206f6e6c792072656e6f756e636520726f6c657320666f722073656c664163636f756e7420697320616c7265616479206120706565722d7265766965776572a26469706673582212200d1e38cd381a4ecae2c7c42236e2c6a24bcc448b20a3c84e6a60ac21fea3671564736f6c634300060c0033",
  "immutableReferences": {},
  "source": "/// SPDX-License-Identifier: GPL-3.0\npragma solidity 0.6.12;\n\n///@title Ants-Review\n///@author Nazzareno Massari @naszam\n///@notice AntsReviewRoles Access Management for Issuer and Peer-Reviewer\n///@dev All function calls are currently implemented without side effects through TDD approach\n///@dev OpenZeppelin library is used for secure contract development\n\nimport \"@openzeppelin/contracts/access/Ownable.sol\";\nimport \"@openzeppelin/contracts/access/AccessControl.sol\";\nimport \"@openzeppelin/contracts/utils/Pausable.sol\";\n\ncontract AntsReviewRoles is Ownable, AccessControl, Pausable {\n\n  /// @dev Roles\n  bytes32 public constant ISSUER_ROLE = keccak256(\"ISSUER_ROLE\");\n  bytes32 public constant PEER_REVIEWER_ROLE = keccak256(\"PEER_REVIEWER_ROLE\");\n  bytes32 public constant PAUSER_ROLE = keccak256(\"PAUSER_ROLE\");\n\n\n  constructor() public {\n          _setupRole(DEFAULT_ADMIN_ROLE, owner());\n          _setupRole(PAUSER_ROLE, owner());\n  }\n\n    /// @dev Modifiers\n    modifier onlyAdmin() {\n        require(isAdmin(msg.sender), \"Caller is not an admin\");\n        _;\n      }\n\n    modifier onlyIssuer() {\n        require(isIssuer(msg.sender), \"Caller is not an issuer\");\n        _;\n    }\n\n    modifier onlyPeerReviewer() {\n        require(isPeerReviewer(msg.sender), \"Caller is not a peer-reviewer\");\n        _;\n    }\n\n    /// @dev Functions\n\n    /// @notice Check if account is an Admin\n    /// @dev Used in onlyAdmin() modifier\n    /// @param account Address to check\n    /// @return True If the account is an Admin\n    function isAdmin(address account) public view returns (bool) {\n      return hasRole(DEFAULT_ADMIN_ROLE, account);\n    }\n\n    /// @notice Check if account is an Issuer\n    /// @dev Used in onlyIssuer() modifier\n    /// @param account Address to check\n    /// @return True If the account is an Issuer\n    function isIssuer(address account) public view returns (bool) {\n      return hasRole(ISSUER_ROLE, account);\n    }\n\n    /// @notice Check if account is a Peer-Reviewer\n    /// @dev Used in onlyPeerReviewer() modifier\n    /// @param account Address to check\n    /// @return True If the account is a Peer-Reviewer\n    function isPeerReviewer(address account) public view returns (bool) {\n      return hasRole(PEER_REVIEWER_ROLE, account);\n    }\n\n    /// @notice Add a new Issuer\n    /// @dev Access restricted only for Admins\n    /// @param account Address of the new Issuer\n    /// @return True if the account address is added as Issuer\n    function addIssuer(address account) external onlyAdmin returns (bool) {\n      require(!isIssuer(account), \"Account is already an issuer\");\n      grantRole(ISSUER_ROLE, account);\n      return true;\n    }\n\n    /// @notice Add a new Peer-Reviewer\n    /// @dev Access restricted only for Admins\n    /// @param account Address of the new Peer-Reviewer\n    /// @return True if the account address is added as Peer-Reviewer\n    function addPeerReviewer(address account) external onlyAdmin returns (bool) {\n      require(!isPeerReviewer(account), \"Account is already a peer-reviewer\");\n      grantRole(PEER_REVIEWER_ROLE, account);\n      return true;\n    }\n\n    /// @notice Remove an Issuer\n    /// @dev Access restricted only for Admins\n    /// @param account Address of the Issuer\n    /// @return True if the account address is removed as Issuer\n    function removeIssuer(address account) external onlyAdmin returns (bool) {\n      require(isIssuer(account), \"Account is not an issuer\");\n      revokeRole(ISSUER_ROLE, account);\n      return true;\n    }\n\n    /// @notice Remove a Peer-Reviewer\n    /// @dev Access restricted only for Admins\n    /// @param account Address of the Peer-Reviewer\n    /// @return True if the account address is removed as Peer-Reviewer\n    function removePeerReviewer(address account) external onlyAdmin returns (bool) {\n      require(isPeerReviewer(account), \"Account is not a peer-reviewer\");\n      revokeRole(PEER_REVIEWER_ROLE, account);\n      return true;\n    }\n\n    /// @notice Pause all the functions\n    /// @dev the caller must have the 'PAUSER_ROLE'\n    function pause() external {\n      require(hasRole(PAUSER_ROLE, msg.sender), \"AntsReview: must have pauser role to pause\");\n      _pause();\n    }\n\n    /// @notice Unpause all the functions\n    /// @dev the caller must have the 'PAUSER_ROLE'\n    function unpause() external {\n          require(hasRole(PAUSER_ROLE, msg.sender), \"AntsReview: must have pauser role to unpause\");\n          _unpause();\n    }\n}\n",
  "sourcePath": "/home/ants/ants-review/contracts/AntsReviewRoles.sol",
  "compiler": {
    "name": "solc",
    "version": "0.6.12+commit.27d51765.Emscripten.clang"
  },
  "schemaVersion": "3.2.0",
  "updatedAt": "2020-08-01T18:46:57.409Z",
  "devdoc": {
    "kind": "dev",
    "methods": {
      "addIssuer(address)": {
        "details": "Access restricted only for Admins",
        "params": {
          "account": "Address of the new Issuer"
        },
        "returns": {
          "_0": "True if the account address is added as Issuer"
        }
      },
      "addPeerReviewer(address)": {
        "details": "Access restricted only for Admins",
        "params": {
          "account": "Address of the new Peer-Reviewer"
        },
        "returns": {
          "_0": "True if the account address is added as Peer-Reviewer"
        }
      },
      "getRoleAdmin(bytes32)": {
        "details": "Returns the admin role that controls `role`. See {grantRole} and {revokeRole}. To change a role's admin, use {_setRoleAdmin}."
      },
      "getRoleMember(bytes32,uint256)": {
        "details": "Returns one of the accounts that have `role`. `index` must be a value between 0 and {getRoleMemberCount}, non-inclusive. Role bearers are not sorted in any particular way, and their ordering may change at any point. WARNING: When using {getRoleMember} and {getRoleMemberCount}, make sure you perform all queries on the same block. See the following https://forum.openzeppelin.com/t/iterating-over-elements-on-enumerableset-in-openzeppelin-contracts/2296[forum post] for more information."
      },
      "getRoleMemberCount(bytes32)": {
        "details": "Returns the number of accounts that have `role`. Can be used together with {getRoleMember} to enumerate all bearers of a role."
      },
      "grantRole(bytes32,address)": {
        "details": "Grants `role` to `account`. If `account` had not been already granted `role`, emits a {RoleGranted} event. Requirements: - the caller must have ``role``'s admin role."
      },
      "hasRole(bytes32,address)": {
        "details": "Returns `true` if `account` has been granted `role`."
      },
      "isAdmin(address)": {
        "details": "Used in onlyAdmin() modifier",
        "params": {
          "account": "Address to check"
        },
        "returns": {
          "_0": "True If the account is an Admin"
        }
      },
      "isIssuer(address)": {
        "details": "Used in onlyIssuer() modifier",
        "params": {
          "account": "Address to check"
        },
        "returns": {
          "_0": "True If the account is an Issuer"
        }
      },
      "isPeerReviewer(address)": {
        "details": "Used in onlyPeerReviewer() modifier",
        "params": {
          "account": "Address to check"
        },
        "returns": {
          "_0": "True If the account is a Peer-Reviewer"
        }
      },
      "owner()": {
        "details": "Returns the address of the current owner."
      },
      "pause()": {
        "details": "the caller must have the 'PAUSER_ROLE'"
      },
      "paused()": {
        "details": "Returns true if the contract is paused, and false otherwise."
      },
      "removeIssuer(address)": {
        "details": "Access restricted only for Admins",
        "params": {
          "account": "Address of the Issuer"
        },
        "returns": {
          "_0": "True if the account address is removed as Issuer"
        }
      },
      "removePeerReviewer(address)": {
        "details": "Access restricted only for Admins",
        "params": {
          "account": "Address of the Peer-Reviewer"
        },
        "returns": {
          "_0": "True if the account address is removed as Peer-Reviewer"
        }
      },
      "renounceOwnership()": {
        "details": "Leaves the contract without owner. It will not be possible to call `onlyOwner` functions anymore. Can only be called by the current owner. NOTE: Renouncing ownership will leave the contract without an owner, thereby removing any functionality that is only available to the owner."
      },
      "renounceRole(bytes32,address)": {
        "details": "Revokes `role` from the calling account. Roles are often managed via {grantRole} and {revokeRole}: this function's purpose is to provide a mechanism for accounts to lose their privileges if they are compromised (such as when a trusted device is misplaced). If the calling account had been granted `role`, emits a {RoleRevoked} event. Requirements: - the caller must be `account`."
      },
      "revokeRole(bytes32,address)": {
        "details": "Revokes `role` from `account`. If `account` had been granted `role`, emits a {RoleRevoked} event. Requirements: - the caller must have ``role``'s admin role."
      },
      "transferOwnership(address)": {
        "details": "Transfers ownership of the contract to a new account (`newOwner`). Can only be called by the current owner."
      },
      "unpause()": {
        "details": "the caller must have the 'PAUSER_ROLE'"
      }
    },
    "stateVariables": {
      "ISSUER_ROLE": {
        "details": "Roles"
      }
    },
    "version": 1
  },
  "userdoc": {
    "kind": "user",
    "methods": {
      "addIssuer(address)": {
        "notice": "Add a new Issuer"
      },
      "addPeerReviewer(address)": {
        "notice": "Add a new Peer-Reviewer"
      },
      "isAdmin(address)": {
        "notice": "Check if account is an Admin"
      },
      "isIssuer(address)": {
        "notice": "Check if account is an Issuer"
      },
      "isPeerReviewer(address)": {
        "notice": "Check if account is a Peer-Reviewer"
      },
      "pause()": {
        "notice": "Pause all the functions"
      },
      "removeIssuer(address)": {
        "notice": "Remove an Issuer"
      },
      "removePeerReviewer(address)": {
        "notice": "Remove a Peer-Reviewer"
      },
      "unpause()": {
        "notice": "Unpause all the functions"
      }
    },
    "version": 1
  }
}