{
  "contractName": "AntReview",
  "abi": [
    {
      "inputs": [],
      "stateMutability": "nonpayable",
      "type": "constructor"
    },
    {
      "anonymous": false,
      "inputs": [
        {
          "indexed": true,
          "internalType": "uint256",
          "name": "antReview_id",
          "type": "uint256"
        },
        {
          "indexed": true,
          "internalType": "address",
          "name": "issuer",
          "type": "address"
        },
        {
          "indexed": false,
          "internalType": "uint256",
          "name": "amount",
          "type": "uint256"
        }
      ],
      "name": "AntReviewCancelled",
      "type": "event"
    },
    {
      "anonymous": false,
      "inputs": [
        {
          "indexed": false,
          "internalType": "uint256",
          "name": "antReview_id",
          "type": "uint256"
        },
        {
          "indexed": false,
          "internalType": "address",
          "name": "fulfiller",
          "type": "address"
        },
        {
          "indexed": false,
          "internalType": "uint256",
          "name": "fulfillment_id",
          "type": "uint256"
        },
        {
          "indexed": false,
          "internalType": "string",
          "name": "data",
          "type": "string"
        }
      ],
      "name": "AntReviewFulfilled",
      "type": "event"
    },
    {
      "anonymous": false,
      "inputs": [
        {
          "indexed": false,
          "internalType": "uint256",
          "name": "antReview_id",
          "type": "uint256"
        },
        {
          "indexed": false,
          "internalType": "address",
          "name": "issuer",
          "type": "address"
        },
        {
          "indexed": false,
          "internalType": "uint256",
          "name": "amount",
          "type": "uint256"
        },
        {
          "indexed": false,
          "internalType": "string",
          "name": "data",
          "type": "string"
        }
      ],
      "name": "AntReviewIssued",
      "type": "event"
    },
    {
      "anonymous": false,
      "inputs": [
        {
          "indexed": false,
          "internalType": "uint256",
          "name": "antReview_id",
          "type": "uint256"
        },
        {
          "indexed": false,
          "internalType": "address",
          "name": "issuer",
          "type": "address"
        },
        {
          "indexed": false,
          "internalType": "address",
          "name": "fulfiller",
          "type": "address"
        },
        {
          "indexed": true,
          "internalType": "uint256",
          "name": "fulfillment_id",
          "type": "uint256"
        },
        {
          "indexed": false,
          "internalType": "uint256",
          "name": "amount",
          "type": "uint256"
        }
      ],
      "name": "FulfillmentAccepted",
      "type": "event"
    },
    {
      "inputs": [
        {
          "internalType": "uint256",
          "name": "",
          "type": "uint256"
        }
      ],
      "name": "antreviews",
      "outputs": [
        {
          "internalType": "address payable",
          "name": "issuer",
          "type": "address"
        },
        {
          "internalType": "uint256",
          "name": "deadline",
          "type": "uint256"
        },
        {
          "internalType": "string",
          "name": "data",
          "type": "string"
        },
        {
          "internalType": "enum AntReview.AntReviewStatus",
          "name": "status",
          "type": "uint8"
        },
        {
          "internalType": "uint256",
          "name": "amount",
          "type": "uint256"
        }
      ],
      "stateMutability": "view",
      "type": "function"
    },
    {
      "inputs": [
        {
          "internalType": "string",
          "name": "_data",
          "type": "string"
        },
        {
          "internalType": "uint64",
          "name": "_deadline",
          "type": "uint64"
        }
      ],
      "name": "issueAntReview",
      "outputs": [
        {
          "internalType": "uint256",
          "name": "",
          "type": "uint256"
        }
      ],
      "stateMutability": "payable",
      "type": "function"
    },
    {
      "inputs": [
        {
          "internalType": "uint256",
          "name": "_antReviewId",
          "type": "uint256"
        },
        {
          "internalType": "string",
          "name": "_data",
          "type": "string"
        }
      ],
      "name": "fulfillAntReview",
      "outputs": [],
      "stateMutability": "nonpayable",
      "type": "function"
    },
    {
      "inputs": [
        {
          "internalType": "uint256",
          "name": "_antReviewId",
          "type": "uint256"
        },
        {
          "internalType": "uint256",
          "name": "_fulfillmentId",
          "type": "uint256"
        }
      ],
      "name": "acceptFulfillment",
      "outputs": [],
      "stateMutability": "nonpayable",
      "type": "function"
    },
    {
      "inputs": [
        {
          "internalType": "uint256",
          "name": "_antReviewId",
          "type": "uint256"
        }
      ],
      "name": "cancelAntReview",
      "outputs": [],
      "stateMutability": "nonpayable",
      "type": "function"
    }
  ],
  "bytecode": "0x608060405234801561001057600080fd5b5061108d806100206000396000f3fe60806040526004361061004a5760003560e01c80638821e9111461004f5780639f86bab714610121578063b06f7ea61461022b578063d958349714610266578063fe4f889c146102ab575b600080fd5b34801561005b57600080fd5b5061011f6004803603604081101561007257600080fd5b81019080803590602001909291908035906020019064010000000081111561009957600080fd5b8201836020820111156100ab57600080fd5b803590602001918460018302840111640100000000831117156100cd57600080fd5b91908080601f016020809104026020016040519081016040528093929190818152602001838380828437600081840152601f19601f82011690508083019250505050505050919291929050505061034c565b005b34801561012d57600080fd5b5061015a6004803603602081101561014457600080fd5b8101908080359060200190929190505050610648565b604051808673ffffffffffffffffffffffffffffffffffffffff1673ffffffffffffffffffffffffffffffffffffffff168152602001858152602001806020018460028111156101a657fe5b60ff168152602001838152602001828103825285818151815260200191508051906020019080838360005b838110156101ec5780820151818401526020810190506101d1565b50505050905090810190601f1680156102195780820380516001836020036101000a031916815260200191505b50965050505050505060405180910390f35b34801561023757600080fd5b506102646004803603602081101561024e57600080fd5b8101908080359060200190929190505050610750565b005b34801561027257600080fd5b506102a96004803603604081101561028957600080fd5b810190808035906020019092919080359060200190929190505050610980565b005b610336600480360360408110156102c157600080fd5b81019080803590602001906401000000008111156102de57600080fd5b8201836020820111156102f057600080fd5b8035906020019184600183028401116401000000008311171561031257600080fd5b9091929391929390803567ffffffffffffffff169060200190929190505050610d66565b6040518082815260200191505060405180910390f35b81600080549050811061035e57600080fd5b826000818154811061036c57fe5b906000526020600020906005020160000160009054906101000a900473ffffffffffffffffffffffffffffffffffffffff1673ffffffffffffffffffffffffffffffffffffffff163373ffffffffffffffffffffffffffffffffffffffff1614156103d657600080fd5b8360008060028111156103e557fe5b600083815481106103f257fe5b906000526020600020906005020160030160009054906101000a900460ff16600281111561041c57fe5b1461042657600080fd5b856000818154811061043457fe5b906000526020600020906005020160010154421061045157600080fd5b6001600088815260200190815260200160002060405180606001604052806000151581526020013373ffffffffffffffffffffffffffffffffffffffff16815260200188815250908060018154018082558091505060019003906000526020600020906002020160009091909190915060008201518160000160006101000a81548160ff02191690831515021790555060208201518160000160016101000a81548173ffffffffffffffffffffffffffffffffffffffff021916908373ffffffffffffffffffffffffffffffffffffffff1602179055506040820151816001019080519060200190610544929190610fb2565b5050507f20a3bc21b79d228e6ad05267f9568afd741e20d8c024d6d57437379c2548e830873360018060008c8152602001908152602001600020805490500389604051808581526020018473ffffffffffffffffffffffffffffffffffffffff1673ffffffffffffffffffffffffffffffffffffffff16815260200183815260200180602001828103825283818151815260200191508051906020019080838360005b838110156106025780820151818401526020810190506105e7565b50505050905090810190601f16801561062f5780820380516001836020036101000a031916815260200191505b509550505050505060405180910390a150505050505050565b6000818154811061065557fe5b90600052602060002090600502016000915090508060000160009054906101000a900473ffffffffffffffffffffffffffffffffffffffff1690806001015490806002018054600181600116156101000203166002900480601f01602080910402602001604051908101604052809291908181526020018280546001816001161561010002031660029004801561072d5780601f106107025761010080835404028352916020019161072d565b820191906000526020600020905b81548152906001019060200180831161071057829003601f168201915b5050505050908060030160009054906101000a900460ff16908060040154905085565b80600080549050811061076257600080fd5b816000818154811061077057fe5b906000526020600020906005020160000160009054906101000a900473ffffffffffffffffffffffffffffffffffffffff1673ffffffffffffffffffffffffffffffffffffffff163373ffffffffffffffffffffffffffffffffffffffff16146107d957600080fd5b8260008060028111156107e857fe5b600083815481106107f557fe5b906000526020600020906005020160030160009054906101000a900460ff16600281111561081f57fe5b1461082957600080fd5b60026000868154811061083857fe5b906000526020600020906005020160030160006101000a81548160ff0219169083600281111561086457fe5b02179055506000858154811061087657fe5b906000526020600020906005020160000160009054906101000a900473ffffffffffffffffffffffffffffffffffffffff1673ffffffffffffffffffffffffffffffffffffffff166108fc600087815481106108ce57fe5b9060005260206000209060050201600401549081150290604051600060405180830381858888f1935050505015801561090b573d6000803e3d6000fd5b503373ffffffffffffffffffffffffffffffffffffffff16857fa338b680434d2e0f0c5be586cf3e105ff3ec5e5264eac666fe0847d7a1fce5e66000888154811061095257fe5b9060005260206000209060050201600401546040518082815260200191505060405180910390a35050505050565b81600080549050811061099257600080fd5b8282600160008381526020019081526020016000208054905081106109b657600080fd5b84600081815481106109c457fe5b906000526020600020906005020160000160009054906101000a900473ffffffffffffffffffffffffffffffffffffffff1673ffffffffffffffffffffffffffffffffffffffff163373ffffffffffffffffffffffffffffffffffffffff1614610a2d57600080fd5b856000806002811115610a3c57fe5b60008381548110610a4957fe5b906000526020600020906005020160030160009054906101000a900460ff166002811115610a7357fe5b14610a7d57600080fd5b878760001515600160008481526020019081526020016000208281548110610aa157fe5b906000526020600020906002020160000160009054906101000a900460ff16151514610acc57600080fd5b60018060008c81526020019081526020016000208a81548110610aeb57fe5b906000526020600020906002020160000160006101000a81548160ff021916908315150217905550600160008b81548110610b2257fe5b906000526020600020906005020160030160006101000a81548160ff02191690836002811115610b4e57fe5b0217905550600160008b81526020019081526020016000208981548110610b7157fe5b906000526020600020906002020160000160019054906101000a900473ffffffffffffffffffffffffffffffffffffffff1673ffffffffffffffffffffffffffffffffffffffff166108fc60008c81548110610bc957fe5b9060005260206000209060050201600401549081150290604051600060405180830381858888f19350505050158015610c06573d6000803e3d6000fd5b50887f85d45a4e923ea9b336558bcd434d3f474644affd5df115bba14b63e75425bde48b60008d81548110610c3757fe5b906000526020600020906005020160000160009054906101000a900473ffffffffffffffffffffffffffffffffffffffff16600160008f81526020019081526020016000208d81548110610c8757fe5b906000526020600020906002020160000160019054906101000a900473ffffffffffffffffffffffffffffffffffffffff1660008f81548110610cc657fe5b906000526020600020906005020160040154604051808581526020018473ffffffffffffffffffffffffffffffffffffffff1673ffffffffffffffffffffffffffffffffffffffff1681526020018373ffffffffffffffffffffffffffffffffffffffff1673ffffffffffffffffffffffffffffffffffffffff16815260200182815260200194505050505060405180910390a250505050505050505050565b6000803411610d7457600080fd5b8167ffffffffffffffff16428111610d8b57600080fd5b60006040518060a001604052803373ffffffffffffffffffffffffffffffffffffffff1681526020018567ffffffffffffffff16815260200187878080601f016020809104026020016040519081016040528093929190818152602001838380828437600081840152601f19601f82011690508083019250505050505050815260200160006002811115610e1b57fe5b815260200134815250908060018154018082558091505060019003906000526020600020906005020160009091909190915060008201518160000160006101000a81548173ffffffffffffffffffffffffffffffffffffffff021916908373ffffffffffffffffffffffffffffffffffffffff160217905550602082015181600101556040820151816002019080519060200190610eba929190610fb2565b5060608201518160030160006101000a81548160ff02191690836002811115610edf57fe5b02179055506080820151816004015550507f0584e58d5bd902991a053e3c29de8b8ae591552c2d8da2d9734b194046385e1a60016000805490500333348888604051808681526020018573ffffffffffffffffffffffffffffffffffffffff1673ffffffffffffffffffffffffffffffffffffffff168152602001848152602001806020018281038252848482818152602001925080828437600081840152601f19601f820116905080830192505050965050505050505060405180910390a16001600080549050039150509392505050565b828054600181600116156101000203166002900490600052602060002090601f016020900481019282601f10610ff357805160ff1916838001178555611021565b82800160010185558215611021579182015b82811115611020578251825591602001919060010190611005565b5b50905061102e9190611032565b5090565b61105491905b80821115611050576000816000905550600101611038565b5090565b9056fea26469706673582212205f9d6d91f9417c904ec5870c3463f1315be17e78b3e6f8cfbe304a56bcaddbf664736f6c63430006060033",
  "immutableReferences": {},
  "source": "pragma solidity ^0.6.0;\n\n/**\n * @title AntsReview\n * @author Nazzareno Massari, Bianca Trovò\n * @dev Simple smart contract which allows any user to issue a bounty in ETH linked to requirements stored in ipfs\n * which anyone can fufill by submitting the ipfs hash which contains evidence of their fufillment\n */\ncontract AntReview {\n\n\n  // Enums\n\n\n  enum AntReviewStatus { CREATED, ACCEPTED, CANCELLED }\n\n\n  // Storage\n\n\n  AntReview[] public antreviews ;\n\n  mapping(uint=>Fulfillment[]) fulfillments;\n\n\n  // Structs\n\n\n  struct AntReview {\n      address payable issuer;\n      uint deadline;\n      string data;\n      AntReviewStatus status;\n      uint amount; //in wei\n  }\n\n  struct Fulfillment {\n      bool accepted;\n      address payable fulfiller;\n      string data;\n  }\n\n\n  // Events\n\n  event AntReviewIssued(uint antReview_id, address issuer, uint amount, string data);\n  event AntReviewFulfilled(uint antReview_id, address fulfiller, uint fulfillment_id, string data);\n  event FulfillmentAccepted(uint antReview_id, address issuer, address fulfiller, uint indexed fulfillment_id, uint amount);\n  event AntReviewCancelled(uint indexed antReview_id, address indexed issuer, uint amount);\n\n  constructor() public {}\n\n\n  // Modifiers\n\n  modifier hasValue() {\n      require(msg.value > 0);\n      _;\n  }\n\n  modifier antReviewExists(uint _antReviewId){\n    require(_antReviewId < antreviews.length);\n    _;\n  }\n\n  modifier fulfillmentExists(uint _antReviewId, uint _fulfillmentId){\n    require(_fulfillmentId < fulfillments[_antReviewId].length);\n    _;\n  }\n\n  modifier hasStatus(uint _antReviewId, AntReviewStatus _desiredStatus) {\n    require(antreviews[_antReviewId].status == _desiredStatus);\n    _;\n  }\n\n  modifier onlyIssuer(uint _antReviewId) {\n      require(msg.sender == antreviews[_antReviewId].issuer);\n      _;\n  }\n\n  modifier notIssuer(uint _antReviewId) {\n      require(msg.sender != antreviews[_antReviewId].issuer);\n      _;\n  }\n\n  modifier fulfillmentNotYetAccepted(uint _antReviewId, uint _fulfillmentId) {\n    require(fulfillments[_antReviewId][_fulfillmentId].accepted == false);\n    _;\n  }\n\n  modifier validateDeadline(uint _newDeadline) {\n      require(_newDeadline > now);\n      _;\n  }\n\n  modifier isBeforeDeadline(uint _antReviewId) {\n    require(now < antreviews[_antReviewId].deadline);\n    _;\n  }\n\n  /**\n  * @dev issueAntReview(): instantiates a new bounty\n  * @param _deadline the unix timestamp after which fulfillments will no longer be accepted\n  * @param _data the requirements of the bounty\n  */\n  function issueAntReview(\n      string calldata _data,\n      uint64 _deadline\n  )\n      external\n      payable\n      hasValue()\n      validateDeadline(_deadline)\n      returns (uint)\n  {\n      antreviews.push(AntReview(msg.sender, _deadline, _data, AntReviewStatus.CREATED, msg.value));\n      emit AntReviewIssued(antreviews.length - 1,msg.sender, msg.value, _data);\n      return (antreviews.length - 1);\n  }\n\n  /**\n  * @dev fulfillAntReview(): submit a fulfillment for the given antReview\n  * @param _antReviewId the index of the antReview to be fufilled\n  * @param _data the ipfs hash which contains evidence of the fufillment\n  */\n  function fulfillAntReview(uint _antReviewId, string memory _data)\n    public\n    antReviewExists(_antReviewId)\n    notIssuer(_antReviewId)\n    hasStatus(_antReviewId, AntReviewStatus.CREATED)\n    isBeforeDeadline(_antReviewId)\n  {\n    fulfillments[_antReviewId].push(Fulfillment(false, msg.sender, _data));\n    emit AntReviewFulfilled(_antReviewId, msg.sender, (fulfillments[_antReviewId].length - 1),_data);\n  }\n\n  /**\n  * @dev acceptFulfillment(): accept a given fulfillment\n  * @param _antReviewId the index of the antReview\n  * @param _fulfillmentId the index of the fulfillment being accepted\n  */\n  function acceptFulfillment(uint _antReviewId, uint _fulfillmentId)\n      public\n      antReviewExists(_antReviewId)\n      fulfillmentExists(_antReviewId,_fulfillmentId)\n      onlyIssuer(_antReviewId)\n      hasStatus(_antReviewId, AntReviewStatus.CREATED)\n      fulfillmentNotYetAccepted(_antReviewId, _fulfillmentId)\n  {\n      fulfillments[_antReviewId][_fulfillmentId].accepted = true;\n      antreviews[_antReviewId].status = AntReviewStatus.ACCEPTED;\n      fulfillments[_antReviewId][_fulfillmentId].fulfiller.transfer(antreviews[_antReviewId].amount);\n      emit FulfillmentAccepted(_antReviewId, antreviews[_antReviewId].issuer, fulfillments[_antReviewId][_fulfillmentId].fulfiller, _fulfillmentId, antreviews[_antReviewId].amount);\n  }\n\n  /** @dev cancelAntReview(): cancels the antReview and send the funds back to the issuer\n  * @param _antReviewId the index of the antReview\n  */\n  function cancelAntReview(uint _antReviewId)\n      public\n      antReviewExists(_antReviewId)\n      onlyIssuer(_antReviewId)\n      hasStatus(_antReviewId, AntReviewStatus.CREATED)\n  {\n      antreviews[_antReviewId].status = AntReviewStatus.CANCELLED;\n      antreviews[_antReviewId].issuer.transfer(antreviews[_antReviewId].amount);\n      emit AntReviewCancelled(_antReviewId, msg.sender, antreviews[_antReviewId].amount);\n  }\n\n}\n",
  "sourcePath": "/home/ants/ants-review/contracts/AntReview.sol",
  "compiler": {
    "name": "solc",
    "version": "0.6.6+commit.6c089d02.Emscripten.clang"
  },
  "schemaVersion": "3.1.0",
  "updatedAt": "2020-04-24T17:57:20.516Z",
  "devdoc": {
    "author": "Nazzareno Massari, Bianca Trovò",
    "details": "Simple smart contract which allows any user to issue a bounty in ETH linked to requirements stored in ipfs which anyone can fufill by submitting the ipfs hash which contains evidence of their fufillment",
    "methods": {
      "acceptFulfillment(uint256,uint256)": {
        "details": "acceptFulfillment(): accept a given fulfillment",
        "params": {
          "_antReviewId": "the index of the antReview",
          "_fulfillmentId": "the index of the fulfillment being accepted"
        }
      },
      "cancelAntReview(uint256)": {
        "details": "cancelAntReview(): cancels the antReview and send the funds back to the issuer",
        "params": {
          "_antReviewId": "the index of the antReview"
        }
      },
      "fulfillAntReview(uint256,string)": {
        "details": "fulfillAntReview(): submit a fulfillment for the given antReview",
        "params": {
          "_antReviewId": "the index of the antReview to be fufilled",
          "_data": "the ipfs hash which contains evidence of the fufillment"
        }
      },
      "issueAntReview(string,uint64)": {
        "details": "issueAntReview(): instantiates a new bounty",
        "params": {
          "_data": "the requirements of the bounty",
          "_deadline": "the unix timestamp after which fulfillments will no longer be accepted"
        }
      }
    },
    "title": "AntsReview"
  },
  "userdoc": {
    "methods": {}
  }
}