{
  "contractName": "AntsReview",
  "abi": [
    {
      "inputs": [],
      "stateMutability": "nonpayable",
      "type": "constructor"
    },
    {
      "anonymous": false,
      "inputs": [
        {
          "indexed": true,
          "internalType": "uint256",
          "name": "antReview_id",
          "type": "uint256"
        },
        {
          "indexed": true,
          "internalType": "address",
          "name": "issuer",
          "type": "address"
        },
        {
          "indexed": false,
          "internalType": "uint256",
          "name": "amount",
          "type": "uint256"
        }
      ],
      "name": "AntReviewCancelled",
      "type": "event"
    },
    {
      "anonymous": false,
      "inputs": [
        {
          "indexed": false,
          "internalType": "uint256",
          "name": "antReview_id",
          "type": "uint256"
        },
        {
          "indexed": false,
          "internalType": "address",
          "name": "fulfiller",
          "type": "address"
        },
        {
          "indexed": false,
          "internalType": "uint256",
          "name": "fulfillment_id",
          "type": "uint256"
        },
        {
          "indexed": false,
          "internalType": "string",
          "name": "data",
          "type": "string"
        }
      ],
      "name": "AntReviewFulfilled",
      "type": "event"
    },
    {
      "anonymous": false,
      "inputs": [
        {
          "indexed": false,
          "internalType": "uint256",
          "name": "antReview_id",
          "type": "uint256"
        },
        {
          "indexed": false,
          "internalType": "address",
          "name": "issuer",
          "type": "address"
        },
        {
          "indexed": false,
          "internalType": "uint256",
          "name": "amount",
          "type": "uint256"
        },
        {
          "indexed": false,
          "internalType": "string",
          "name": "data",
          "type": "string"
        }
      ],
      "name": "AntReviewIssued",
      "type": "event"
    },
    {
      "anonymous": false,
      "inputs": [
        {
          "indexed": false,
          "internalType": "uint256",
          "name": "_antReviewId",
          "type": "uint256"
        },
        {
          "indexed": false,
          "internalType": "address",
          "name": "issuer",
          "type": "address"
        },
        {
          "indexed": false,
          "internalType": "address",
          "name": "fulfiller",
          "type": "address"
        },
        {
          "indexed": true,
          "internalType": "uint256",
          "name": "fulfillment_id",
          "type": "uint256"
        },
        {
          "indexed": false,
          "internalType": "uint256",
          "name": "amount",
          "type": "uint256"
        }
      ],
      "name": "FulfillmentAccepted",
      "type": "event"
    },
    {
      "anonymous": false,
      "inputs": [
        {
          "indexed": true,
          "internalType": "address",
          "name": "previousOwner",
          "type": "address"
        },
        {
          "indexed": true,
          "internalType": "address",
          "name": "newOwner",
          "type": "address"
        }
      ],
      "name": "OwnershipTransferred",
      "type": "event"
    },
    {
      "anonymous": false,
      "inputs": [
        {
          "indexed": false,
          "internalType": "address",
          "name": "account",
          "type": "address"
        }
      ],
      "name": "Paused",
      "type": "event"
    },
    {
      "anonymous": false,
      "inputs": [
        {
          "indexed": true,
          "internalType": "bytes32",
          "name": "role",
          "type": "bytes32"
        },
        {
          "indexed": true,
          "internalType": "address",
          "name": "account",
          "type": "address"
        },
        {
          "indexed": true,
          "internalType": "address",
          "name": "sender",
          "type": "address"
        }
      ],
      "name": "RoleGranted",
      "type": "event"
    },
    {
      "anonymous": false,
      "inputs": [
        {
          "indexed": true,
          "internalType": "bytes32",
          "name": "role",
          "type": "bytes32"
        },
        {
          "indexed": true,
          "internalType": "address",
          "name": "account",
          "type": "address"
        },
        {
          "indexed": true,
          "internalType": "address",
          "name": "sender",
          "type": "address"
        }
      ],
      "name": "RoleRevoked",
      "type": "event"
    },
    {
      "anonymous": false,
      "inputs": [
        {
          "indexed": false,
          "internalType": "address",
          "name": "account",
          "type": "address"
        }
      ],
      "name": "Unpaused",
      "type": "event"
    },
    {
      "stateMutability": "payable",
      "type": "fallback",
      "payable": true
    },
    {
      "inputs": [],
      "name": "DEFAULT_ADMIN_ROLE",
      "outputs": [
        {
          "internalType": "bytes32",
          "name": "",
          "type": "bytes32"
        }
      ],
      "stateMutability": "view",
      "type": "function",
      "constant": true
    },
    {
      "inputs": [],
      "name": "ISSUER_ROLE",
      "outputs": [
        {
          "internalType": "bytes32",
          "name": "",
          "type": "bytes32"
        }
      ],
      "stateMutability": "view",
      "type": "function",
      "constant": true
    },
    {
      "inputs": [
        {
          "internalType": "uint256",
          "name": "",
          "type": "uint256"
        }
      ],
      "name": "antreviews",
      "outputs": [
        {
          "internalType": "address payable",
          "name": "issuer",
          "type": "address"
        },
        {
          "internalType": "uint256",
          "name": "deadline",
          "type": "uint256"
        },
        {
          "internalType": "string",
          "name": "data",
          "type": "string"
        },
        {
          "internalType": "enum AntsReview.AntReviewStatus",
          "name": "status",
          "type": "uint8"
        },
        {
          "internalType": "uint256",
          "name": "amount",
          "type": "uint256"
        }
      ],
      "stateMutability": "view",
      "type": "function",
      "constant": true
    },
    {
      "inputs": [
        {
          "internalType": "bytes32",
          "name": "role",
          "type": "bytes32"
        }
      ],
      "name": "getRoleAdmin",
      "outputs": [
        {
          "internalType": "bytes32",
          "name": "",
          "type": "bytes32"
        }
      ],
      "stateMutability": "view",
      "type": "function",
      "constant": true
    },
    {
      "inputs": [
        {
          "internalType": "bytes32",
          "name": "role",
          "type": "bytes32"
        },
        {
          "internalType": "uint256",
          "name": "index",
          "type": "uint256"
        }
      ],
      "name": "getRoleMember",
      "outputs": [
        {
          "internalType": "address",
          "name": "",
          "type": "address"
        }
      ],
      "stateMutability": "view",
      "type": "function",
      "constant": true
    },
    {
      "inputs": [
        {
          "internalType": "bytes32",
          "name": "role",
          "type": "bytes32"
        }
      ],
      "name": "getRoleMemberCount",
      "outputs": [
        {
          "internalType": "uint256",
          "name": "",
          "type": "uint256"
        }
      ],
      "stateMutability": "view",
      "type": "function",
      "constant": true
    },
    {
      "inputs": [
        {
          "internalType": "bytes32",
          "name": "role",
          "type": "bytes32"
        },
        {
          "internalType": "address",
          "name": "account",
          "type": "address"
        }
      ],
      "name": "grantRole",
      "outputs": [],
      "stateMutability": "nonpayable",
      "type": "function"
    },
    {
      "inputs": [
        {
          "internalType": "bytes32",
          "name": "role",
          "type": "bytes32"
        },
        {
          "internalType": "address",
          "name": "account",
          "type": "address"
        }
      ],
      "name": "hasRole",
      "outputs": [
        {
          "internalType": "bool",
          "name": "",
          "type": "bool"
        }
      ],
      "stateMutability": "view",
      "type": "function",
      "constant": true
    },
    {
      "inputs": [],
      "name": "owner",
      "outputs": [
        {
          "internalType": "address",
          "name": "",
          "type": "address"
        }
      ],
      "stateMutability": "view",
      "type": "function",
      "constant": true
    },
    {
      "inputs": [],
      "name": "paused",
      "outputs": [
        {
          "internalType": "bool",
          "name": "",
          "type": "bool"
        }
      ],
      "stateMutability": "view",
      "type": "function",
      "constant": true
    },
    {
      "inputs": [],
      "name": "renounceOwnership",
      "outputs": [],
      "stateMutability": "nonpayable",
      "type": "function"
    },
    {
      "inputs": [
        {
          "internalType": "bytes32",
          "name": "role",
          "type": "bytes32"
        },
        {
          "internalType": "address",
          "name": "account",
          "type": "address"
        }
      ],
      "name": "renounceRole",
      "outputs": [],
      "stateMutability": "nonpayable",
      "type": "function"
    },
    {
      "inputs": [
        {
          "internalType": "bytes32",
          "name": "role",
          "type": "bytes32"
        },
        {
          "internalType": "address",
          "name": "account",
          "type": "address"
        }
      ],
      "name": "revokeRole",
      "outputs": [],
      "stateMutability": "nonpayable",
      "type": "function"
    },
    {
      "inputs": [
        {
          "internalType": "address",
          "name": "newOwner",
          "type": "address"
        }
      ],
      "name": "transferOwnership",
      "outputs": [],
      "stateMutability": "nonpayable",
      "type": "function"
    },
    {
      "stateMutability": "payable",
      "type": "receive",
      "payable": true
    },
    {
      "inputs": [
        {
          "internalType": "string",
          "name": "_data",
          "type": "string"
        },
        {
          "internalType": "uint64",
          "name": "_deadline",
          "type": "uint64"
        }
      ],
      "name": "issueAntReview",
      "outputs": [
        {
          "internalType": "uint256",
          "name": "",
          "type": "uint256"
        }
      ],
      "stateMutability": "payable",
      "type": "function",
      "payable": true
    },
    {
      "inputs": [
        {
          "internalType": "uint256",
          "name": "_antReviewId",
          "type": "uint256"
        },
        {
          "internalType": "string",
          "name": "_data",
          "type": "string"
        }
      ],
      "name": "fulfillAntReview",
      "outputs": [],
      "stateMutability": "nonpayable",
      "type": "function"
    },
    {
      "inputs": [
        {
          "internalType": "uint256",
          "name": "_antReviewId",
          "type": "uint256"
        },
        {
          "internalType": "uint256",
          "name": "_fulfillmentId",
          "type": "uint256"
        }
      ],
      "name": "acceptFulfillment",
      "outputs": [],
      "stateMutability": "nonpayable",
      "type": "function"
    },
    {
      "inputs": [
        {
          "internalType": "uint256",
          "name": "_antReviewId",
          "type": "uint256"
        }
      ],
      "name": "cancelAntReview",
      "outputs": [],
      "stateMutability": "nonpayable",
      "type": "function"
    }
  ],
  "bytecode": "0x608060405234801561001057600080fd5b5060006100216100df60201b60201c565b9050806000806101000a81548173ffffffffffffffffffffffffffffffffffffffff021916908373ffffffffffffffffffffffffffffffffffffffff1602179055508073ffffffffffffffffffffffffffffffffffffffff16600073ffffffffffffffffffffffffffffffffffffffff167f8be0079c531659141344cd1fd0a4f28419497f9722a3daafe3b4186f6b6457e060405160405180910390a3506000600260006101000a81548160ff0219169083151502179055506100e7565b600033905090565b61260d806100f66000396000f3fe60806040526004361061010d5760003560e01c806391d1485411610095578063ca15c87311610064578063ca15c87314610623578063d547741f14610672578063d9583497146106cd578063f2fde38b14610712578063fe4f889c1461076357610117565b806391d14854146104405780639f86bab7146104b3578063a217fddf146105bd578063b06f7ea6146105e857610117565b8063715018a6116100dc578063715018a61461025057806382aefa24146102675780638821e911146102925780638da5cb5b146103645780639010d07c146103bb57610117565b8063248a9ca31461011c5780632f2ff15d1461016b57806336568abe146101c65780635c975abb1461022157610117565b3661011757600080fd5b600080fd5b34801561012857600080fd5b506101556004803603602081101561013f57600080fd5b8101908080359060200190929190505050610804565b6040518082815260200191505060405180910390f35b34801561017757600080fd5b506101c46004803603604081101561018e57600080fd5b8101908080359060200190929190803573ffffffffffffffffffffffffffffffffffffffff169060200190929190505050610824565b005b3480156101d257600080fd5b5061021f600480360360408110156101e957600080fd5b8101908080359060200190929190803573ffffffffffffffffffffffffffffffffffffffff1690602001909291905050506108ae565b005b34801561022d57600080fd5b50610236610947565b604051808215151515815260200191505060405180910390f35b34801561025c57600080fd5b5061026561095e565b005b34801561027357600080fd5b5061027c610ae6565b6040518082815260200191505060405180910390f35b34801561029e57600080fd5b50610362600480360360408110156102b557600080fd5b8101908080359060200190929190803590602001906401000000008111156102dc57600080fd5b8201836020820111156102ee57600080fd5b8035906020019184600183028401116401000000008311171561031057600080fd5b91908080601f016020809104026020016040519081016040528093929190818152602001838380828437600081840152601f19601f820116905080830192505050505050509192919290505050610b1f565b005b34801561037057600080fd5b50610379610eaf565b604051808273ffffffffffffffffffffffffffffffffffffffff1673ffffffffffffffffffffffffffffffffffffffff16815260200191505060405180910390f35b3480156103c757600080fd5b506103fe600480360360408110156103de57600080fd5b810190808035906020019092919080359060200190929190505050610ed8565b604051808273ffffffffffffffffffffffffffffffffffffffff1673ffffffffffffffffffffffffffffffffffffffff16815260200191505060405180910390f35b34801561044c57600080fd5b506104996004803603604081101561046357600080fd5b8101908080359060200190929190803573ffffffffffffffffffffffffffffffffffffffff169060200190929190505050610f0a565b604051808215151515815260200191505060405180910390f35b3480156104bf57600080fd5b506104ec600480360360208110156104d657600080fd5b8101908080359060200190929190505050610f3c565b604051808673ffffffffffffffffffffffffffffffffffffffff1673ffffffffffffffffffffffffffffffffffffffff1681526020018581526020018060200184600281111561053857fe5b60ff168152602001838152602001828103825285818151815260200191508051906020019080838360005b8381101561057e578082015181840152602081019050610563565b50505050905090810190601f1680156105ab5780820380516001836020036101000a031916815260200191505b50965050505050505060405180910390f35b3480156105c957600080fd5b506105d2611044565b6040518082815260200191505060405180910390f35b3480156105f457600080fd5b506106216004803603602081101561060b57600080fd5b810190808035906020019092919050505061104b565b005b34801561062f57600080fd5b5061065c6004803603602081101561064657600080fd5b810190808035906020019092919050505061131b565b6040518082815260200191505060405180910390f35b34801561067e57600080fd5b506106cb6004803603604081101561069557600080fd5b8101908080359060200190929190803573ffffffffffffffffffffffffffffffffffffffff169060200190929190505050611342565b005b3480156106d957600080fd5b50610710600480360360408110156106f057600080fd5b8101908080359060200190929190803590602001909291905050506113cc565b005b34801561071e57600080fd5b506107616004803603602081101561073557600080fd5b81019080803573ffffffffffffffffffffffffffffffffffffffff169060200190929190505050611853565b005b6107ee6004803603604081101561077957600080fd5b810190808035906020019064010000000081111561079657600080fd5b8201836020820111156107a857600080fd5b803590602001918460018302840111640100000000831117156107ca57600080fd5b9091929391929390803567ffffffffffffffff169060200190929190505050611a60565b6040518082815260200191505060405180910390f35b600060016000838152602001908152602001600020600201549050919050565b61084b6001600084815260200190815260200160002060020154610846611dd2565b610f0a565b6108a0576040517f08c379a000000000000000000000000000000000000000000000000000000000815260040180806020018281038252602f8152602001806124ea602f913960400191505060405180910390fd5b6108aa8282611dda565b5050565b6108b6611dd2565b73ffffffffffffffffffffffffffffffffffffffff168173ffffffffffffffffffffffffffffffffffffffff1614610939576040517f08c379a000000000000000000000000000000000000000000000000000000000815260040180806020018281038252602f8152602001806125a9602f913960400191505060405180910390fd5b6109438282611e6e565b5050565b6000600260009054906101000a900460ff16905090565b610966611dd2565b73ffffffffffffffffffffffffffffffffffffffff166000809054906101000a900473ffffffffffffffffffffffffffffffffffffffff1673ffffffffffffffffffffffffffffffffffffffff1614610a27576040517f08c379a00000000000000000000000000000000000000000000000000000000081526004018080602001828103825260208152602001807f4f776e61626c653a2063616c6c6572206973206e6f7420746865206f776e657281525060200191505060405180910390fd5b600073ffffffffffffffffffffffffffffffffffffffff166000809054906101000a900473ffffffffffffffffffffffffffffffffffffffff1673ffffffffffffffffffffffffffffffffffffffff167f8be0079c531659141344cd1fd0a4f28419497f9722a3daafe3b4186f6b6457e060405160405180910390a360008060006101000a81548173ffffffffffffffffffffffffffffffffffffffff021916908373ffffffffffffffffffffffffffffffffffffffff160217905550565b60405180807f4953535545525f524f4c45000000000000000000000000000000000000000000815250600b019050604051809103902081565b816003805490508110610b3157600080fd5b8260038181548110610b3f57fe5b906000526020600020906005020160000160009054906101000a900473ffffffffffffffffffffffffffffffffffffffff1673ffffffffffffffffffffffffffffffffffffffff163373ffffffffffffffffffffffffffffffffffffffff161415610ba957600080fd5b836000806002811115610bb857fe5b60038381548110610bc557fe5b906000526020600020906005020160030160009054906101000a900460ff166002811115610bef57fe5b14610bf957600080fd5b8560038181548110610c0757fe5b9060005260206000209060050201600101544210610c2457600080fd5b600260009054906101000a900460ff1615610ca7576040517f08c379a00000000000000000000000000000000000000000000000000000000081526004018080602001828103825260108152602001807f5061757361626c653a207061757365640000000000000000000000000000000081525060200191505060405180910390fd5b6004600088815260200190815260200160002060405180606001604052806000151581526020013373ffffffffffffffffffffffffffffffffffffffff16815260200188815250908060018154018082558091505060019003906000526020600020906002020160009091909190915060008201518160000160006101000a81548160ff02191690831515021790555060208201518160000160016101000a81548173ffffffffffffffffffffffffffffffffffffffff021916908373ffffffffffffffffffffffffffffffffffffffff1602179055506040820151816001019080519060200190610d9a929190612422565b5050507f20a3bc21b79d228e6ad05267f9568afd741e20d8c024d6d57437379c2548e8308733610dea6001600460008d815260200190815260200160002080549050611f0290919063ffffffff16565b89604051808581526020018473ffffffffffffffffffffffffffffffffffffffff1673ffffffffffffffffffffffffffffffffffffffff16815260200183815260200180602001828103825283818151815260200191508051906020019080838360005b83811015610e69578082015181840152602081019050610e4e565b50505050905090810190601f168015610e965780820380516001836020036101000a031916815260200191505b509550505050505060405180910390a150505050505050565b60008060009054906101000a900473ffffffffffffffffffffffffffffffffffffffff16905090565b6000610f028260016000868152602001908152602001600020600001611f4c90919063ffffffff16565b905092915050565b6000610f348260016000868152602001908152602001600020600001611f6690919063ffffffff16565b905092915050565b60038181548110610f4957fe5b90600052602060002090600502016000915090508060000160009054906101000a900473ffffffffffffffffffffffffffffffffffffffff1690806001015490806002018054600181600116156101000203166002900480601f0160208091040260200160405190810160405280929190818152602001828054600181600116156101000203166002900480156110215780601f10610ff657610100808354040283529160200191611021565b820191906000526020600020905b81548152906001019060200180831161100457829003601f168201915b5050505050908060030160009054906101000a900460ff16908060040154905085565b6000801b81565b80600380549050811061105d57600080fd5b8161109d60405180807f4953535545525f524f4c45000000000000000000000000000000000000000000815250600b019050604051809103902033610f0a565b61110f576040517f08c379a00000000000000000000000000000000000000000000000000000000081526004018080602001828103825260178152602001807f43616c6c6572206973206e6f7420616e2069737375657200000000000000000081525060200191505060405180910390fd5b82600080600281111561111e57fe5b6003838154811061112b57fe5b906000526020600020906005020160030160009054906101000a900460ff16600281111561115557fe5b1461115f57600080fd5b600260009054906101000a900460ff16156111e2576040517f08c379a00000000000000000000000000000000000000000000000000000000081526004018080602001828103825260108152602001807f5061757361626c653a207061757365640000000000000000000000000000000081525060200191505060405180910390fd5b6002600386815481106111f157fe5b906000526020600020906005020160030160006101000a81548160ff0219169083600281111561121d57fe5b02179055506112a76003868154811061123257fe5b9060005260206000209060050201600401546003878154811061125157fe5b906000526020600020906005020160000160009054906101000a900473ffffffffffffffffffffffffffffffffffffffff1673ffffffffffffffffffffffffffffffffffffffff16611f9690919063ffffffff16565b3373ffffffffffffffffffffffffffffffffffffffff16857fa338b680434d2e0f0c5be586cf3e105ff3ec5e5264eac666fe0847d7a1fce5e6600388815481106112ed57fe5b9060005260206000209060050201600401546040518082815260200191505060405180910390a35050505050565b600061133b600160008481526020019081526020016000206000016120d0565b9050919050565b6113696001600084815260200190815260200160002060020154611364611dd2565b610f0a565b6113be576040517f08c379a00000000000000000000000000000000000000000000000000000000081526004018080602001828103825260308152602001806125796030913960400191505060405180910390fd5b6113c88282611e6e565b5050565b8160038054905081106113de57600080fd5b82826004600083815260200190815260200160002080549050811061140257600080fd5b8461144260405180807f4953535545525f524f4c45000000000000000000000000000000000000000000815250600b019050604051809103902033610f0a565b6114b4576040517f08c379a00000000000000000000000000000000000000000000000000000000081526004018080602001828103825260178152602001807f43616c6c6572206973206e6f7420616e2069737375657200000000000000000081525060200191505060405180910390fd5b8560008060028111156114c357fe5b600383815481106114d057fe5b906000526020600020906005020160030160009054906101000a900460ff1660028111156114fa57fe5b1461150457600080fd5b87876000151560046000848152602001908152602001600020828154811061152857fe5b906000526020600020906002020160000160009054906101000a900460ff1615151461155357600080fd5b600260009054906101000a900460ff16156115d6576040517f08c379a00000000000000000000000000000000000000000000000000000000081526004018080602001828103825260108152602001807f5061757361626c653a207061757365640000000000000000000000000000000081525060200191505060405180910390fd5b6001600460008c81526020019081526020016000208a815481106115f657fe5b906000526020600020906002020160000160006101000a81548160ff021916908315150217905550600160038b8154811061162d57fe5b906000526020600020906005020160030160006101000a81548160ff0219169083600281111561165957fe5b02179055506116f460038b8154811061166e57fe5b906000526020600020906005020160040154600460008d81526020019081526020016000208b8154811061169e57fe5b906000526020600020906002020160000160019054906101000a900473ffffffffffffffffffffffffffffffffffffffff1673ffffffffffffffffffffffffffffffffffffffff16611f9690919063ffffffff16565b887f85d45a4e923ea9b336558bcd434d3f474644affd5df115bba14b63e75425bde48b60038d8154811061172457fe5b906000526020600020906005020160000160009054906101000a900473ffffffffffffffffffffffffffffffffffffffff16600460008f81526020019081526020016000208d8154811061177457fe5b906000526020600020906002020160000160019054906101000a900473ffffffffffffffffffffffffffffffffffffffff1660038f815481106117b357fe5b906000526020600020906005020160040154604051808581526020018473ffffffffffffffffffffffffffffffffffffffff1673ffffffffffffffffffffffffffffffffffffffff1681526020018373ffffffffffffffffffffffffffffffffffffffff1673ffffffffffffffffffffffffffffffffffffffff16815260200182815260200194505050505060405180910390a250505050505050505050565b61185b611dd2565b73ffffffffffffffffffffffffffffffffffffffff166000809054906101000a900473ffffffffffffffffffffffffffffffffffffffff1673ffffffffffffffffffffffffffffffffffffffff161461191c576040517f08c379a00000000000000000000000000000000000000000000000000000000081526004018080602001828103825260208152602001807f4f776e61626c653a2063616c6c6572206973206e6f7420746865206f776e657281525060200191505060405180910390fd5b600073ffffffffffffffffffffffffffffffffffffffff168173ffffffffffffffffffffffffffffffffffffffff1614156119a2576040517f08c379a00000000000000000000000000000000000000000000000000000000081526004018080602001828103825260268152602001806125196026913960400191505060405180910390fd5b8073ffffffffffffffffffffffffffffffffffffffff166000809054906101000a900473ffffffffffffffffffffffffffffffffffffffff1673ffffffffffffffffffffffffffffffffffffffff167f8be0079c531659141344cd1fd0a4f28419497f9722a3daafe3b4186f6b6457e060405160405180910390a3806000806101000a81548173ffffffffffffffffffffffffffffffffffffffff021916908373ffffffffffffffffffffffffffffffffffffffff16021790555050565b6000803411611a6e57600080fd5b8167ffffffffffffffff16428111611a8557600080fd5b600260009054906101000a900460ff1615611b08576040517f08c379a00000000000000000000000000000000000000000000000000000000081526004018080602001828103825260108152602001807f5061757361626c653a207061757365640000000000000000000000000000000081525060200191505060405180910390fd5b611b4760405180807f4953535545525f524f4c45000000000000000000000000000000000000000000815250600b019050604051809103902033610f0a565b611b8b57611b8a60405180807f4953535545525f524f4c45000000000000000000000000000000000000000000815250600b0190506040518091039020336120e5565b5b60036040518060a001604052803373ffffffffffffffffffffffffffffffffffffffff1681526020018567ffffffffffffffff16815260200187878080601f016020809104026020016040519081016040528093929190818152602001838380828437600081840152601f19601f82011690508083019250505050505050815260200160006002811115611c1b57fe5b815260200134815250908060018154018082558091505060019003906000526020600020906005020160009091909190915060008201518160000160006101000a81548173ffffffffffffffffffffffffffffffffffffffff021916908373ffffffffffffffffffffffffffffffffffffffff160217905550602082015181600101556040820151816002019080519060200190611cba929190612422565b5060608201518160030160006101000a81548160ff02191690836002811115611cdf57fe5b02179055506080820151816004015550507f0584e58d5bd902991a053e3c29de8b8ae591552c2d8da2d9734b194046385e1a611d2a6001600380549050611f0290919063ffffffff16565b33348888604051808681526020018573ffffffffffffffffffffffffffffffffffffffff1673ffffffffffffffffffffffffffffffffffffffff168152602001848152602001806020018281038252848482818152602001925080828437600081840152601f19601f820116905080830192505050965050505050505060405180910390a1611dc86001600380549050611f0290919063ffffffff16565b9150509392505050565b600033905090565b611e0281600160008581526020019081526020016000206000016120f390919063ffffffff16565b15611e6a57611e0f611dd2565b73ffffffffffffffffffffffffffffffffffffffff168173ffffffffffffffffffffffffffffffffffffffff16837f2f8788117e7eff1d82e926ec794901d17c78024a50270940304540a733656f0d60405160405180910390a45b5050565b611e96816001600085815260200190815260200160002060000161212390919063ffffffff16565b15611efe57611ea3611dd2565b73ffffffffffffffffffffffffffffffffffffffff168173ffffffffffffffffffffffffffffffffffffffff16837ff6391f5c32d9c69d2a47ea670b442974b53935d1edc7fd64eb21e047a839171b60405160405180910390a45b5050565b6000611f4483836040518060400160405280601e81526020017f536166654d6174683a207375627472616374696f6e206f766572666c6f770000815250612153565b905092915050565b6000611f5b8360000183612213565b60001c905092915050565b6000611f8e836000018373ffffffffffffffffffffffffffffffffffffffff1660001b612296565b905092915050565b8047101561200c576040517f08c379a000000000000000000000000000000000000000000000000000000000815260040180806020018281038252601d8152602001807f416464726573733a20696e73756666696369656e742062616c616e636500000081525060200191505060405180910390fd5b60008273ffffffffffffffffffffffffffffffffffffffff168260405180600001905060006040518083038185875af1925050503d806000811461206c576040519150601f19603f3d011682016040523d82523d6000602084013e612071565b606091505b50509050806120cb576040517f08c379a000000000000000000000000000000000000000000000000000000000815260040180806020018281038252603a81526020018061253f603a913960400191505060405180910390fd5b505050565b60006120de826000016122b9565b9050919050565b6120ef8282611dda565b5050565b600061211b836000018373ffffffffffffffffffffffffffffffffffffffff1660001b6122ca565b905092915050565b600061214b836000018373ffffffffffffffffffffffffffffffffffffffff1660001b61233a565b905092915050565b6000838311158290612200576040517f08c379a00000000000000000000000000000000000000000000000000000000081526004018080602001828103825283818151815260200191508051906020019080838360005b838110156121c55780820151818401526020810190506121aa565b50505050905090810190601f1680156121f25780820380516001836020036101000a031916815260200191505b509250505060405180910390fd5b5060008385039050809150509392505050565b600081836000018054905011612274576040517f08c379a00000000000000000000000000000000000000000000000000000000081526004018080602001828103825260228152602001806124c86022913960400191505060405180910390fd5b82600001828154811061228357fe5b9060005260206000200154905092915050565b600080836001016000848152602001908152602001600020541415905092915050565b600081600001805490509050919050565b60006122d68383612296565b61232f578260000182908060018154018082558091505060019003906000526020600020016000909190919091505582600001805490508360010160008481526020019081526020016000208190555060019050612334565b600090505b92915050565b60008083600101600084815260200190815260200160002054905060008114612416576000600182039050600060018660000180549050039050600086600001828154811061238557fe5b90600052602060002001549050808760000184815481106123a257fe5b90600052602060002001819055506001830187600101600083815260200190815260200160002081905550866000018054806123da57fe5b6001900381819060005260206000200160009055905586600101600087815260200190815260200160002060009055600194505050505061241c565b60009150505b92915050565b828054600181600116156101000203166002900490600052602060002090601f016020900481019282601f1061246357805160ff1916838001178555612491565b82800160010185558215612491579182015b82811115612490578251825591602001919060010190612475565b5b50905061249e91906124a2565b5090565b6124c491905b808211156124c05760008160009055506001016124a8565b5090565b9056fe456e756d657261626c655365743a20696e646578206f7574206f6620626f756e6473416363657373436f6e74726f6c3a2073656e646572206d75737420626520616e2061646d696e20746f206772616e744f776e61626c653a206e6577206f776e657220697320746865207a65726f2061646472657373416464726573733a20756e61626c6520746f2073656e642076616c75652c20726563697069656e74206d61792068617665207265766572746564416363657373436f6e74726f6c3a2073656e646572206d75737420626520616e2061646d696e20746f207265766f6b65416363657373436f6e74726f6c3a2063616e206f6e6c792072656e6f756e636520726f6c657320666f722073656c66a2646970667358221220934610de03a1c5e3dbf682d1daeff06562f91b1a1cf51b8edbf665b24bd8bfb364736f6c63430006060033",
  "immutableReferences": {},
  "source": "pragma solidity 0.6.6;\n\n/**\n * @title AntsReview\n * @author Nazzareno Massari, Bianca Trov\n * @dev Simple smart contract which allows any user to issue an antReview in ETH linked to requirements stored in ipfs\n * which anyone can fufill by submitting the ipfs hash which contains evidence of their fufillment\n * @dev OpenZeppelin library is used for secure contract development\n */\n\nimport \"@openzeppelin/contracts/access/Ownable.sol\";\nimport \"@openzeppelin/contracts/access/AccessControl.sol\";\nimport \"@openzeppelin/contracts/utils/Pausable.sol\";\nimport \"@openzeppelin/contracts/math/SafeMath.sol\";\nimport \"@openzeppelin/contracts/utils/Address.sol\";\n\ncontract AntsReview is Ownable, AccessControl, Pausable {\n\n  using SafeMath for uint256;\n  using Address for address payable;\n\n  // Create a new role identifier for the issuer role\n  bytes32 public constant ISSUER_ROLE = keccak256(\"ISSUER_ROLE\");\n\n\n  // Enums\n\n  enum AntReviewStatus { CREATED, ACCEPTED, CANCELLED }\n\n  // Storage\n\n  AntReview[] public antreviews ;\n\n  mapping(uint256 => Fulfillment[]) fulfillments;\n\n  // Structs\n\n  struct AntReview {\n      address payable issuer;\n      uint256 deadline;\n      string data;\n      AntReviewStatus status;\n      uint256 amount; //in wei\n  }\n\n  struct Fulfillment {\n      bool accepted;\n      address payable fulfiller;\n      string data;\n  }\n\n\n  // Events\n\n  event AntReviewIssued(uint256 antReview_id, address issuer, uint256 amount, string data);\n  event AntReviewFulfilled(uint256 antReview_id, address fulfiller, uint256 fulfillment_id, string data);\n  event FulfillmentAccepted(uint256 _antReviewId, address issuer, address fulfiller, uint256 indexed fulfillment_id, uint256 amount);\n  event AntReviewCancelled(uint256 indexed antReview_id, address indexed issuer, uint256 amount);\n\n  constructor() public {}\n\n  // Fallback\n\n  fallback() external payable {\n    revert();\n  }\n\n  receive() external payable {\n    revert();\n  }\n\n  // Modifiers\n\n  modifier hasValue() {\n      require(msg.value > 0);\n      _;\n  }\n\n  modifier antReviewExists(uint256 _antReviewId){\n    require(_antReviewId < antreviews.length);\n    _;\n  }\n\n  modifier fulfillmentExists(uint256 _antReviewId, uint256 _fulfillmentId){\n    require(_fulfillmentId < fulfillments[_antReviewId].length);\n    _;\n  }\n\n  modifier hasStatus(uint256 _antReviewId, AntReviewStatus _desiredStatus) {\n    require(antreviews[_antReviewId].status == _desiredStatus);\n    _;\n  }\n\n  modifier onlyIssuer(uint256 _antReviewId) {\n      require(hasRole(ISSUER_ROLE, msg.sender), \"Caller is not an issuer\");\n      _;\n  }\n\n  modifier notIssuer(uint256 _antReviewId) {\n      require(msg.sender != antreviews[_antReviewId].issuer);\n      _;\n  }\n\n  modifier fulfillmentNotYetAccepted(uint256 _antReviewId, uint256 _fulfillmentId) {\n    require(fulfillments[_antReviewId][_fulfillmentId].accepted == false);\n    _;\n  }\n\n  modifier validateDeadline(uint256 _newDeadline) {\n      require(_newDeadline > now);\n      _;\n  }\n\n  modifier isBeforeDeadline(uint256 _antReviewId) {\n    require(now < antreviews[_antReviewId].deadline);\n    _;\n  }\n\n  /**\n  * @dev issueAntReview(): instantiates a new bounty\n  * @param _deadline the unix timestamp after which fulfillments will no longer be accepted\n  * @param _data the requirements of the antReview\n  */\n  function issueAntReview(\n      string calldata _data,\n      uint64 _deadline\n  )\n      external\n      payable\n      hasValue()\n      validateDeadline(_deadline)\n      whenNotPaused()\n      returns (uint256)\n  {\n      if (!hasRole(ISSUER_ROLE, msg.sender)) {\n          _setupRole(ISSUER_ROLE, msg.sender);\n      }\n      antreviews.push(AntReview(msg.sender, _deadline, _data, AntReviewStatus.CREATED, msg.value));\n      emit AntReviewIssued(antreviews.length.sub(1),msg.sender, msg.value, _data);\n      return (antreviews.length.sub(1));\n  }\n\n  /**\n  * @dev fulfillAntReview(): submit a fulfillment for the given antReview\n  * @param _antReviewId the index of the antReview to be fufilled\n  * @param _data the ipfs hash which contains evidence of the fufillment\n  */\n  function fulfillAntReview(uint256 _antReviewId, string memory _data)\n    public\n    antReviewExists(_antReviewId)\n    notIssuer(_antReviewId)\n    hasStatus(_antReviewId, AntReviewStatus.CREATED)\n    isBeforeDeadline(_antReviewId)\n    whenNotPaused()\n  {\n    fulfillments[_antReviewId].push(Fulfillment(false, msg.sender, _data));\n    emit AntReviewFulfilled(_antReviewId, msg.sender, (fulfillments[_antReviewId].length.sub(1)),_data);\n  }\n\n  /**\n  * @dev acceptFulfillment(): accept a given fulfillment\n  * @param _antReviewId the index of the antReview\n  * @param _fulfillmentId the index of the fulfillment being accepted\n  */\n  function acceptFulfillment(uint256 _antReviewId, uint256 _fulfillmentId)\n      public\n      antReviewExists(_antReviewId)\n      fulfillmentExists(_antReviewId,_fulfillmentId)\n      onlyIssuer(_antReviewId)\n      hasStatus(_antReviewId, AntReviewStatus.CREATED)\n      fulfillmentNotYetAccepted(_antReviewId, _fulfillmentId)\n      whenNotPaused()\n  {\n      fulfillments[_antReviewId][_fulfillmentId].accepted = true;\n      antreviews[_antReviewId].status = AntReviewStatus.ACCEPTED;\n      fulfillments[_antReviewId][_fulfillmentId].fulfiller.sendValue(antreviews[_antReviewId].amount);\n      emit FulfillmentAccepted(\n        _antReviewId,\n        antreviews[_antReviewId].issuer,\n        fulfillments[_antReviewId][_fulfillmentId].fulfiller,\n        _fulfillmentId, antreviews[_antReviewId].amount\n      );\n  }\n\n  /** @dev cancelAntReview(): cancels the antReview and send the funds back to the issuer\n  * @param _antReviewId the index of the antReview\n  */\n  function cancelAntReview(uint256 _antReviewId)\n      public\n      antReviewExists(_antReviewId)\n      onlyIssuer(_antReviewId)\n      hasStatus(_antReviewId, AntReviewStatus.CREATED)\n      whenNotPaused()\n  {\n      antreviews[_antReviewId].status = AntReviewStatus.CANCELLED;\n      antreviews[_antReviewId].issuer.sendValue(antreviews[_antReviewId].amount);\n      emit AntReviewCancelled(_antReviewId, msg.sender, antreviews[_antReviewId].amount);\n  }\n\n}\n",
  "sourcePath": "/home/ants/ants-review/contracts/AntsReview.sol",
  "compiler": {
    "name": "solc",
    "version": "0.6.6+commit.6c089d02.Emscripten.clang"
  },
  "schemaVersion": "3.1.0",
  "updatedAt": "2020-04-26T11:11:52.875Z",
  "networkType": "ethereum",
  "devdoc": {
    "methods": {
      "acceptFulfillment(uint256,uint256)": {
        "details": "acceptFulfillment(): accept a given fulfillment",
        "params": {
          "_antReviewId": "the index of the antReview",
          "_fulfillmentId": "the index of the fulfillment being accepted"
        }
      },
      "cancelAntReview(uint256)": {
        "details": "cancelAntReview(): cancels the antReview and send the funds back to the issuer",
        "params": {
          "_antReviewId": "the index of the antReview"
        }
      },
      "fulfillAntReview(uint256,string)": {
        "details": "fulfillAntReview(): submit a fulfillment for the given antReview",
        "params": {
          "_antReviewId": "the index of the antReview to be fufilled",
          "_data": "the ipfs hash which contains evidence of the fufillment"
        }
      },
      "getRoleAdmin(bytes32)": {
        "details": "Returns the admin role that controls `role`. See {grantRole} and {revokeRole}.     * To change a role's admin, use {_setRoleAdmin}."
      },
      "getRoleMember(bytes32,uint256)": {
        "details": "Returns one of the accounts that have `role`. `index` must be a value between 0 and {getRoleMemberCount}, non-inclusive.     * Role bearers are not sorted in any particular way, and their ordering may change at any point.     * WARNING: When using {getRoleMember} and {getRoleMemberCount}, make sure you perform all queries on the same block. See the following https://forum.openzeppelin.com/t/iterating-over-elements-on-enumerableset-in-openzeppelin-contracts/2296[forum post] for more information."
      },
      "getRoleMemberCount(bytes32)": {
        "details": "Returns the number of accounts that have `role`. Can be used together with {getRoleMember} to enumerate all bearers of a role."
      },
      "grantRole(bytes32,address)": {
        "details": "Grants `role` to `account`.     * If `account` had not been already granted `role`, emits a {RoleGranted} event.     * Requirements:     * - the caller must have ``role``'s admin role."
      },
      "hasRole(bytes32,address)": {
        "details": "Returns `true` if `account` has been granted `role`."
      },
      "issueAntReview(string,uint64)": {
        "details": "issueAntReview(): instantiates a new bounty",
        "params": {
          "_data": "the requirements of the antReview",
          "_deadline": "the unix timestamp after which fulfillments will no longer be accepted"
        }
      },
      "owner()": {
        "details": "Returns the address of the current owner."
      },
      "paused()": {
        "details": "Returns true if the contract is paused, and false otherwise."
      },
      "renounceOwnership()": {
        "details": "Leaves the contract without owner. It will not be possible to call `onlyOwner` functions anymore. Can only be called by the current owner.     * NOTE: Renouncing ownership will leave the contract without an owner, thereby removing any functionality that is only available to the owner."
      },
      "renounceRole(bytes32,address)": {
        "details": "Revokes `role` from the calling account.     * Roles are often managed via {grantRole} and {revokeRole}: this function's purpose is to provide a mechanism for accounts to lose their privileges if they are compromised (such as when a trusted device is misplaced).     * If the calling account had been granted `role`, emits a {RoleRevoked} event.     * Requirements:     * - the caller must be `account`."
      },
      "revokeRole(bytes32,address)": {
        "details": "Revokes `role` from `account`.     * If `account` had been granted `role`, emits a {RoleRevoked} event.     * Requirements:     * - the caller must have ``role``'s admin role."
      },
      "transferOwnership(address)": {
        "details": "Transfers ownership of the contract to a new account (`newOwner`). Can only be called by the current owner."
      }
    }
  },
  "userdoc": {
    "methods": {}
  }
}