{
  "contractName": "AntsReview",
  "abi": [
    {
      "inputs": [
        {
          "internalType": "address",
          "name": "ants_",
          "type": "address"
        }
      ],
      "stateMutability": "nonpayable",
      "type": "constructor"
    },
    {
      "anonymous": false,
      "inputs": [
        {
          "indexed": false,
          "internalType": "uint256",
          "name": "antId",
          "type": "uint256"
        },
        {
          "indexed": false,
          "internalType": "uint256",
          "name": "reviewId",
          "type": "uint256"
        },
        {
          "indexed": false,
          "internalType": "address",
          "name": "approver",
          "type": "address"
        },
        {
          "indexed": false,
          "internalType": "uint256",
          "name": "amount",
          "type": "uint256"
        }
      ],
      "name": "AntReviewAccepted",
      "type": "event"
    },
    {
      "anonymous": false,
      "inputs": [
        {
          "indexed": false,
          "internalType": "uint256",
          "name": "antId",
          "type": "uint256"
        },
        {
          "indexed": false,
          "internalType": "address",
          "name": "issuer",
          "type": "address"
        },
        {
          "indexed": false,
          "internalType": "address payable[]",
          "name": "issuers",
          "type": "address[]"
        },
        {
          "indexed": false,
          "internalType": "string",
          "name": "paperHash",
          "type": "string"
        },
        {
          "indexed": false,
          "internalType": "string",
          "name": "requirementsHash",
          "type": "string"
        },
        {
          "indexed": false,
          "internalType": "uint64",
          "name": "deadline",
          "type": "uint64"
        }
      ],
      "name": "AntReviewChanged",
      "type": "event"
    },
    {
      "anonymous": false,
      "inputs": [
        {
          "indexed": false,
          "internalType": "uint256",
          "name": "antId",
          "type": "uint256"
        },
        {
          "indexed": false,
          "internalType": "uint256",
          "name": "reviewId",
          "type": "uint256"
        },
        {
          "indexed": false,
          "internalType": "address",
          "name": "peer_reviewer",
          "type": "address"
        },
        {
          "indexed": false,
          "internalType": "string",
          "name": "reviewHash",
          "type": "string"
        }
      ],
      "name": "AntReviewFulfilled",
      "type": "event"
    },
    {
      "anonymous": false,
      "inputs": [
        {
          "indexed": false,
          "internalType": "uint256",
          "name": "antId",
          "type": "uint256"
        },
        {
          "indexed": false,
          "internalType": "address payable[]",
          "name": "issuers",
          "type": "address[]"
        },
        {
          "indexed": false,
          "internalType": "string",
          "name": "paperHash",
          "type": "string"
        },
        {
          "indexed": false,
          "internalType": "string",
          "name": "requirementsHash",
          "type": "string"
        },
        {
          "indexed": false,
          "internalType": "uint64",
          "name": "deadline",
          "type": "uint64"
        }
      ],
      "name": "AntReviewIssued",
      "type": "event"
    },
    {
      "anonymous": false,
      "inputs": [
        {
          "indexed": false,
          "internalType": "uint256",
          "name": "antId",
          "type": "uint256"
        },
        {
          "indexed": false,
          "internalType": "address",
          "name": "issuer",
          "type": "address"
        },
        {
          "indexed": false,
          "internalType": "uint256",
          "name": "amount",
          "type": "uint256"
        },
        {
          "indexed": false,
          "internalType": "uint256",
          "name": "balance",
          "type": "uint256"
        }
      ],
      "name": "AntReviewWithdrawn",
      "type": "event"
    },
    {
      "anonymous": false,
      "inputs": [
        {
          "indexed": false,
          "internalType": "uint256",
          "name": "antId",
          "type": "uint256"
        },
        {
          "indexed": false,
          "internalType": "uint256",
          "name": "issuerId",
          "type": "uint256"
        },
        {
          "indexed": false,
          "internalType": "address",
          "name": "approver",
          "type": "address"
        }
      ],
      "name": "ApproverAdded",
      "type": "event"
    },
    {
      "anonymous": false,
      "inputs": [
        {
          "indexed": false,
          "internalType": "uint256",
          "name": "antId",
          "type": "uint256"
        },
        {
          "indexed": false,
          "internalType": "uint256",
          "name": "issuerId",
          "type": "uint256"
        },
        {
          "indexed": false,
          "internalType": "address",
          "name": "approver",
          "type": "address"
        }
      ],
      "name": "ApproverRemoved",
      "type": "event"
    },
    {
      "anonymous": false,
      "inputs": [
        {
          "indexed": false,
          "internalType": "uint256",
          "name": "antId",
          "type": "uint256"
        },
        {
          "indexed": false,
          "internalType": "uint256",
          "name": "contributionId",
          "type": "uint256"
        },
        {
          "indexed": false,
          "internalType": "address",
          "name": "contributor",
          "type": "address"
        },
        {
          "indexed": false,
          "internalType": "uint256",
          "name": "amount",
          "type": "uint256"
        }
      ],
      "name": "ContributionAdded",
      "type": "event"
    },
    {
      "anonymous": false,
      "inputs": [
        {
          "indexed": false,
          "internalType": "uint256",
          "name": "antId",
          "type": "uint256"
        },
        {
          "indexed": false,
          "internalType": "uint256",
          "name": "contributionId",
          "type": "uint256"
        },
        {
          "indexed": false,
          "internalType": "address",
          "name": "contributor",
          "type": "address"
        }
      ],
      "name": "ContributionRefunded",
      "type": "event"
    },
    {
      "anonymous": false,
      "inputs": [
        {
          "indexed": true,
          "internalType": "address",
          "name": "previousOwner",
          "type": "address"
        },
        {
          "indexed": true,
          "internalType": "address",
          "name": "newOwner",
          "type": "address"
        }
      ],
      "name": "OwnershipTransferred",
      "type": "event"
    },
    {
      "anonymous": false,
      "inputs": [
        {
          "indexed": false,
          "internalType": "address",
          "name": "account",
          "type": "address"
        }
      ],
      "name": "Paused",
      "type": "event"
    },
    {
      "anonymous": false,
      "inputs": [
        {
          "indexed": false,
          "internalType": "uint256",
          "name": "antId",
          "type": "uint256"
        },
        {
          "indexed": false,
          "internalType": "uint256",
          "name": "reviewId",
          "type": "uint256"
        },
        {
          "indexed": false,
          "internalType": "string",
          "name": "reviewHash",
          "type": "string"
        }
      ],
      "name": "ReviewUpdated",
      "type": "event"
    },
    {
      "anonymous": false,
      "inputs": [
        {
          "indexed": true,
          "internalType": "bytes32",
          "name": "role",
          "type": "bytes32"
        },
        {
          "indexed": true,
          "internalType": "bytes32",
          "name": "previousAdminRole",
          "type": "bytes32"
        },
        {
          "indexed": true,
          "internalType": "bytes32",
          "name": "newAdminRole",
          "type": "bytes32"
        }
      ],
      "name": "RoleAdminChanged",
      "type": "event"
    },
    {
      "anonymous": false,
      "inputs": [
        {
          "indexed": true,
          "internalType": "bytes32",
          "name": "role",
          "type": "bytes32"
        },
        {
          "indexed": true,
          "internalType": "address",
          "name": "account",
          "type": "address"
        },
        {
          "indexed": true,
          "internalType": "address",
          "name": "sender",
          "type": "address"
        }
      ],
      "name": "RoleGranted",
      "type": "event"
    },
    {
      "anonymous": false,
      "inputs": [
        {
          "indexed": true,
          "internalType": "bytes32",
          "name": "role",
          "type": "bytes32"
        },
        {
          "indexed": true,
          "internalType": "address",
          "name": "account",
          "type": "address"
        },
        {
          "indexed": true,
          "internalType": "address",
          "name": "sender",
          "type": "address"
        }
      ],
      "name": "RoleRevoked",
      "type": "event"
    },
    {
      "anonymous": false,
      "inputs": [
        {
          "indexed": false,
          "internalType": "address",
          "name": "account",
          "type": "address"
        }
      ],
      "name": "Unpaused",
      "type": "event"
    },
    {
      "stateMutability": "nonpayable",
      "type": "fallback"
    },
    {
      "inputs": [],
      "name": "DEFAULT_ADMIN_ROLE",
      "outputs": [
        {
          "internalType": "bytes32",
          "name": "",
          "type": "bytes32"
        }
      ],
      "stateMutability": "view",
      "type": "function",
      "constant": true
    },
    {
      "inputs": [],
      "name": "ISSUER_ROLE",
      "outputs": [
        {
          "internalType": "bytes32",
          "name": "",
          "type": "bytes32"
        }
      ],
      "stateMutability": "view",
      "type": "function",
      "constant": true
    },
    {
      "inputs": [],
      "name": "PAUSER_ROLE",
      "outputs": [
        {
          "internalType": "bytes32",
          "name": "",
          "type": "bytes32"
        }
      ],
      "stateMutability": "view",
      "type": "function",
      "constant": true
    },
    {
      "inputs": [],
      "name": "PEER_REVIEWER_ROLE",
      "outputs": [
        {
          "internalType": "bytes32",
          "name": "",
          "type": "bytes32"
        }
      ],
      "stateMutability": "view",
      "type": "function",
      "constant": true
    },
    {
      "inputs": [
        {
          "internalType": "address",
          "name": "account",
          "type": "address"
        }
      ],
      "name": "addIssuer",
      "outputs": [
        {
          "internalType": "bool",
          "name": "",
          "type": "bool"
        }
      ],
      "stateMutability": "nonpayable",
      "type": "function"
    },
    {
      "inputs": [
        {
          "internalType": "address",
          "name": "account",
          "type": "address"
        }
      ],
      "name": "addPeerReviewer",
      "outputs": [
        {
          "internalType": "bool",
          "name": "",
          "type": "bool"
        }
      ],
      "stateMutability": "nonpayable",
      "type": "function"
    },
    {
      "inputs": [],
      "name": "antReviewIdTracker",
      "outputs": [
        {
          "internalType": "uint256",
          "name": "_value",
          "type": "uint256"
        }
      ],
      "stateMutability": "view",
      "type": "function",
      "constant": true
    },
    {
      "inputs": [
        {
          "internalType": "uint256",
          "name": "",
          "type": "uint256"
        }
      ],
      "name": "antreviews",
      "outputs": [
        {
          "internalType": "string",
          "name": "paperHash",
          "type": "string"
        },
        {
          "internalType": "string",
          "name": "requirementsHash",
          "type": "string"
        },
        {
          "internalType": "uint256",
          "name": "deadline",
          "type": "uint256"
        },
        {
          "internalType": "enum AntsReview.AntReviewStatus",
          "name": "status",
          "type": "uint8"
        },
        {
          "internalType": "uint256",
          "name": "balance",
          "type": "uint256"
        }
      ],
      "stateMutability": "view",
      "type": "function",
      "constant": true
    },
    {
      "inputs": [
        {
          "internalType": "uint256",
          "name": "",
          "type": "uint256"
        },
        {
          "internalType": "uint256",
          "name": "",
          "type": "uint256"
        }
      ],
      "name": "contributions",
      "outputs": [
        {
          "internalType": "address payable",
          "name": "contributor",
          "type": "address"
        },
        {
          "internalType": "uint256",
          "name": "amount",
          "type": "uint256"
        },
        {
          "internalType": "bool",
          "name": "refunded",
          "type": "bool"
        }
      ],
      "stateMutability": "view",
      "type": "function",
      "constant": true
    },
    {
      "inputs": [
        {
          "internalType": "bytes32",
          "name": "role",
          "type": "bytes32"
        }
      ],
      "name": "getRoleAdmin",
      "outputs": [
        {
          "internalType": "bytes32",
          "name": "",
          "type": "bytes32"
        }
      ],
      "stateMutability": "view",
      "type": "function",
      "constant": true
    },
    {
      "inputs": [
        {
          "internalType": "bytes32",
          "name": "role",
          "type": "bytes32"
        },
        {
          "internalType": "uint256",
          "name": "index",
          "type": "uint256"
        }
      ],
      "name": "getRoleMember",
      "outputs": [
        {
          "internalType": "address",
          "name": "",
          "type": "address"
        }
      ],
      "stateMutability": "view",
      "type": "function",
      "constant": true
    },
    {
      "inputs": [
        {
          "internalType": "bytes32",
          "name": "role",
          "type": "bytes32"
        }
      ],
      "name": "getRoleMemberCount",
      "outputs": [
        {
          "internalType": "uint256",
          "name": "",
          "type": "uint256"
        }
      ],
      "stateMutability": "view",
      "type": "function",
      "constant": true
    },
    {
      "inputs": [
        {
          "internalType": "bytes32",
          "name": "role",
          "type": "bytes32"
        },
        {
          "internalType": "address",
          "name": "account",
          "type": "address"
        }
      ],
      "name": "grantRole",
      "outputs": [],
      "stateMutability": "nonpayable",
      "type": "function"
    },
    {
      "inputs": [
        {
          "internalType": "bytes32",
          "name": "role",
          "type": "bytes32"
        },
        {
          "internalType": "address",
          "name": "account",
          "type": "address"
        }
      ],
      "name": "hasRole",
      "outputs": [
        {
          "internalType": "bool",
          "name": "",
          "type": "bool"
        }
      ],
      "stateMutability": "view",
      "type": "function",
      "constant": true
    },
    {
      "inputs": [
        {
          "internalType": "address",
          "name": "account",
          "type": "address"
        }
      ],
      "name": "isAdmin",
      "outputs": [
        {
          "internalType": "bool",
          "name": "",
          "type": "bool"
        }
      ],
      "stateMutability": "view",
      "type": "function",
      "constant": true
    },
    {
      "inputs": [
        {
          "internalType": "address",
          "name": "account",
          "type": "address"
        }
      ],
      "name": "isIssuer",
      "outputs": [
        {
          "internalType": "bool",
          "name": "",
          "type": "bool"
        }
      ],
      "stateMutability": "view",
      "type": "function",
      "constant": true
    },
    {
      "inputs": [
        {
          "internalType": "address",
          "name": "account",
          "type": "address"
        }
      ],
      "name": "isPeerReviewer",
      "outputs": [
        {
          "internalType": "bool",
          "name": "",
          "type": "bool"
        }
      ],
      "stateMutability": "view",
      "type": "function",
      "constant": true
    },
    {
      "inputs": [],
      "name": "owner",
      "outputs": [
        {
          "internalType": "address",
          "name": "",
          "type": "address"
        }
      ],
      "stateMutability": "view",
      "type": "function",
      "constant": true
    },
    {
      "inputs": [],
      "name": "pause",
      "outputs": [],
      "stateMutability": "nonpayable",
      "type": "function"
    },
    {
      "inputs": [],
      "name": "paused",
      "outputs": [
        {
          "internalType": "bool",
          "name": "",
          "type": "bool"
        }
      ],
      "stateMutability": "view",
      "type": "function",
      "constant": true
    },
    {
      "inputs": [
        {
          "internalType": "uint256",
          "name": "",
          "type": "uint256"
        },
        {
          "internalType": "uint256",
          "name": "",
          "type": "uint256"
        }
      ],
      "name": "peer_reviews",
      "outputs": [
        {
          "internalType": "bool",
          "name": "accepted",
          "type": "bool"
        },
        {
          "internalType": "address payable",
          "name": "peer_reviewer",
          "type": "address"
        },
        {
          "internalType": "string",
          "name": "reviewHash",
          "type": "string"
        }
      ],
      "stateMutability": "view",
      "type": "function",
      "constant": true
    },
    {
      "inputs": [
        {
          "internalType": "address",
          "name": "account",
          "type": "address"
        }
      ],
      "name": "removeIssuer",
      "outputs": [
        {
          "internalType": "bool",
          "name": "",
          "type": "bool"
        }
      ],
      "stateMutability": "nonpayable",
      "type": "function"
    },
    {
      "inputs": [
        {
          "internalType": "address",
          "name": "account",
          "type": "address"
        }
      ],
      "name": "removePeerReviewer",
      "outputs": [
        {
          "internalType": "bool",
          "name": "",
          "type": "bool"
        }
      ],
      "stateMutability": "nonpayable",
      "type": "function"
    },
    {
      "inputs": [],
      "name": "renounceOwnership",
      "outputs": [],
      "stateMutability": "nonpayable",
      "type": "function"
    },
    {
      "inputs": [
        {
          "internalType": "bytes32",
          "name": "role",
          "type": "bytes32"
        },
        {
          "internalType": "address",
          "name": "account",
          "type": "address"
        }
      ],
      "name": "renounceRole",
      "outputs": [],
      "stateMutability": "nonpayable",
      "type": "function"
    },
    {
      "inputs": [
        {
          "internalType": "bytes32",
          "name": "role",
          "type": "bytes32"
        },
        {
          "internalType": "address",
          "name": "account",
          "type": "address"
        }
      ],
      "name": "revokeRole",
      "outputs": [],
      "stateMutability": "nonpayable",
      "type": "function"
    },
    {
      "inputs": [
        {
          "internalType": "address",
          "name": "newOwner",
          "type": "address"
        }
      ],
      "name": "transferOwnership",
      "outputs": [],
      "stateMutability": "nonpayable",
      "type": "function"
    },
    {
      "inputs": [],
      "name": "unpause",
      "outputs": [],
      "stateMutability": "nonpayable",
      "type": "function"
    },
    {
      "inputs": [
        {
          "internalType": "uint256",
          "name": "_antId",
          "type": "uint256"
        },
        {
          "internalType": "uint256",
          "name": "_approverId",
          "type": "uint256"
        }
      ],
      "name": "getApprover",
      "outputs": [
        {
          "internalType": "address",
          "name": "approver",
          "type": "address"
        }
      ],
      "stateMutability": "view",
      "type": "function",
      "constant": true
    },
    {
      "inputs": [
        {
          "internalType": "address payable[]",
          "name": "_issuers",
          "type": "address[]"
        },
        {
          "internalType": "address",
          "name": "_approver",
          "type": "address"
        },
        {
          "internalType": "string",
          "name": "_paperHash",
          "type": "string"
        },
        {
          "internalType": "string",
          "name": "_requirementsHash",
          "type": "string"
        },
        {
          "internalType": "uint64",
          "name": "_deadline",
          "type": "uint64"
        }
      ],
      "name": "issueAntReview",
      "outputs": [
        {
          "internalType": "bool",
          "name": "",
          "type": "bool"
        }
      ],
      "stateMutability": "nonpayable",
      "type": "function"
    },
    {
      "inputs": [
        {
          "internalType": "uint256",
          "name": "_antId",
          "type": "uint256"
        },
        {
          "internalType": "uint256",
          "name": "_issuerId",
          "type": "uint256"
        },
        {
          "internalType": "address payable[]",
          "name": "_issuers",
          "type": "address[]"
        },
        {
          "internalType": "string",
          "name": "_paperHash",
          "type": "string"
        },
        {
          "internalType": "string",
          "name": "_requirementsHash",
          "type": "string"
        },
        {
          "internalType": "uint64",
          "name": "_deadline",
          "type": "uint64"
        }
      ],
      "name": "changeAntReview",
      "outputs": [
        {
          "internalType": "bool",
          "name": "",
          "type": "bool"
        }
      ],
      "stateMutability": "nonpayable",
      "type": "function"
    },
    {
      "inputs": [
        {
          "internalType": "uint256",
          "name": "_antId",
          "type": "uint256"
        },
        {
          "internalType": "uint256",
          "name": "_issuerId",
          "type": "uint256"
        },
        {
          "internalType": "address",
          "name": "_account",
          "type": "address"
        }
      ],
      "name": "addApprover",
      "outputs": [
        {
          "internalType": "bool",
          "name": "",
          "type": "bool"
        }
      ],
      "stateMutability": "nonpayable",
      "type": "function"
    },
    {
      "inputs": [
        {
          "internalType": "uint256",
          "name": "_antId",
          "type": "uint256"
        },
        {
          "internalType": "uint256",
          "name": "_issuerId",
          "type": "uint256"
        },
        {
          "internalType": "address",
          "name": "_account",
          "type": "address"
        }
      ],
      "name": "removeApprover",
      "outputs": [
        {
          "internalType": "bool",
          "name": "",
          "type": "bool"
        }
      ],
      "stateMutability": "nonpayable",
      "type": "function"
    },
    {
      "inputs": [
        {
          "internalType": "uint256",
          "name": "_antId",
          "type": "uint256"
        },
        {
          "internalType": "uint256",
          "name": "_amount",
          "type": "uint256"
        }
      ],
      "name": "contribute",
      "outputs": [
        {
          "internalType": "bool",
          "name": "",
          "type": "bool"
        }
      ],
      "stateMutability": "nonpayable",
      "type": "function"
    },
    {
      "inputs": [
        {
          "internalType": "uint256",
          "name": "_antId",
          "type": "uint256"
        },
        {
          "internalType": "uint256",
          "name": "_contributionId",
          "type": "uint256"
        }
      ],
      "name": "refund",
      "outputs": [
        {
          "internalType": "bool",
          "name": "",
          "type": "bool"
        }
      ],
      "stateMutability": "nonpayable",
      "type": "function"
    },
    {
      "inputs": [
        {
          "internalType": "uint256",
          "name": "_antId",
          "type": "uint256"
        },
        {
          "internalType": "string",
          "name": "_reviewHash",
          "type": "string"
        }
      ],
      "name": "fulfillAntReview",
      "outputs": [
        {
          "internalType": "bool",
          "name": "",
          "type": "bool"
        }
      ],
      "stateMutability": "nonpayable",
      "type": "function"
    },
    {
      "inputs": [
        {
          "internalType": "uint256",
          "name": "_antId",
          "type": "uint256"
        },
        {
          "internalType": "uint256",
          "name": "_reviewId",
          "type": "uint256"
        },
        {
          "internalType": "string",
          "name": "_reviewHash",
          "type": "string"
        }
      ],
      "name": "updateReview",
      "outputs": [
        {
          "internalType": "bool",
          "name": "",
          "type": "bool"
        }
      ],
      "stateMutability": "nonpayable",
      "type": "function"
    },
    {
      "inputs": [
        {
          "internalType": "uint256",
          "name": "_antId",
          "type": "uint256"
        },
        {
          "internalType": "uint256",
          "name": "_reviewId",
          "type": "uint256"
        },
        {
          "internalType": "uint256",
          "name": "_amount",
          "type": "uint256"
        }
      ],
      "name": "acceptAntReview",
      "outputs": [
        {
          "internalType": "bool",
          "name": "",
          "type": "bool"
        }
      ],
      "stateMutability": "nonpayable",
      "type": "function"
    },
    {
      "inputs": [
        {
          "internalType": "uint256",
          "name": "_antId",
          "type": "uint256"
        },
        {
          "internalType": "uint256",
          "name": "_issuerId",
          "type": "uint256"
        },
        {
          "internalType": "uint256",
          "name": "_amount",
          "type": "uint256"
        }
      ],
      "name": "withdrawAntReview",
      "outputs": [
        {
          "internalType": "bool",
          "name": "",
          "type": "bool"
        }
      ],
      "stateMutability": "nonpayable",
      "type": "function"
    }
  ],
  "bytecode": "0x60a06040523480156200001157600080fd5b50604051620055dc380380620055dc83398181016040528101906200003791906200037c565b600062000049620001a560201b60201c565b9050806000806101000a81548173ffffffffffffffffffffffffffffffffffffffff021916908373ffffffffffffffffffffffffffffffffffffffff1602179055508073ffffffffffffffffffffffffffffffffffffffff16600073ffffffffffffffffffffffffffffffffffffffff167f8be0079c531659141344cd1fd0a4f28419497f9722a3daafe3b4186f6b6457e060405160405180910390a3506000600260006101000a81548160ff021916908315150217905550620001266000801b6200011a620001ad60201b60201c565b620001d660201b60201c565b620001677f65d7a28e3265b37a6474929f336521b332c1681b933f6cb9f3376673440d862a6200015b620001ad60201b60201c565b620001d660201b60201c565b8073ffffffffffffffffffffffffffffffffffffffff1660808173ffffffffffffffffffffffffffffffffffffffff1660601b8152505050620003f6565b600033905090565b60008060009054906101000a900473ffffffffffffffffffffffffffffffffffffffff16905090565b620001e88282620001ec60201b60201c565b5050565b6200021b81600160008581526020019081526020016000206000016200029060201b620030211790919060201c565b156200028c5762000231620001a560201b60201c565b73ffffffffffffffffffffffffffffffffffffffff168173ffffffffffffffffffffffffffffffffffffffff16837f2f8788117e7eff1d82e926ec794901d17c78024a50270940304540a733656f0d60405160405180910390a45b5050565b6000620002c0836000018373ffffffffffffffffffffffffffffffffffffffff1660001b620002c860201b60201c565b905092915050565b6000620002dc83836200034260201b60201c565b620003375782600001829080600181540180825580915050600190039060005260206000200160009091909190915055826000018054905083600101600084815260200190815260200160002081905550600190506200033c565b600090505b92915050565b600080836001016000848152602001908152602001600020541415905092915050565b6000815190506200037681620003dc565b92915050565b6000602082840312156200038f57600080fd5b60006200039f8482850162000365565b91505092915050565b6000620003b582620003bc565b9050919050565b600073ffffffffffffffffffffffffffffffffffffffff82169050919050565b620003e781620003a8565b8114620003f357600080fd5b50565b60805160601c6151b9620004236000398061155352806119ff52806122b15280612be052506151b96000f3fe608060405234801561001057600080fd5b50600436106102415760003560e01c80638456cb591161013b5780639f86bab7116100b8578063d547741f1161007c578063d547741f146107a7578063e07f436b146107c3578063e63ab1e9146107f3578063ec80f93114610811578063f2fde38b1461084357610242565b80639f86bab7146106c5578063a217fddf146106f9578063b35a8a3f14610717578063c629d9e514610747578063ca15c8731461077757610242565b80638c6608b3116100ff5780638c6608b3146105e75780638da5cb5b146106175780639010d07c1461063557806391d14854146106655780639daa80c91461069557610242565b80638456cb591461051d578063877b9a67146105275780638821e911146105575780638bbfdf41146105875780638c590917146105b757610242565b806347bc7093116101c95780635c975abb1161018d5780635c975abb14610475578063715018a61461049357806381a8c1961461049d57806382aefa24146104cd578063830e28f6146104eb57610242565b806347bc709314610397578063500ee4ed146103c757806357fd022e146103f75780635898dfa7146104275780635af36e3e1461044557610242565b8063248a9ca311610210578063248a9ca3146102f557806324d7806c146103255780632f2ff15d1461035557806336568abe146103715780633f4ba83a1461038d57610242565b8063175a3b411461024757806317e55614146102775780631d6fb3df1461029557806320694db0146102c557610242565b5b600080fd5b610261600480360381019061025c9190613daf565b61085f565b60405161026e9190614889565b60405180910390f35b61027f610a8e565b60405161028c91906148e2565b60405180910390f35b6102af60048036038101906102aa9190613a05565b610ab2565b6040516102bc9190614889565b60405180910390f35b6102df60048036038101906102da9190613a05565b610b77565b6040516102ec9190614889565b60405180910390f35b61030f600480360381019061030a9190613b23565b610c3d565b60405161031c91906148e2565b60405180910390f35b61033f600480360381019061033a9190613a05565b610c5d565b60405161034c9190614889565b60405180910390f35b61036f600480360381019061036a9190613b4c565b610c73565b005b61038b60048036038101906103869190613b4c565b610ce7565b005b610395610d6a565b005b6103b160048036038101906103ac9190613a05565b610ddd565b6040516103be9190614889565b60405180910390f35b6103e160048036038101906103dc9190613c81565b610ea2565b6040516103ee9190614889565b60405180910390f35b610411600480360381019061040c9190613c81565b6110a2565b60405161041e9190614889565b60405180910390f35b61042f6112a1565b60405161043c9190614ce0565b60405180910390f35b61045f600480360381019061045a9190613c45565b6112ad565b60405161046c9190614889565b60405180910390f35b61047d61167b565b60405161048a9190614889565b60405180910390f35b61049b611692565b005b6104b760048036038101906104b29190613e1b565b6117e5565b6040516104c49190614889565b60405180910390f35b6104d5611b14565b6040516104e291906148e2565b60405180910390f35b61050560048036038101906105009190613c45565b611b38565b60405161051493929190614852565b60405180910390f35b610525611ba9565b005b610541600480360381019061053c9190613a05565b611c1c565b60405161054e9190614889565b60405180910390f35b610571600480360381019061056c9190613bed565b611c4f565b60405161057e9190614889565b60405180910390f35b6105a1600480360381019061059c9190613a2e565b611f1c565b6040516105ae9190614889565b60405180910390f35b6105d160048036038101906105cc9190613c45565b6120dc565b6040516105de9190614889565b60405180910390f35b61060160048036038101906105fc9190613a05565b6123d9565b60405161060e9190614889565b60405180910390f35b61061f61249f565b60405161062c91906147bc565b60405180910390f35b61064f600480360381019061064a9190613b88565b6124c8565b60405161065c91906147bc565b60405180910390f35b61067f600480360381019061067a9190613b4c565b6124fa565b60405161068c9190614889565b60405180910390f35b6106af60048036038101906106aa9190613c45565b61252c565b6040516106bc91906147bc565b60405180910390f35b6106df60048036038101906106da9190613bc4565b6125ab565b6040516106f095949392919061491f565b60405180910390f35b61070161271e565b60405161070e91906148e2565b60405180910390f35b610731600480360381019061072c9190613cd0565b612725565b60405161073e9190614889565b60405180910390f35b610761600480360381019061075c9190613a05565b612923565b60405161076e9190614889565b60405180910390f35b610791600480360381019061078c9190613b23565b612956565b60405161079e9190614ce0565b60405180910390f35b6107c160048036038101906107bc9190613b4c565b61297d565b005b6107dd60048036038101906107d89190613e1b565b6129f1565b6040516107ea9190614889565b60405180910390f35b6107fb612d32565b60405161080891906148e2565b60405180910390f35b61082b60048036038101906108269190613c45565b612d56565b60405161083a939291906148a4565b60405180910390f35b61085d60048036038101906108589190613a05565b612e5f565b005b6000848460056000838152602001908152602001600020818154811061088157fe5b906000526020600020906002020160000160019054906101000a900473ffffffffffffffffffffffffffffffffffffffff1673ffffffffffffffffffffffffffffffffffffffff163373ffffffffffffffffffffffffffffffffffffffff1614610920576040517f08c379a000000000000000000000000000000000000000000000000000000000815260040161091790614c00565b60405180910390fd5b86866005600083815260200190815260200160002080549050811061094457600080fd5b88600080600181111561095357fe5b6004600084815260200190815260200160002060040160009054906101000a900460ff16600181111561098257fe5b1461098c57600080fd5b8a600460008281526020019081526020016000206003015442106109af57600080fd5b600260009054906101000a900460ff16156109ff576040517f08c379a00000000000000000000000000000000000000000000000000000000081526004016109f690614b00565b60405180910390fd5b8989600560008f81526020019081526020016000208d81548110610a1f57fe5b90600052602060002090600202016001019190610a3d9291906136fb565b507fe6bca0b1ae68aa3c3101325a30603b90848b1cb037d020c24548cc433db5e6618c8c8c8c604051610a739493929190614f2b565b60405180910390a16001975050505050505050949350505050565b7fba4a34719591b494dd7b56b69689f551c14401cdff7f863c87cd1a5ad166dd8181565b6000610abd33610c5d565b610afc576040517f08c379a0000000000000000000000000000000000000000000000000000000008152600401610af390614c20565b60405180910390fd5b610b0582612923565b610b44576040517f08c379a0000000000000000000000000000000000000000000000000000000008152600401610b3b90614b80565b60405180910390fd5b610b6e7fba4a34719591b494dd7b56b69689f551c14401cdff7f863c87cd1a5ad166dd818361297d565b60019050919050565b6000610b8233610c5d565b610bc1576040517f08c379a0000000000000000000000000000000000000000000000000000000008152600401610bb890614c20565b60405180910390fd5b610bca82611c1c565b15610c0a576040517f08c379a0000000000000000000000000000000000000000000000000000000008152600401610c0190614ac0565b60405180910390fd5b610c347f114e74f6ea3bd819998f78687bfcb11b140da08e9b7d222fa9c1f1ba1f2aa12283610c73565b60019050919050565b600060016000838152602001908152602001600020600201549050919050565b6000610c6c6000801b836124fa565b9050919050565b610c9a6001600084815260200190815260200160002060020154610c95613051565b6124fa565b610cd9576040517f08c379a0000000000000000000000000000000000000000000000000000000008152600401610cd0906149a0565b60405180910390fd5b610ce38282613059565b5050565b610cef613051565b73ffffffffffffffffffffffffffffffffffffffff168173ffffffffffffffffffffffffffffffffffffffff1614610d5c576040517f08c379a0000000000000000000000000000000000000000000000000000000008152600401610d5390614ca0565b60405180910390fd5b610d6682826130ed565b5050565b610d947f65d7a28e3265b37a6474929f336521b332c1681b933f6cb9f3376673440d862a336124fa565b610dd3576040517f08c379a0000000000000000000000000000000000000000000000000000000008152600401610dca90614a80565b60405180910390fd5b610ddb613181565b565b6000610de833610c5d565b610e27576040517f08c379a0000000000000000000000000000000000000000000000000000000008152600401610e1e90614c20565b60405180910390fd5b610e3082611c1c565b610e6f576040517f08c379a0000000000000000000000000000000000000000000000000000000008152600401610e6690614bc0565b60405180910390fd5b610e997f114e74f6ea3bd819998f78687bfcb11b140da08e9b7d222fa9c1f1ba1f2aa1228361297d565b60019050919050565b600083610eaf600361322b565b811115610ebb57600080fd5b84843373ffffffffffffffffffffffffffffffffffffffff16600460008481526020019081526020016000206000018281548110610ef557fe5b9060005260206000200160009054906101000a900473ffffffffffffffffffffffffffffffffffffffff1673ffffffffffffffffffffffffffffffffffffffff1614610f76576040517f08c379a0000000000000000000000000000000000000000000000000000000008152600401610f6d90614ba0565b60405180910390fd5b600260009054906101000a900460ff1615610fc6576040517f08c379a0000000000000000000000000000000000000000000000000000000008152600401610fbd90614b00565b60405180910390fd5b610feb85600760008a815260200190815260200160002061323990919063ffffffff16565b1561102b576040517f08c379a000000000000000000000000000000000000000000000000000000000815260040161102290614b20565b60405180910390fd5b61105085600760008a815260200190815260200160002061302190919063ffffffff16565b61105957600080fd5b7f9a26f88654348602276b6c5d65205402f7f55afe723b91a5b4238752203b673387878760405161108c93929190614e2a565b60405180910390a1600193505050509392505050565b6000836110af600361322b565b8111156110bb57600080fd5b84843373ffffffffffffffffffffffffffffffffffffffff166004600084815260200190815260200160002060000182815481106110f557fe5b9060005260206000200160009054906101000a900473ffffffffffffffffffffffffffffffffffffffff1673ffffffffffffffffffffffffffffffffffffffff1614611176576040517f08c379a000000000000000000000000000000000000000000000000000000000815260040161116d90614ba0565b60405180910390fd5b600260009054906101000a900460ff16156111c6576040517f08c379a00000000000000000000000000000000000000000000000000000000081526004016111bd90614b00565b60405180910390fd5b6111eb85600760008a815260200190815260200160002061323990919063ffffffff16565b61122a576040517f08c379a000000000000000000000000000000000000000000000000000000000815260040161122190614b40565b60405180910390fd5b61124f85600760008a815260200190815260200160002061326990919063ffffffff16565b61125857600080fd5b7ff131f15ee1067ee3b8ec8a23778a22aa6510084e2d869b1ab70a0f41c83afca887878760405161128b93929190614e2a565b60405180910390a1600193505050509392505050565b60038060000154905081565b6000826112ba600361322b565b8111156112c657600080fd5b83836006600083815260200190815260200160002081815481106112e657fe5b906000526020600020906003020160000160009054906101000a900473ffffffffffffffffffffffffffffffffffffffff1673ffffffffffffffffffffffffffffffffffffffff163373ffffffffffffffffffffffffffffffffffffffff1614611385576040517f08c379a000000000000000000000000000000000000000000000000000000000815260040161137c906149e0565b60405180910390fd5b8560018081111561139257fe5b6004600083815260200190815260200160002060040160009054906101000a900460ff1660018111156113c157fe5b14156113cc57600080fd5b86866006600083815260200190815260200160002081815481106113ec57fe5b906000526020600020906003020160020160009054906101000a900460ff161561141557600080fd5b600260009054906101000a900460ff1615611465576040517f08c379a000000000000000000000000000000000000000000000000000000000815260040161145c90614b00565b60405180910390fd5b600460008a81526020019081526020016000206003015442116114bd576040517f08c379a00000000000000000000000000000000000000000000000000000000081526004016114b490614c80565b60405180910390fd5b6000600660008b815260200190815260200160002089815481106114dd57fe5b9060005260206000209060030201905060018160020160006101000a81548160ff0219169083151502179055506115378160010154600460008d81526020019081526020016000206005015461329990919063ffffffff16565b600460008c8152602001908152602001600020600501819055507f000000000000000000000000000000000000000000000000000000000000000073ffffffffffffffffffffffffffffffffffffffff1663a9059cbb8260000160009054906101000a900473ffffffffffffffffffffffffffffffffffffffff1683600101546040518363ffffffff1660e01b81526004016115d4929190614829565b602060405180830381600087803b1580156115ee57600080fd5b505af1158015611602573d6000803e3d6000fd5b505050506040513d601f19601f820116820180604052508101906116269190613afa565b61162f57600080fd5b7f232bf2213879e79f5b2fa9cf07aad94aa0acac7b3c93bdfe74a545d47a1b02758a8a3360405161166293929190614e61565b60405180910390a1600197505050505050505092915050565b6000600260009054906101000a900460ff16905090565b61169a613051565b73ffffffffffffffffffffffffffffffffffffffff1660008054906101000a900473ffffffffffffffffffffffffffffffffffffffff1673ffffffffffffffffffffffffffffffffffffffff1614611727576040517f08c379a000000000000000000000000000000000000000000000000000000000815260040161171e90614b60565b60405180910390fd5b600073ffffffffffffffffffffffffffffffffffffffff1660008054906101000a900473ffffffffffffffffffffffffffffffffffffffff1673ffffffffffffffffffffffffffffffffffffffff167f8be0079c531659141344cd1fd0a4f28419497f9722a3daafe3b4186f6b6457e060405160405180910390a360008060006101000a81548173ffffffffffffffffffffffffffffffffffffffff021916908373ffffffffffffffffffffffffffffffffffffffff160217905550565b6000836117f2600361322b565b8111156117fe57600080fd5b84843373ffffffffffffffffffffffffffffffffffffffff1660046000848152602001908152602001600020600001828154811061183857fe5b9060005260206000200160009054906101000a900473ffffffffffffffffffffffffffffffffffffffff1673ffffffffffffffffffffffffffffffffffffffff16146118b9576040517f08c379a00000000000000000000000000000000000000000000000000000000081526004016118b090614ba0565b60405180910390fd5b600260009054906101000a900460ff1615611909576040517f08c379a000000000000000000000000000000000000000000000000000000000815260040161190090614b00565b60405180910390fd5b60046000888152602001908152602001600020600301544211611961576040517f08c379a000000000000000000000000000000000000000000000000000000000815260040161195890614c80565b60405180910390fd5b84600460008981526020019081526020016000206005015410156119ba576040517f08c379a00000000000000000000000000000000000000000000000000000000081526004016119b190614ae0565b60405180910390fd5b6119e385600460008a81526020019081526020016000206005015461329990919063ffffffff16565b60046000898152602001908152602001600020600501819055507f000000000000000000000000000000000000000000000000000000000000000073ffffffffffffffffffffffffffffffffffffffff1663a9059cbb33876040518363ffffffff1660e01b8152600401611a58929190614829565b602060405180830381600087803b158015611a7257600080fd5b505af1158015611a86573d6000803e3d6000fd5b505050506040513d601f19601f82011682018060405250810190611aaa9190613afa565b611ab357600080fd5b7f12d99578f2bae349d9d5bff270817d054c89353e0514b18de96ac3e9dccd98a1873387600460008c815260200190815260200160002060050154604051611afe9493929190614d77565b60405180910390a1600193505050509392505050565b7f114e74f6ea3bd819998f78687bfcb11b140da08e9b7d222fa9c1f1ba1f2aa12281565b60066020528160005260406000208181548110611b5157fe5b9060005260206000209060030201600091509150508060000160009054906101000a900473ffffffffffffffffffffffffffffffffffffffff16908060010154908060020160009054906101000a900460ff16905083565b611bd37f65d7a28e3265b37a6474929f336521b332c1681b933f6cb9f3376673440d862a336124fa565b611c12576040517f08c379a0000000000000000000000000000000000000000000000000000000008152600401611c0990614a60565b60405180910390fd5b611c1a6132e3565b565b6000611c487f114e74f6ea3bd819998f78687bfcb11b140da08e9b7d222fa9c1f1ba1f2aa122836124fa565b9050919050565b6000611c5a33612923565b611c99576040517f08c379a0000000000000000000000000000000000000000000000000000000008152600401611c9090614c60565b60405180910390fd5b83611ca4600361322b565b811115611cb057600080fd5b846000806001811115611cbf57fe5b6004600084815260200190815260200160002060040160009054906101000a900460ff166001811115611cee57fe5b14611cf857600080fd5b8660046000828152602001908152602001600020600301544210611d1b57600080fd5b600260009054906101000a900460ff1615611d6b576040517f08c379a0000000000000000000000000000000000000000000000000000000008152600401611d6290614b00565b60405180910390fd5b6005600089815260200190815260200160002060405180606001604052806000151581526020013373ffffffffffffffffffffffffffffffffffffffff16815260200189898080601f016020809104026020016040519081016040528093929190818152602001838380828437600081840152601f19601f82011690508083019250505050505050815250908060018154018082558091505060019003906000526020600020906002020160009091909190915060008201518160000160006101000a81548160ff02191690831515021790555060208201518160000160016101000a81548173ffffffffffffffffffffffffffffffffffffffff021916908373ffffffffffffffffffffffffffffffffffffffff1602179055506040820151816001019080519060200190611ea292919061377b565b5050507f717642190ff3c3b80033bde6625545e717eb9ac6240899ca3df1acb639d31e4d88611ef16001600560008d81526020019081526020016000208054905061329990919063ffffffff16565b338a8a604051611f05959493929190614e98565b60405180910390a160019450505050509392505050565b6000611f2733611c1c565b611f66576040517f08c379a0000000000000000000000000000000000000000000000000000000008152600401611f5d90614c40565b60405180910390fd5b8167ffffffffffffffff16428111611f7d57600080fd5b600260009054906101000a900460ff1615611fcd576040517f08c379a0000000000000000000000000000000000000000000000000000000008152600401611fc490614b00565b60405180910390fd5b6000611fd9600361322b565b905060006004600083815260200190815260200160002090508b8b8260000191906120059291906137fb565b5088888260010191906120199291906136fb565b50868682600201919061202d9291906136fb565b508467ffffffffffffffff16816003018190555060008160040160006101000a81548160ff0219169083600181111561206257fe5b0217905550612071828b61338e565b61207a57600080fd5b612084600361340d565b7f3633025fdc84ff4a86d813dc6cee157cd63afd90e019202acd12979222eeb188828d8d8c8c8c8c8c6040516120c1989796959493929190614dbc565b60405180910390a16001935050505098975050505050505050565b6000826120e9600361322b565b8111156120f557600080fd5b8260008111612139576040517f08c379a000000000000000000000000000000000000000000000000000000000815260040161213090614be0565b60405180910390fd5b600260009054906101000a900460ff1615612189576040517f08c379a000000000000000000000000000000000000000000000000000000000815260040161218090614b00565b60405180910390fd5b6006600086815260200190815260200160002060405180606001604052803373ffffffffffffffffffffffffffffffffffffffff16815260200186815260200160001515815250908060018154018082558091505060019003906000526020600020906003020160009091909190915060008201518160000160006101000a81548173ffffffffffffffffffffffffffffffffffffffff021916908373ffffffffffffffffffffffffffffffffffffffff1602179055506020820151816001015560408201518160020160006101000a81548160ff021916908315150217905550505061229584600460008881526020019081526020016000206005015461342390919063ffffffff16565b60046000878152602001908152602001600020600501819055507f000000000000000000000000000000000000000000000000000000000000000073ffffffffffffffffffffffffffffffffffffffff166323b872dd3330876040518463ffffffff1660e01b815260040161230c939291906147f2565b602060405180830381600087803b15801561232657600080fd5b505af115801561233a573d6000803e3d6000fd5b505050506040513d601f19601f8201168201806040525081019061235e9190613afa565b61236757600080fd5b7f7431e5e30247dcb2379eab9b0e60e49038c5ddb5cac27f27a17e950c0220a693856123b36001600660008a81526020019081526020016000208054905061329990919063ffffffff16565b33876040516123c59493929190614ee6565b60405180910390a160019250505092915050565b60006123e433610c5d565b612423576040517f08c379a000000000000000000000000000000000000000000000000000000000815260040161241a90614c20565b60405180910390fd5b61242c82612923565b1561246c576040517f08c379a000000000000000000000000000000000000000000000000000000000815260040161246390614cc0565b60405180910390fd5b6124967fba4a34719591b494dd7b56b69689f551c14401cdff7f863c87cd1a5ad166dd8183610c73565b60019050919050565b60008060009054906101000a900473ffffffffffffffffffffffffffffffffffffffff16905090565b60006124f2826001600086815260200190815260200160002060000161347890919063ffffffff16565b905092915050565b6000612524826001600086815260200190815260200160002060000161323990919063ffffffff16565b905092915050565b6000600260009054906101000a900460ff161561257e576040517f08c379a000000000000000000000000000000000000000000000000000000000815260040161257590614b00565b60405180910390fd5b6125a3826007600086815260200190815260200160002061347890919063ffffffff16565b905092915050565b6004602052806000526040600020600091509050806001018054600181600116156101000203166002900480601f0160208091040260200160405190810160405280929190818152602001828054600181600116156101000203166002900480156126575780601f1061262c57610100808354040283529160200191612657565b820191906000526020600020905b81548152906001019060200180831161263a57829003601f168201915b505050505090806002018054600181600116156101000203166002900480601f0160208091040260200160405190810160405280929190818152602001828054600181600116156101000203166002900480156126f55780601f106126ca576101008083540402835291602001916126f5565b820191906000526020600020905b8154815290600101906020018083116126d857829003601f168201915b5050505050908060030154908060040160009054906101000a900460ff16908060050154905085565b6000801b81565b600089893373ffffffffffffffffffffffffffffffffffffffff1660046000848152602001908152602001600020600001828154811061276157fe5b9060005260206000200160009054906101000a900473ffffffffffffffffffffffffffffffffffffffff1673ffffffffffffffffffffffffffffffffffffffff16146127e2576040517f08c379a00000000000000000000000000000000000000000000000000000000081526004016127d990614ba0565b60405180910390fd5b600260009054906101000a900460ff1615612832576040517f08c379a000000000000000000000000000000000000000000000000000000000815260040161282990614b00565b60405180910390fd5b8989600460008f815260200190815260200160002060000191906128579291906137fb565b508787600460008f8152602001908152602001600020600101919061287d9291906136fb565b508585600460008f815260200190815260200160002060020191906128a39291906136fb565b508367ffffffffffffffff16600460008e8152602001908152602001600020600301819055507f860a2840e5106755e22fb73c6c18e2e3b75e936826b89667a4b25f7efa1281a88c338c8c8c8c8c8c8c60405161290899989796959493929190614cfb565b60405180910390a16001925050509998505050505050505050565b600061294f7fba4a34719591b494dd7b56b69689f551c14401cdff7f863c87cd1a5ad166dd81836124fa565b9050919050565b600061297660016000848152602001908152602001600020600001613492565b9050919050565b6129a4600160008481526020019081526020016000206002015461299f613051565b6124fa565b6129e3576040517f08c379a00000000000000000000000000000000000000000000000000000000081526004016129da90614aa0565b60405180910390fd5b6129ed82826130ed565b5050565b600083612a19336007600084815260200190815260200160002061323990919063ffffffff16565b612a58576040517f08c379a0000000000000000000000000000000000000000000000000000000008152600401612a4f90614a20565b60405180910390fd5b848460056000838152602001908152602001600020805490508110612a7c57600080fd5b866000806001811115612a8b57fe5b6004600084815260200190815260200160002060040160009054906101000a900460ff166001811115612aba57fe5b14612ac457600080fd5b888860001515600560008481526020019081526020016000208281548110612ae857fe5b906000526020600020906002020160000160009054906101000a900460ff16151514612b1357600080fd5b600260009054906101000a900460ff1615612b63576040517f08c379a0000000000000000000000000000000000000000000000000000000008152600401612b5a90614b00565b60405180910390fd5b6001600460008d815260200190815260200160002060040160006101000a81548160ff02191690836001811115612b9657fe5b0217905550612bc489600460008e81526020019081526020016000206005015461329990919063ffffffff16565b600460008d8152602001908152602001600020600501819055507f000000000000000000000000000000000000000000000000000000000000000073ffffffffffffffffffffffffffffffffffffffff1663a9059cbb600560008e81526020019081526020016000208c81548110612c3857fe5b906000526020600020906002020160000160019054906101000a900473ffffffffffffffffffffffffffffffffffffffff168b6040518363ffffffff1660e01b8152600401612c88929190614829565b602060405180830381600087803b158015612ca257600080fd5b505af1158015612cb6573d6000803e3d6000fd5b505050506040513d601f19601f82011682018060405250810190612cda9190613afa565b612ce357600080fd5b7fec39070d6fba3e2a781786a9c5af30188995dfc9a8ea302552f122c118a3ae938b8b338c604051612d189493929190614ee6565b60405180910390a160019750505050505050509392505050565b7f65d7a28e3265b37a6474929f336521b332c1681b933f6cb9f3376673440d862a81565b60056020528160005260406000208181548110612d6f57fe5b9060005260206000209060020201600091509150508060000160009054906101000a900460ff16908060000160019054906101000a900473ffffffffffffffffffffffffffffffffffffffff1690806001018054600181600116156101000203166002900480601f016020809104026020016040519081016040528092919081815260200182805460018160011615610100020316600290048015612e555780601f10612e2a57610100808354040283529160200191612e55565b820191906000526020600020905b815481529060010190602001808311612e3857829003601f168201915b5050505050905083565b612e67613051565b73ffffffffffffffffffffffffffffffffffffffff1660008054906101000a900473ffffffffffffffffffffffffffffffffffffffff1673ffffffffffffffffffffffffffffffffffffffff1614612ef4576040517f08c379a0000000000000000000000000000000000000000000000000000000008152600401612eeb90614b60565b60405180910390fd5b600073ffffffffffffffffffffffffffffffffffffffff168173ffffffffffffffffffffffffffffffffffffffff161415612f64576040517f08c379a0000000000000000000000000000000000000000000000000000000008152600401612f5b90614a00565b60405180910390fd5b8073ffffffffffffffffffffffffffffffffffffffff1660008054906101000a900473ffffffffffffffffffffffffffffffffffffffff1673ffffffffffffffffffffffffffffffffffffffff167f8be0079c531659141344cd1fd0a4f28419497f9722a3daafe3b4186f6b6457e060405160405180910390a3806000806101000a81548173ffffffffffffffffffffffffffffffffffffffff021916908373ffffffffffffffffffffffffffffffffffffffff16021790555050565b6000613049836000018373ffffffffffffffffffffffffffffffffffffffff1660001b6134a7565b905092915050565b600033905090565b613081816001600085815260200190815260200160002060000161302190919063ffffffff16565b156130e95761308e613051565b73ffffffffffffffffffffffffffffffffffffffff168173ffffffffffffffffffffffffffffffffffffffff16837f2f8788117e7eff1d82e926ec794901d17c78024a50270940304540a733656f0d60405160405180910390a45b5050565b613115816001600085815260200190815260200160002060000161326990919063ffffffff16565b1561317d57613122613051565b73ffffffffffffffffffffffffffffffffffffffff168173ffffffffffffffffffffffffffffffffffffffff16837ff6391f5c32d9c69d2a47ea670b442974b53935d1edc7fd64eb21e047a839171b60405160405180910390a45b5050565b600260009054906101000a900460ff166131d0576040517f08c379a00000000000000000000000000000000000000000000000000000000081526004016131c7906149c0565b60405180910390fd5b6000600260006101000a81548160ff0219169083151502179055507f5db9ee0a495bf2e6ff9c91a7834c1ba4fdd244a5e8aa4e537bd38aeae4b073aa613214613051565b60405161322191906147d7565b60405180910390a1565b600081600001549050919050565b6000613261836000018373ffffffffffffffffffffffffffffffffffffffff1660001b613517565b905092915050565b6000613291836000018373ffffffffffffffffffffffffffffffffffffffff1660001b61353a565b905092915050565b60006132db83836040518060400160405280601e81526020017f536166654d6174683a207375627472616374696f6e206f766572666c6f770000815250613622565b905092915050565b600260009054906101000a900460ff1615613333576040517f08c379a000000000000000000000000000000000000000000000000000000000815260040161332a90614b00565b60405180910390fd5b6001600260006101000a81548160ff0219169083151502179055507f62e78cea01bee320cd4e420270b5ea74000d11b0c9f74754ebdbfc544b05a258613377613051565b60405161338491906147d7565b60405180910390a1565b6000600260009054906101000a900460ff16156133e0576040517f08c379a00000000000000000000000000000000000000000000000000000000081526004016133d790614b00565b60405180910390fd5b613405826007600086815260200190815260200160002061302190919063ffffffff16565b905092915050565b6001816000016000828254019250508190555050565b60008082840190508381101561346e576040517f08c379a000000000000000000000000000000000000000000000000000000000815260040161346590614a40565b60405180910390fd5b8091505092915050565b6000613487836000018361367d565b60001c905092915050565b60006134a0826000016136ea565b9050919050565b60006134b38383613517565b61350c578260000182908060018154018082558091505060019003906000526020600020016000909190919091505582600001805490508360010160008481526020019081526020016000208190555060019050613511565b600090505b92915050565b600080836001016000848152602001908152602001600020541415905092915050565b60008083600101600084815260200190815260200160002054905060008114613616576000600182039050600060018660000180549050039050600086600001828154811061358557fe5b90600052602060002001549050808760000184815481106135a257fe5b90600052602060002001819055506001830187600101600083815260200190815260200160002081905550866000018054806135da57fe5b6001900381819060005260206000200160009055905586600101600087815260200190815260200160002060009055600194505050505061361c565b60009150505b92915050565b600083831115829061366a576040517f08c379a000000000000000000000000000000000000000000000000000000000815260040161366191906148fd565b60405180910390fd5b5060008385039050809150509392505050565b6000818360000180549050116136c8576040517f08c379a00000000000000000000000000000000000000000000000000000000081526004016136bf90614980565b60405180910390fd5b8260000182815481106136d757fe5b9060005260206000200154905092915050565b600081600001805490509050919050565b828054600181600116156101000203166002900490600052602060002090601f016020900481019282601f1061373c57803560ff191683800117855561376a565b8280016001018555821561376a579182015b8281111561376957823582559160200191906001019061374e565b5b509050613777919061389b565b5090565b828054600181600116156101000203166002900490600052602060002090601f016020900481019282601f106137bc57805160ff19168380011785556137ea565b828001600101855582156137ea579182015b828111156137e95782518255916020019190600101906137ce565b5b5090506137f7919061389b565b5090565b82805482825590600052602060002090810192821561388a579160200282015b8281111561388957823573ffffffffffffffffffffffffffffffffffffffff168260006101000a81548173ffffffffffffffffffffffffffffffffffffffff021916908373ffffffffffffffffffffffffffffffffffffffff1602179055509160200191906001019061381b565b5b50905061389791906138b8565b5090565b5b808211156138b457600081600090555060010161389c565b5090565b5b808211156138ef57600081816101000a81549073ffffffffffffffffffffffffffffffffffffffff0219169055506001016138b9565b5090565b600081359050613902816150f9565b92915050565b60008135905061391781615110565b92915050565b60008083601f84011261392f57600080fd5b8235905067ffffffffffffffff81111561394857600080fd5b60208301915083602082028301111561396057600080fd5b9250929050565b60008151905061397681615127565b92915050565b60008135905061398b8161513e565b92915050565b60008083601f8401126139a357600080fd5b8235905067ffffffffffffffff8111156139bc57600080fd5b6020830191508360018202830111156139d457600080fd5b9250929050565b6000813590506139ea81615155565b92915050565b6000813590506139ff8161516c565b92915050565b600060208284031215613a1757600080fd5b6000613a25848285016138f3565b91505092915050565b60008060008060008060008060a0898b031215613a4a57600080fd5b600089013567ffffffffffffffff811115613a6457600080fd5b613a708b828c0161391d565b98509850506020613a838b828c016138f3565b965050604089013567ffffffffffffffff811115613aa057600080fd5b613aac8b828c01613991565b9550955050606089013567ffffffffffffffff811115613acb57600080fd5b613ad78b828c01613991565b93509350506080613aea8b828c016139f0565b9150509295985092959890939650565b600060208284031215613b0c57600080fd5b6000613b1a84828501613967565b91505092915050565b600060208284031215613b3557600080fd5b6000613b438482850161397c565b91505092915050565b60008060408385031215613b5f57600080fd5b6000613b6d8582860161397c565b9250506020613b7e858286016138f3565b9150509250929050565b60008060408385031215613b9b57600080fd5b6000613ba98582860161397c565b9250506020613bba858286016139db565b9150509250929050565b600060208284031215613bd657600080fd5b6000613be4848285016139db565b91505092915050565b600080600060408486031215613c0257600080fd5b6000613c10868287016139db565b935050602084013567ffffffffffffffff811115613c2d57600080fd5b613c3986828701613991565b92509250509250925092565b60008060408385031215613c5857600080fd5b6000613c66858286016139db565b9250506020613c77858286016139db565b9150509250929050565b600080600060608486031215613c9657600080fd5b6000613ca4868287016139db565b9350506020613cb5868287016139db565b9250506040613cc6868287016138f3565b9150509250925092565b600080600080600080600080600060c08a8c031215613cee57600080fd5b6000613cfc8c828d016139db565b9950506020613d0d8c828d016139db565b98505060408a013567ffffffffffffffff811115613d2a57600080fd5b613d368c828d0161391d565b975097505060608a013567ffffffffffffffff811115613d5557600080fd5b613d618c828d01613991565b955095505060808a013567ffffffffffffffff811115613d8057600080fd5b613d8c8c828d01613991565b935093505060a0613d9f8c828d016139f0565b9150509295985092959850929598565b60008060008060608587031215613dc557600080fd5b6000613dd3878288016139db565b9450506020613de4878288016139db565b935050604085013567ffffffffffffffff811115613e0157600080fd5b613e0d87828801613991565b925092505092959194509250565b600080600060608486031215613e3057600080fd5b6000613e3e868287016139db565b9350506020613e4f868287016139db565b9250506040613e60868287016139db565b9150509250925092565b6000613e768383613e91565b60208301905092915050565b613e8b81615051565b82525050565b613e9a81614fd8565b82525050565b613ea981614fd8565b82525050565b613eb881614fc6565b82525050565b6000613eca8385614f8d565b9350613ed582614f6b565b8060005b85811015613f0e57613eeb8284614faf565b613ef58882613e6a565b9750613f0083614f80565b925050600181019050613ed9565b5085925050509392505050565b613f2481614fea565b82525050565b613f3381614ff6565b82525050565b613f4281615063565b82525050565b6000613f548385614f9e565b9350613f61838584615099565b613f6a836150db565b840190509392505050565b6000613f8082614f75565b613f8a8185614f9e565b9350613f9a8185602086016150a8565b613fa3816150db565b840191505092915050565b6000613fbb602283614f9e565b91507f456e756d657261626c655365743a20696e646578206f7574206f6620626f756e60008301527f64730000000000000000000000000000000000000000000000000000000000006020830152604082019050919050565b6000614021602f83614f9e565b91507f416363657373436f6e74726f6c3a2073656e646572206d75737420626520616e60008301527f2061646d696e20746f206772616e7400000000000000000000000000000000006020830152604082019050919050565b6000614087601483614f9e565b91507f5061757361626c653a206e6f74207061757365640000000000000000000000006000830152602082019050919050565b60006140c7601b83614f9e565b91507f43616c6c6572206973206e6f74206120436f6e7472696275746f7200000000006000830152602082019050919050565b6000614107602683614f9e565b91507f4f776e61626c653a206e6577206f776e657220697320746865207a65726f206160008301527f64647265737300000000000000000000000000000000000000000000000000006020830152604082019050919050565b600061416d601a83614f9e565b91507f43616c6c6572206973206e6f742074686520617070726f7665720000000000006000830152602082019050919050565b60006141ad601b83614f9e565b91507f536166654d6174683a206164646974696f6e206f766572666c6f7700000000006000830152602082019050919050565b60006141ed602a83614f9e565b91507f416e74735265766965773a206d75737420686176652070617573657220726f6c60008301527f6520746f207061757365000000000000000000000000000000000000000000006020830152604082019050919050565b6000614253602c83614f9e565b91507f416e74735265766965773a206d75737420686176652070617573657220726f6c60008301527f6520746f20756e706175736500000000000000000000000000000000000000006020830152604082019050919050565b60006142b9603083614f9e565b91507f416363657373436f6e74726f6c3a2073656e646572206d75737420626520616e60008301527f2061646d696e20746f207265766f6b65000000000000000000000000000000006020830152604082019050919050565b600061431f601c83614f9e565b91507f4163636f756e7420697320616c726561647920616e20697373756572000000006000830152602082019050919050565b600061435f601f83614f9e565b91507f416d6f756e742065786365656420416e745265766965772062616c616e6365006000830152602082019050919050565b600061439f601083614f9e565b91507f5061757361626c653a20706175736564000000000000000000000000000000006000830152602082019050919050565b60006143df601e83614f9e565b91507f4163636f756e7420697320616c726561647920616e20617070726f76657200006000830152602082019050919050565b600061441f601a83614f9e565b91507f4163636f756e74206973206e6f7420616e20617070726f7665720000000000006000830152602082019050919050565b600061445f602083614f9e565b91507f4f776e61626c653a2063616c6c6572206973206e6f7420746865206f776e65726000830152602082019050919050565b600061449f601e83614f9e565b91507f4163636f756e74206973206e6f74206120706565722d726576696577657200006000830152602082019050919050565b60006144df601883614f9e565b91507f43616c6c6572206973206e6f74207468652069737375657200000000000000006000830152602082019050919050565b600061451f601883614f9e565b91507f4163636f756e74206973206e6f7420616e2069737375657200000000000000006000830152602082019050919050565b600061455f601383614f9e565b91507f496e73756666696369656e7420616d6f756e74000000000000000000000000006000830152602082019050919050565b600061459f601b83614f9e565b91507f43616c6c6572206973206e6f7420746865207375626d697474657200000000006000830152602082019050919050565b60006145df601683614f9e565b91507f43616c6c6572206973206e6f7420616e2061646d696e000000000000000000006000830152602082019050919050565b600061461f601783614f9e565b91507f43616c6c6572206973206e6f7420616e206973737565720000000000000000006000830152602082019050919050565b600061465f601d83614f9e565b91507f43616c6c6572206973206e6f74206120706565722d72657669657765720000006000830152602082019050919050565b600061469f601883614f9e565b91507f446561646c696e6520686173206e6f7420656c617073656400000000000000006000830152602082019050919050565b60006146df602f83614f9e565b91507f416363657373436f6e74726f6c3a2063616e206f6e6c792072656e6f756e636560008301527f20726f6c657320666f722073656c6600000000000000000000000000000000006020830152604082019050919050565b6000614745602283614f9e565b91507f4163636f756e7420697320616c7265616479206120706565722d72657669657760008301527f65720000000000000000000000000000000000000000000000000000000000006020830152604082019050919050565b6147a781615033565b82525050565b6147b68161503d565b82525050565b60006020820190506147d16000830184613eaf565b92915050565b60006020820190506147ec6000830184613e82565b92915050565b60006060820190506148076000830186613e82565b6148146020830185613eaf565b614821604083018461479e565b949350505050565b600060408201905061483e6000830185613e82565b61484b602083018461479e565b9392505050565b60006060820190506148676000830186613ea0565b614874602083018561479e565b6148816040830184613f1b565b949350505050565b600060208201905061489e6000830184613f1b565b92915050565b60006060820190506148b96000830186613f1b565b6148c66020830185613ea0565b81810360408301526148d88184613f75565b9050949350505050565b60006020820190506148f76000830184613f2a565b92915050565b600060208201905081810360008301526149178184613f75565b905092915050565b600060a08201905081810360008301526149398188613f75565b9050818103602083015261494d8187613f75565b905061495c604083018661479e565b6149696060830185613f39565b614976608083018461479e565b9695505050505050565b6000602082019050818103600083015261499981613fae565b9050919050565b600060208201905081810360008301526149b981614014565b9050919050565b600060208201905081810360008301526149d98161407a565b9050919050565b600060208201905081810360008301526149f9816140ba565b9050919050565b60006020820190508181036000830152614a19816140fa565b9050919050565b60006020820190508181036000830152614a3981614160565b9050919050565b60006020820190508181036000830152614a59816141a0565b9050919050565b60006020820190508181036000830152614a79816141e0565b9050919050565b60006020820190508181036000830152614a9981614246565b9050919050565b60006020820190508181036000830152614ab9816142ac565b9050919050565b60006020820190508181036000830152614ad981614312565b9050919050565b60006020820190508181036000830152614af981614352565b9050919050565b60006020820190508181036000830152614b1981614392565b9050919050565b60006020820190508181036000830152614b39816143d2565b9050919050565b60006020820190508181036000830152614b5981614412565b9050919050565b60006020820190508181036000830152614b7981614452565b9050919050565b60006020820190508181036000830152614b9981614492565b9050919050565b60006020820190508181036000830152614bb9816144d2565b9050919050565b60006020820190508181036000830152614bd981614512565b9050919050565b60006020820190508181036000830152614bf981614552565b9050919050565b60006020820190508181036000830152614c1981614592565b9050919050565b60006020820190508181036000830152614c39816145d2565b9050919050565b60006020820190508181036000830152614c5981614612565b9050919050565b60006020820190508181036000830152614c7981614652565b9050919050565b60006020820190508181036000830152614c9981614692565b9050919050565b60006020820190508181036000830152614cb9816146d2565b9050919050565b60006020820190508181036000830152614cd981614738565b9050919050565b6000602082019050614cf5600083018461479e565b92915050565b600060c082019050614d10600083018c61479e565b614d1d602083018b613e82565b8181036040830152614d3081898b613ebe565b90508181036060830152614d45818789613f48565b90508181036080830152614d5a818587613f48565b9050614d6960a08301846147ad565b9a9950505050505050505050565b6000608082019050614d8c600083018761479e565b614d996020830186613e82565b614da6604083018561479e565b614db3606083018461479e565b95945050505050565b600060a082019050614dd1600083018b61479e565b8181036020830152614de481898b613ebe565b90508181036040830152614df9818789613f48565b90508181036060830152614e0e818587613f48565b9050614e1d60808301846147ad565b9998505050505050505050565b6000606082019050614e3f600083018661479e565b614e4c602083018561479e565b614e596040830184613eaf565b949350505050565b6000606082019050614e76600083018661479e565b614e83602083018561479e565b614e906040830184613e82565b949350505050565b6000608082019050614ead600083018861479e565b614eba602083018761479e565b614ec76040830186613e82565b8181036060830152614eda818486613f48565b90509695505050505050565b6000608082019050614efb600083018761479e565b614f08602083018661479e565b614f156040830185613e82565b614f22606083018461479e565b95945050505050565b6000606082019050614f40600083018761479e565b614f4d602083018661479e565b8181036040830152614f60818486613f48565b905095945050505050565b6000819050919050565b600081519050919050565b6000602082019050919050565b600082825260208201905092915050565b600082825260208201905092915050565b6000614fbe6020840184613908565b905092915050565b6000614fd182615013565b9050919050565b6000614fe382615013565b9050919050565b60008115159050919050565b6000819050919050565b600081905061500e826150ec565b919050565b600073ffffffffffffffffffffffffffffffffffffffff82169050919050565b6000819050919050565b600067ffffffffffffffff82169050919050565b600061505c82615075565b9050919050565b600061506e82615000565b9050919050565b600061508082615087565b9050919050565b600061509282615013565b9050919050565b82818337600083830152505050565b60005b838110156150c65780820151818401526020810190506150ab565b838111156150d5576000848401525b50505050565b6000601f19601f8301169050919050565b600281106150f657fe5b50565b61510281614fc6565b811461510d57600080fd5b50565b61511981614fd8565b811461512457600080fd5b50565b61513081614fea565b811461513b57600080fd5b50565b61514781614ff6565b811461515257600080fd5b50565b61515e81615033565b811461516957600080fd5b50565b6151758161503d565b811461518057600080fd5b5056fea26469706673582212202f084dd25301d376383660c332d418612b58dc1074c98dae18b215b8847cbf7b64736f6c634300060c0033",
  "immutableReferences": {
    "430": [
      {
        "length": 32,
        "start": 5459
      },
      {
        "length": 32,
        "start": 6655
      },
      {
        "length": 32,
        "start": 8881
      },
      {
        "length": 32,
        "start": 11232
      }
    ]
  },
  "source": "/// SPDX-License-Identifier: GPL-3.0\npragma solidity 0.6.12;\npragma experimental ABIEncoderV2;\n\n/// @title Ants-Review\n/// @author Nazzareno Massari @naszam\n/// @notice AntsReview to allows issuer to issue an antReview which peer-reviewers can fulfill\n/// @dev All function calls are currently implemented without side effects through TDD approach\n/// @dev OpenZeppelin library is used for secure contract development\n\n/**\n\n                   \n               \n                \n           \n                   \n\n**/\n\n\nimport \"./AntsReviewRoles.sol\";\nimport \"@openzeppelin/contracts/math/SafeMath.sol\";\nimport \"@openzeppelin/contracts/utils/Address.sol\";\nimport \"@openzeppelin/contracts/utils/Counters.sol\";\nimport \"@openzeppelin/contracts/utils/EnumerableSet.sol\";\n\n\n\ninterface AntsToken {\n  function transfer(address recipient, uint amount) external returns (bool);\n  function transferFrom(address sender, address recipient, uint amount) external returns (bool);\n  function balanceOf(address account) external view returns (uint);\n}\n\ncontract AntsReview is AntsReviewRoles {\n\n  using SafeMath for uint256;\n  using Address for address payable;\n  using Counters for Counters.Counter;\n  using EnumerableSet for EnumerableSet.AddressSet;\n\n\n  /// @dev Enums\n  enum AntReviewStatus { CREATED, PAID}\n\n  /// @dev Token\n  AntsToken internal immutable ants;\n\n  /// @dev Counter\n  Counters.Counter public antReviewIdTracker;\n\n  /// @dev Storage\n  mapping (uint256 => AntReview) public antreviews;\n  mapping (uint256 => Peer_Review[]) public peer_reviews;\n  mapping (uint256 => Contribution[]) public contributions;\n\n  mapping (uint256 => EnumerableSet.AddressSet) private approvers;\n\n\n  /// @dev Structs\n  struct AntReview {\n      address payable[] issuers;\n      string paperHash;\n      string requirementsHash;\n      uint256 deadline;\n      AntReviewStatus status;\n      uint256 balance;\n  }\n\n  struct Peer_Review {\n      bool accepted;\n      address payable peer_reviewer;\n      string reviewHash;\n  }\n\n  struct Contribution {\n    address payable contributor;\n    uint amount;\n    bool refunded;\n  }\n\n\n  /// @dev Events\n\n  event AntReviewIssued(uint antId, address payable[] issuers, string paperHash, string requirementsHash, uint64 deadline);\n  event ContributionAdded(uint antId, uint contributionId, address contributor, uint amount);\n  event ContributionRefunded(uint antId, uint contributionId, address contributor);\n  event AntReviewFulfilled(uint antId, uint reviewId, address peer_reviewer, string reviewHash);\n  event ReviewUpdated(uint antId, uint reviewId, string reviewHash);\n  event AntReviewAccepted(uint antId, uint reviewId, address approver, uint amount);\n  event AntReviewChanged(uint antId, address issuer, address payable[] issuers, string paperHash, string requirementsHash, uint64 deadline);\n  event ApproverAdded(uint antId, uint issuerId, address approver);\n  event ApproverRemoved(uint antId, uint issuerId, address approver);\n  event AntReviewWithdrawn(uint antId, address issuer, uint amount, uint balance);\n\n  constructor(address ants_) public {\n    ants = AntsToken(ants_);\n  }\n\n  /// @dev Fallback\n\n  fallback() external {\n    revert();\n  }\n\n\n  /// @dev Modifiers\n\n  modifier antReviewExists(uint256 _antId){\n    require(_antId <= antReviewIdTracker.current());\n    _;\n  }\n\n  modifier reviewExists(uint256 _antId, uint256 _reviewId){\n    require(_reviewId < peer_reviews[_antId].length);\n    _;\n  }\n\n  modifier hasStatus(uint256 _antId, AntReviewStatus _desiredStatus) {\n    require(antreviews[_antId].status == _desiredStatus);\n    _;\n  }\n\n  modifier peerReviewNotYetAccepted(uint256 _antId, uint256 _reviewId) {\n    require(peer_reviews[_antId][_reviewId].accepted == false);\n    _;\n  }\n\n  modifier validateDeadline(uint256 _deadline) {\n      require(_deadline > now);\n      _;\n  }\n\n  modifier isBeforeDeadline(uint256 _antId) {\n    require(now < antreviews[_antId].deadline);\n    _;\n  }\n\n  modifier validAmount(uint256 _amount) {\n    require(_amount > 0, \"Insufficient amount\");\n    _;\n  }\n\n  modifier onlyContributor(uint _antId, uint _contributionId) {\n    require(msg.sender == contributions[_antId][_contributionId].contributor, \"Caller is not a Contributor\");\n    _;\n  }\n\n  modifier hasNotPaid(uint _antId)\n  {\n    require(antreviews[_antId].status != AntReviewStatus.PAID);\n    _;\n  }\n\n  modifier hasNotRefunded(uint _antId, uint _contributionId)\n  {\n    require(!contributions[_antId][_contributionId].refunded);\n    _;\n  }\n\n  modifier onlySubmitter(uint _antId, uint _reviewId)\n  {\n    require(msg.sender == peer_reviews[_antId][_reviewId].peer_reviewer, \"Caller is not the submitter\");\n    _;\n  }\n\n  modifier onlyApprover(uint _antId)\n  {\n    require(approvers[_antId].contains(msg.sender), \"Caller is not the approver\");\n    _;\n  }\n\n  modifier hasIssuer(uint _antId, uint _issuerId)\n  {\n    require(antreviews[_antId].issuers[_issuerId] == msg.sender, \"Caller is not the issuer\");\n    _;\n  }\n\n  /// @dev Getters\n\n  function getApprover(uint _antId, uint _approverId) external view whenNotPaused returns (address approver) {\n    return approvers[_antId].at(_approverId);\n  }\n\n\n  /// @notice Create a new AntReview\n  /// @dev Access restricted to Issuer\n  /// @param _issuers The issuers of the AntReview\n  /// @param _approver The approver of the AntReview\n  /// @param _paperHash The IPFS Hash of the Scientific Paper\n  /// @param _requirementsHash The IPFS Hash of the Peer-Review Requirements\n  /// @param _deadline The unix timestamp after which fulfillments will no longer be accepted\n  /// @return True If the AntReview is successfully issued\n  function issueAntReview(\n      address payable[] calldata _issuers,\n      address _approver,\n      string calldata _paperHash,\n      string calldata _requirementsHash,\n      uint64 _deadline)\n      external\n      onlyIssuer()\n      validateDeadline(_deadline)\n      whenNotPaused()\n      returns (bool)\n  {\n      uint antId = antReviewIdTracker.current();\n\n      AntReview storage newAntReview = antreviews[antId];\n\n      newAntReview.issuers = _issuers;\n      newAntReview.paperHash = _paperHash;\n      newAntReview.requirementsHash = _requirementsHash;\n      newAntReview.deadline = _deadline;\n      newAntReview.status = AntReviewStatus.CREATED;\n\n      require(_addApprover(antId, _approver));\n\n      antReviewIdTracker.increment();\n\n      emit AntReviewIssued(antId, _issuers, _paperHash, _requirementsHash, _deadline);\n\n      return true;\n  }\n\n  /// @notice Change an AntReview\n  /// @dev Access restricted to Issuer\n  /// @param _antId The AntReview Id\n  /// @param _issuerId The Issuer Id\n  /// @param _issuers The issuers of the AntReview\n  /// @param _paperHash The IPFS Hash of the Scientific Paper\n  /// @param _requirementsHash The IPFS Hash of the Peer-Review Requirements\n  /// @param _deadline The unix timestamp after which fulfillments will no longer be accepted\n  /// @return True If the AntReview is successfully changed\n  function changeAntReview(\n      uint _antId,\n      uint _issuerId,\n      address payable[] calldata _issuers,\n      string calldata _paperHash,\n      string calldata _requirementsHash,\n      uint64 _deadline)\n      external\n      hasIssuer(_antId, _issuerId)\n      whenNotPaused()\n      returns (bool)\n  {\n    antreviews[_antId].issuers = _issuers;\n    antreviews[_antId].paperHash = _paperHash;\n    antreviews[_antId].requirementsHash = _requirementsHash;\n    antreviews[_antId].deadline = _deadline;\n\n    emit AntReviewChanged(_antId, msg.sender, _issuers, _paperHash, _requirementsHash, _deadline);\n    return true;\n  }\n\n  /// @notice Add Approver\n  /// @dev Internal function used in issueAntReview()\n  /// @param _antId The AntReview Id\n  /// @param _account The account to be added as Approver\n  /// @return True if the account is successfully added as Approver\n  function _addApprover(uint _antId, address _account) private whenNotPaused returns (bool) {\n    return approvers[_antId].add(_account);\n  }\n\n  /// @notice Add Approver\n  /// @dev Access restricted to Issuers\n  /// @param _antId The AntReview Id\n  /// @param _issuerId The Issuer Id\n  /// @param _account The account to be added as Approver\n  /// @return True if the account is successfully added as Approver\n  function addApprover(uint _antId, uint _issuerId, address _account)\n      external\n      antReviewExists(_antId)\n      hasIssuer(_antId, _issuerId)\n      whenNotPaused()\n      returns (bool)\n  {\n    require(!approvers[_antId].contains(_account), \"Account is already an approver\");\n    require(approvers[_antId].add(_account));\n    emit ApproverAdded(_antId, _issuerId, _account);\n    return true;\n  }\n\n  /// @notice Remove Approver\n  /// @dev Access restricted to Issuers\n  /// @param _antId The AntReview Id\n  /// @param _issuerId The Issuer Id\n  /// @param _account The account to be removed as Approver\n  /// @return True if the account is successfully removed as Approver\n  function removeApprover(uint _antId, uint _issuerId, address _account)\n      external\n      antReviewExists(_antId)\n      hasIssuer(_antId, _issuerId)\n      whenNotPaused()\n      returns (bool)\n  {\n    require(approvers[_antId].contains(_account), \"Account is not an approver\");\n    require(approvers[_antId].remove(_account));\n    emit ApproverRemoved(_antId, _issuerId, _account);\n    return true;\n  }\n\n  /// @notice Contribute to an AntReview\n  /// @dev Linked to ANTS token\n  /// @param _antId The AntReview Id\n  /// @param _amount The Contribution amount\n  /// @return True if the account is the contribution is successfully added\n  function contribute(uint _antId, uint _amount)\n    external\n    antReviewExists(_antId)\n    validAmount(_amount)\n    whenNotPaused()\n    returns (bool)\n  {\n    contributions[_antId].push(Contribution(msg.sender, _amount, false));\n    antreviews[_antId].balance = antreviews[_antId].balance.add(_amount);\n\n    require(ants.transferFrom(msg.sender, address(this), _amount));\n\n    emit ContributionAdded(_antId, contributions[_antId].length.sub(1), msg.sender, _amount);\n\n    return true;\n  }\n\n  /// @notice Refund Contributors\n  /// @dev Access restricted to Contributor\n  /// @param _antId The AntReview Id\n  /// @param _contributionId The Contribution Id\n  /// @return True if the contribution is successfully refunded\n  function refund(uint _antId, uint _contributionId)\n    external\n    antReviewExists(_antId)\n    onlyContributor(_antId, _contributionId)\n    hasNotPaid(_antId)\n    hasNotRefunded(_antId, _contributionId)\n    whenNotPaused()\n    returns (bool)\n  {\n    require(now > antreviews[_antId].deadline, \"Deadline has not elapsed\");\n\n    Contribution storage contribution = contributions[_antId][_contributionId];\n\n    contribution.refunded = true;\n    antreviews[_antId].balance = antreviews[_antId].balance.sub(contribution.amount);\n\n    require(ants.transfer(contribution.contributor, contribution.amount));\n\n    emit ContributionRefunded(_antId, _contributionId, msg.sender);\n\n    return true;\n  }\n\n\n  /// @notice Submit a fulfillment for the given antReview\n  /// @dev Access restricted to Peer-Reviewer\n  /// @param _antId The AntReview Id\n  /// @param _reviewHash The IPFS Hash of the peer-review\n  /// @return True If the AntReview is successfully fulfilled\n  function fulfillAntReview(uint256 _antId, string calldata _reviewHash)\n    external\n    onlyPeerReviewer()\n    antReviewExists(_antId)\n    hasStatus(_antId, AntReviewStatus.CREATED)\n    isBeforeDeadline(_antId)\n    whenNotPaused()\n    returns (bool)\n  {\n    peer_reviews[_antId].push(Peer_Review(false, msg.sender, _reviewHash));\n\n    emit AntReviewFulfilled(_antId, peer_reviews[_antId].length.sub(1), msg.sender, _reviewHash);\n    return true;\n  }\n\n  /// @notice Update AntReview\n  /// @dev Access restricted to Peer_Reviewers\n  /// @param _antId The AntReview Id\n  /// @param _reviewId The Peer_Review Id\n  /// @param _reviewHash The IPFS Hash of the updated Peer_Review\n  /// @return True If the Peer_Review is successfully updated\n  function updateReview(uint _antId, uint _reviewId, string calldata _reviewHash)\n    external\n    onlySubmitter(_antId, _reviewId)\n    reviewExists(_antId, _reviewId)\n    hasStatus(_antId, AntReviewStatus.CREATED)\n    isBeforeDeadline(_antId)\n    whenNotPaused()\n    returns (bool)\n  {\n    peer_reviews[_antId][_reviewId].reviewHash = _reviewHash;\n\n    emit ReviewUpdated(_antId, _reviewId, _reviewHash);\n    return true;\n  }\n\n\n  /// @notice Accept a given Peer-Review\n  /// @dev Access restricted to Issuer\n  /// @param _antId The AntReview Id\n  /// @param _reviewId The Peer_Review Id\n  /// @return True If the AntReview is successfully being accepted\n  function acceptAntReview(uint _antId, uint _reviewId, uint _amount)\n      external\n      onlyApprover(_antId)\n      reviewExists(_antId, _reviewId)\n      hasStatus(_antId, AntReviewStatus.CREATED)\n      peerReviewNotYetAccepted(_antId, _reviewId)\n      whenNotPaused()\n      returns (bool)\n  {\n      antreviews[_antId].status = AntReviewStatus.PAID;\n      antreviews[_antId].balance = antreviews[_antId].balance.sub(_amount);\n\n      require(ants.transfer(peer_reviews[_antId][_reviewId].peer_reviewer, _amount));\n\n\n      emit AntReviewAccepted(_antId, _reviewId, msg.sender, _amount);\n      return true;\n  }\n\n  /// @notice Withdraw AntReview\n  /// @dev Access restricted to Issuer\n  /// @param _antId The AntReview Id\n  /// @param _issuerId The Issuer Id\n  /// @param _amount The amount to withdraw\n  /// @return True If the AntReview is successfully withdrawn\n  function withdrawAntReview(uint _antId, uint _issuerId, uint _amount)\n      external\n      antReviewExists(_antId)\n      hasIssuer(_antId, _issuerId)\n      whenNotPaused()\n      returns (bool)\n  {\n    require(now > antreviews[_antId].deadline, \"Deadline has not elapsed\");\n    require(antreviews[_antId].balance >= _amount, \"Amount exceed AntReview balance\");\n\n    antreviews[_antId].balance = antreviews[_antId].balance.sub(_amount);\n\n    require(ants.transfer(msg.sender, _amount));\n    emit AntReviewWithdrawn(_antId, msg.sender, _amount, antreviews[_antId].balance);\n    return true;\n  }\n\n\n}\n",
  "sourcePath": "/home/ants/ants-review/contracts/AntsReview.sol",
  "compiler": {
    "name": "solc",
    "version": "0.6.12+commit.27d51765.Emscripten.clang"
  },
  "schemaVersion": "3.2.0",
  "updatedAt": "2020-08-01T18:49:05.102Z",
  "networkType": "ethereum",
  "devdoc": {
    "events": {
      "AntReviewIssued(uint256,address[],string,string,uint64)": {
        "details": "Events"
      }
    },
    "kind": "dev",
    "methods": {
      "acceptAntReview(uint256,uint256,uint256)": {
        "details": "Access restricted to Issuer",
        "params": {
          "_antId": "The AntReview Id",
          "_reviewId": "The Peer_Review Id"
        },
        "returns": {
          "_0": "True If the AntReview is successfully being accepted"
        }
      },
      "addApprover(uint256,uint256,address)": {
        "details": "Access restricted to Issuers",
        "params": {
          "_account": "The account to be added as Approver",
          "_antId": "The AntReview Id",
          "_issuerId": "The Issuer Id"
        },
        "returns": {
          "_0": "True if the account is successfully added as Approver"
        }
      },
      "addIssuer(address)": {
        "details": "Access restricted only for Admins",
        "params": {
          "account": "Address of the new Issuer"
        },
        "returns": {
          "_0": "True if the account address is added as Issuer"
        }
      },
      "addPeerReviewer(address)": {
        "details": "Access restricted only for Admins",
        "params": {
          "account": "Address of the new Peer-Reviewer"
        },
        "returns": {
          "_0": "True if the account address is added as Peer-Reviewer"
        }
      },
      "changeAntReview(uint256,uint256,address[],string,string,uint64)": {
        "details": "Access restricted to Issuer",
        "params": {
          "_antId": "The AntReview Id",
          "_deadline": "The unix timestamp after which fulfillments will no longer be accepted",
          "_issuerId": "The Issuer Id",
          "_issuers": "The issuers of the AntReview",
          "_paperHash": "The IPFS Hash of the Scientific Paper",
          "_requirementsHash": "The IPFS Hash of the Peer-Review Requirements"
        },
        "returns": {
          "_0": "True If the AntReview is successfully changed"
        }
      },
      "contribute(uint256,uint256)": {
        "details": "Linked to ANTS token",
        "params": {
          "_amount": "The Contribution amount",
          "_antId": "The AntReview Id"
        },
        "returns": {
          "_0": "True if the account is the contribution is successfully added"
        }
      },
      "fulfillAntReview(uint256,string)": {
        "details": "Access restricted to Peer-Reviewer",
        "params": {
          "_antId": "The AntReview Id",
          "_reviewHash": "The IPFS Hash of the peer-review"
        },
        "returns": {
          "_0": "True If the AntReview is successfully fulfilled"
        }
      },
      "getApprover(uint256,uint256)": {
        "details": "Getters"
      },
      "getRoleAdmin(bytes32)": {
        "details": "Returns the admin role that controls `role`. See {grantRole} and {revokeRole}. To change a role's admin, use {_setRoleAdmin}."
      },
      "getRoleMember(bytes32,uint256)": {
        "details": "Returns one of the accounts that have `role`. `index` must be a value between 0 and {getRoleMemberCount}, non-inclusive. Role bearers are not sorted in any particular way, and their ordering may change at any point. WARNING: When using {getRoleMember} and {getRoleMemberCount}, make sure you perform all queries on the same block. See the following https://forum.openzeppelin.com/t/iterating-over-elements-on-enumerableset-in-openzeppelin-contracts/2296[forum post] for more information."
      },
      "getRoleMemberCount(bytes32)": {
        "details": "Returns the number of accounts that have `role`. Can be used together with {getRoleMember} to enumerate all bearers of a role."
      },
      "grantRole(bytes32,address)": {
        "details": "Grants `role` to `account`. If `account` had not been already granted `role`, emits a {RoleGranted} event. Requirements: - the caller must have ``role``'s admin role."
      },
      "hasRole(bytes32,address)": {
        "details": "Returns `true` if `account` has been granted `role`."
      },
      "isAdmin(address)": {
        "details": "Used in onlyAdmin() modifier",
        "params": {
          "account": "Address to check"
        },
        "returns": {
          "_0": "True If the account is an Admin"
        }
      },
      "isIssuer(address)": {
        "details": "Used in onlyIssuer() modifier",
        "params": {
          "account": "Address to check"
        },
        "returns": {
          "_0": "True If the account is an Issuer"
        }
      },
      "isPeerReviewer(address)": {
        "details": "Used in onlyPeerReviewer() modifier",
        "params": {
          "account": "Address to check"
        },
        "returns": {
          "_0": "True If the account is a Peer-Reviewer"
        }
      },
      "issueAntReview(address[],address,string,string,uint64)": {
        "details": "Access restricted to Issuer",
        "params": {
          "_approver": "The approver of the AntReview",
          "_deadline": "The unix timestamp after which fulfillments will no longer be accepted",
          "_issuers": "The issuers of the AntReview",
          "_paperHash": "The IPFS Hash of the Scientific Paper",
          "_requirementsHash": "The IPFS Hash of the Peer-Review Requirements"
        },
        "returns": {
          "_0": "True If the AntReview is successfully issued"
        }
      },
      "owner()": {
        "details": "Returns the address of the current owner."
      },
      "pause()": {
        "details": "the caller must have the 'PAUSER_ROLE'"
      },
      "paused()": {
        "details": "Returns true if the contract is paused, and false otherwise."
      },
      "refund(uint256,uint256)": {
        "details": "Access restricted to Contributor",
        "params": {
          "_antId": "The AntReview Id",
          "_contributionId": "The Contribution Id"
        },
        "returns": {
          "_0": "True if the contribution is successfully refunded"
        }
      },
      "removeApprover(uint256,uint256,address)": {
        "details": "Access restricted to Issuers",
        "params": {
          "_account": "The account to be removed as Approver",
          "_antId": "The AntReview Id",
          "_issuerId": "The Issuer Id"
        },
        "returns": {
          "_0": "True if the account is successfully removed as Approver"
        }
      },
      "removeIssuer(address)": {
        "details": "Access restricted only for Admins",
        "params": {
          "account": "Address of the Issuer"
        },
        "returns": {
          "_0": "True if the account address is removed as Issuer"
        }
      },
      "removePeerReviewer(address)": {
        "details": "Access restricted only for Admins",
        "params": {
          "account": "Address of the Peer-Reviewer"
        },
        "returns": {
          "_0": "True if the account address is removed as Peer-Reviewer"
        }
      },
      "renounceOwnership()": {
        "details": "Leaves the contract without owner. It will not be possible to call `onlyOwner` functions anymore. Can only be called by the current owner. NOTE: Renouncing ownership will leave the contract without an owner, thereby removing any functionality that is only available to the owner."
      },
      "renounceRole(bytes32,address)": {
        "details": "Revokes `role` from the calling account. Roles are often managed via {grantRole} and {revokeRole}: this function's purpose is to provide a mechanism for accounts to lose their privileges if they are compromised (such as when a trusted device is misplaced). If the calling account had been granted `role`, emits a {RoleRevoked} event. Requirements: - the caller must be `account`."
      },
      "revokeRole(bytes32,address)": {
        "details": "Revokes `role` from `account`. If `account` had been granted `role`, emits a {RoleRevoked} event. Requirements: - the caller must have ``role``'s admin role."
      },
      "transferOwnership(address)": {
        "details": "Transfers ownership of the contract to a new account (`newOwner`). Can only be called by the current owner."
      },
      "unpause()": {
        "details": "the caller must have the 'PAUSER_ROLE'"
      },
      "updateReview(uint256,uint256,string)": {
        "details": "Access restricted to Peer_Reviewers",
        "params": {
          "_antId": "The AntReview Id",
          "_reviewHash": "The IPFS Hash of the updated Peer_Review",
          "_reviewId": "The Peer_Review Id"
        },
        "returns": {
          "_0": "True If the Peer_Review is successfully updated"
        }
      },
      "withdrawAntReview(uint256,uint256,uint256)": {
        "details": "Access restricted to Issuer",
        "params": {
          "_amount": "The amount to withdraw",
          "_antId": "The AntReview Id",
          "_issuerId": "The Issuer Id"
        },
        "returns": {
          "_0": "True If the AntReview is successfully withdrawn"
        }
      }
    },
    "stateVariables": {
      "antReviewIdTracker": {
        "details": "Counter"
      },
      "antreviews": {
        "details": "Storage"
      },
      "ants": {
        "details": "Token"
      }
    },
    "version": 1
  },
  "userdoc": {
    "kind": "user",
    "methods": {
      "acceptAntReview(uint256,uint256,uint256)": {
        "notice": "Accept a given Peer-Review"
      },
      "addApprover(uint256,uint256,address)": {
        "notice": "Add Approver"
      },
      "addIssuer(address)": {
        "notice": "Add a new Issuer"
      },
      "addPeerReviewer(address)": {
        "notice": "Add a new Peer-Reviewer"
      },
      "changeAntReview(uint256,uint256,address[],string,string,uint64)": {
        "notice": "Change an AntReview"
      },
      "contribute(uint256,uint256)": {
        "notice": "Contribute to an AntReview"
      },
      "fulfillAntReview(uint256,string)": {
        "notice": "Submit a fulfillment for the given antReview"
      },
      "isAdmin(address)": {
        "notice": "Check if account is an Admin"
      },
      "isIssuer(address)": {
        "notice": "Check if account is an Issuer"
      },
      "isPeerReviewer(address)": {
        "notice": "Check if account is a Peer-Reviewer"
      },
      "issueAntReview(address[],address,string,string,uint64)": {
        "notice": "Create a new AntReview"
      },
      "pause()": {
        "notice": "Pause all the functions"
      },
      "refund(uint256,uint256)": {
        "notice": "Refund Contributors"
      },
      "removeApprover(uint256,uint256,address)": {
        "notice": "Remove Approver"
      },
      "removeIssuer(address)": {
        "notice": "Remove an Issuer"
      },
      "removePeerReviewer(address)": {
        "notice": "Remove a Peer-Reviewer"
      },
      "unpause()": {
        "notice": "Unpause all the functions"
      },
      "updateReview(uint256,uint256,string)": {
        "notice": "Update AntReview"
      },
      "withdrawAntReview(uint256,uint256,uint256)": {
        "notice": "Withdraw AntReview"
      }
    },
    "version": 1
  }
}